:100000000C940D010C9437010C9437010C943701BA
:100010000C9437010C9437010C9437010C94370180
:100020000C9437010C9437010C9437010C94370170
:100030000C9437010C9437010C9437010C94370160
:100040000C9437010C9437010C9437010C94370150
:100050000C9437010C9437010C9437010C94B806BA
:100060000C9437010C942C070C9402070C94370164
:100070000C9437010C9437010C9437010C94370120
:100080000C9437010C9437010C9437010C94370110
:100090000C9437010C9437010C9437010C946207CF
:1000A0000C9437010C9437010C9437010C943701F0
:1000B0000C9437010C9437010C9437010C943701E0
:1000C0000C9437010C9437010C9437010C943701D0
:1000D0000C9437010C9437010C9437010C943701C0
:1000E0000C943701084AD73B3BCE016E84BCBFFD60
:1000F000C12F3D6C74319ABD56833DDA3D00C77FF8
:1001000011BED9E4BB4C3E916BAAAABE0000008090
:100110003F0000002100240027002A002D003000AD
:10012000330001010000040107010A010000220060
:10013000250028002B002E003100340002010000B1
:10014000050108010B010505050507050808080854
:10015000020202020A0A080804040404010101015F
:10016000010101010303030303030303040707075A
:100170000C0C0C0C0C0C0C0C0202020206060606FF
:10018000060606060B0B0B0B0B0B0B0B01021020CC
:1001900020080810204010204080020102010804BD
:1001A0000201010204081020408080402010080451
:1001B00002018004020180402010080402010804AA
:1001C00002010102040810204080010204081020EE
:1001D000408000000A0B02090C0D0E080703040101
:1001E000000000000000000000000000000000000F
:1001F00000000000000000000000000000001211DC
:1002000010000000000000000000000000000000DE
:100210000000000000000000860811241FBECFEF80
:10022000D1E2DEBFCDBF12E0A0E0B2E0E8E4F8E149
:1002300000E00BBF02C007900D92A432B107D9F7BE
:1002400023E0A4E2B2E001C01D92A03AB207E1F7B8
:1002500011E0CDE0D1E004C02197FE010E94190C0D
:10026000CC30D107C9F70E94BF080C94220C0C9423
:100270000000282F30E0F901EE52FE4F9491F90171
:10028000E457FE4F84912A5B3E4FF90124912223CB
:1002900009F433C0992301F191509231E8F4E92F28
:1002A000F0E0EB5AFE4F0C94190C86018A016701AD
:1002B0007E0182016C018D01930197019D01A101D5
:1002C000A501AB01AF016C01B301B901BD01909172
:1002D00080009F7790938000E22FF0E0EE0FFF1FE9
:1002E000E45DFE4FA591B4919FB7F894EC91611134
:1002F00048C080958E238C939FBF08959091800075
:100300009F7DE8CF90918000977FE4CF94B59F7751
:1003100094BDE2CF94B59F7DFBCF9091B0009F77C5
:100320009093B000D9CF9091B0009F7DF9CF90917C
:1003300090009F7790939000CFCF909190009F7DF9
:10034000F9CF90919000977FF5CF9091A0009F7783
:100350009093A000C1CF9091A0009F7DF9CF909184
:10036000A000977FF5CF909120019F779093200177
:10037000B3CF909120019F7DF9CF90912001977F7D
:10038000F5CF8E2BB8CF3FB7F8948091A302909110
:10039000A402A091A502B091A60226B5A89B05C013
:1003A0002F3F19F00196A11DB11D3FBFBA2FA92FF4
:1003B000982F8827BC01CD01620F711D811D911DF1
:1003C00042E0660F771F881F991F4A95D1F708955D
:1003D0008F929F92AF92BF92CF92DF92EF92FF9255
:1003E0000E94C3014B015C018AE0C82ED12CE12C94
:1003F000F12C0E94C301681979098A099B09683E9A
:10040000734081059105A8F321E0C21AD108E108E3
:10041000F10888EE880E83E0981EA11CB11CC1145F
:10042000D104E104F10429F7FF90EF90DF90CF9021
:10043000BF90AF909F908F900895AF92BF92CF9250
:10044000DF92EF92FF920F931F93CF93DF936C0194
:100450007B018B01040F151FEB015E01AE18BF0875
:10046000C017D10759F06991D601ED91FC91019027
:10047000F081E02DC6010995892B79F7C501DF913F
:10048000CF911F910F91FF90EF90DF90CF90BF9091
:10049000AF90089508950895FC01538D448D252F44
:1004A00030E0842F90E0821B930B541710F0CF960E
:1004B000089501970895FC01918D828D981761F040
:1004C000A28DAE0FBF2FB11D5D968C91928D9F5F57
:1004D0009F73928F90E008958FEF9FEF0895FC0136
:1004E000918D828D981731F0828DE80FF11D858DE9
:1004F00090E008958FEF9FEF0895FC01918D228D7C
:10050000892F90E0805C9F4F821B91098F73992700
:10051000089587EF92E00E947D0221E0892B09F483
:1005200020E0822F0895FC01A48DA80FB92FB11DE2
:10053000A35ABF4F2C91848D90E001968F73992719
:10054000848FA689B7892C93A089B1898C918370F7
:1005500080648C93938D848D981306C00288F389F0
:10056000E02D80818F7D80830895EF92FF920F931D
:100570001F93CF93DF93EC0181E0888F9B8D8C8D4F
:1005800098131AC0E889F989808185FF15C09FB743
:10059000F894EE89FF896083E889F9898081837006
:1005A000806480839FBF81E090E0DF91CF911F91B5
:1005B0000F91FF90EF900895F62E0B8D10E00F5FD6
:1005C0001F4F0F731127E02E8C8D8E110CC00FB6AC
:1005D00007FCFACFE889F989808185FFF5CFCE0144
:1005E0000E949302F1CFEB8DEC0FFD2FF11DE35A2A
:1005F000FF4FF0829FB7F8940B8FEA89FB898081C7
:100600008062CFCFCF93DF93EC01888D8823B9F040
:10061000AA89BB89E889F9898C9185FD03C080810D
:1006200086FD0DC00FB607FCF7CF8C9185FFF2CF8A
:10063000808185FFEDCFCE010E949302E9CFDF914B
:10064000CF91089580E090E0892B29F00E948902E3
:1006500081110E94000080E090E0892B49F080E049
:1006600090E0892B29F00E94000081110E94000077
:1006700080E090E0892B49F080E090E0892B29F020
:100680000E94000081110E94000080E090E0892B10
:1006900049F080E090E0892B29F00E940000811150
:1006A0000C940000089520916D02260F3327331F0C
:1006B00021323105ECF42091CD02FC0190E080E084
:1006C000243069F082E00895A0916D022191AC017F
:1006D000435B5D4FA40FB52FB11D2C930196861778
:1006E00098F380916D02680F60936D0280E0089529
:1006F00081E008951092CD0281E08093CC021092A7
:10070000A70261E084E10E94390161E085E10E9475
:100710003901E9EBF0E080818E7F808380818D7FDD
:10072000808388E48093B80085E48093BC000895BA
:10073000CF93DF9391E090934C028823B9F0C0915E
:10074000B800D091BA008091BC008A7B8093BC0035
:1007500060E084E10E94390160E085E10E94390196
:100760000E947A03D093BA00C093B800DF91CF9172
:1007700008958F929F92AF92BF92CF92DF92EF92A5
:10078000FF920F931F93CF93DF93D091F602D13254
:1007900008F0D7C0182FC091F5020E94C3016B0169
:1007A0007C018091CD0281116BC082E08093CD02EB
:1007B0001093CC028FEF8093CB021092CA02D09399
:1007C000C902A5EDB2E0E9EAF2E080E0D81391C0F9
:1007D0001092A8028091A802CC0FC82BC093A80247
:1007E0008091A702813009F088C01092A7020E9470
:1007F000C3016B017C018091A8028093BB008091B2
:10080000CF029091D002A091D102B091D202892B57
:100810008A2B8B2BA1F00E94C3010091CF02109173
:10082000D0022091D1023091D2026C197D098E093B
:100830009F09061717072807390708F442C0809157
:10084000BC0083FDD8CF85EC8093BC000E94C3011F
:100850006B017C018091CD02823009F450C08091FF
:10086000CB028F3F09F46FC08091CB02803209F434
:100870006CC08091CB02803309F469C084E026C04B
:100880008091CF029091D002A091D102B091D2027A
:10089000892B8A2B8B2B09F484CF0E94C301809073
:1008A000CF029090D002A090D102B090D2026C19E9
:1008B0007D098E099F0986169706A806B90608F0D5
:1008C00070CF8091CE020E94980385E01092D402EE
:1008D0001092F6021092D302DF91CF911F910F91E7
:1008E000FF90EF90DF90CF90BF90AF909F908F9050
:1008F00008959D9191938F5F69CF85EEA5CF8091EB
:10090000CF029091D002A091D102B091D202892B56
:100910008A2B8B2B09F49ECF0E94C3010091CF023A
:100920001091D0022091D1023091D2026C197D0930
:100930008E099F09061717072807390708F08ACF7D
:10094000C0CF81E0C3CF80E0C1CF82E0BFCF83E0E2
:10095000BDCF0895E091950280919402E81730F49C
:10096000F0E0E45DFD4F808190E008958FEF9FEF10
:10097000089590919502809194022FEF3FEF981780
:1009800048F4E92FF0E0E45DFD4F208130E09F5F07
:1009900090939502C90108958091940290919502D7
:1009A000891B990B0895CF92DF92EF92FF920F93DC
:1009B0001F93CF93DF937C01CB018A012091D30257
:1009C000222389F0EB016B01C40ED51ECC15DD0589
:1009D00069F06991D701ED91FC910190F081E02DD2
:1009E000C7010995F3CF642F0E945303C801DF911B
:1009F000CF911F910F91FF90EF90DF90CF900895CE
:100A0000CF93DF931F92CDB7DEB769832091D302D6
:100A10002223F9F02091F602203258F021E030E054
:100A2000FC013383228390E080E00F90DF91CF912F
:100A300008958091D402E82FF0E0EB52FD4F9981A8
:100A400090838F5F8093D4028093F60281E090E0E0
:100A5000ECCF61E0CE0101960E945303F7CF682FDF
:100A600084E993E00C94000590E080E0089585ED22
:100A70008093BC008091CF029091D002A091D102CE
:100A8000B091D2020796A11DB11D23E0B695A7959E
:100A9000979587952A95D1F72091BC0024FD03C036
:100AA0001092CD0208954091CF025091D0026091F2
:100AB000D1027091D202452B462B472B69F3009748
:100AC000A105B10541F025E32A95F1F70000019752
:100AD000A109B109E1CF8091CE020C9498038F92C5
:100AE0009F92AF92BF92CF92DF92EF92FF92CF93FD
:100AF000C1E0C093D30283E58093F5021092D40243
:100B00001092F6028DE290E00E942F0588E090E0BE
:100B10000E942F0581E00E94B9030E94E801C09362
:100B2000D3021092D4021092F60282E390E00E9467
:100B30002F0580E00E94B9030E94C3016B017C0174
:100B40008091CD02811165C081E08093CD028093B8
:100B5000CC029FEF9093CB021092CA0295E0909343
:100B6000C9028093A8028091A802866A8093A80295
:100B70008091A702813009F0D5C01092A7020E948F
:100B8000C3016B017C018091A8028093BB0080911E
:100B9000CF029091D002A091D102B091D202892BC4
:100BA0008A2B8B2BA1F00E94C3018090CF029090E2
:100BB000D002A090D102B090D2026C197D098E09AA
:100BC0009F0986169706A806B90608F443C08091C7
:100BD000BC0083FDD8CF85EC8093BC000E94C3018C
:100BE0006B017C018091CD02813009F49DC0809120
:100BF000CA02863008F0BAC08091CA02A9EAB2E0FF
:100C0000ECE2F2E090E0981751F12D9121939F5F73
:100C1000FACF8091CF029091D002A091D102B091F1
:100C2000D202892B8A2B8B2B09F48ACF0E94C30115
:100C30008090CF029090D002A090D102B090D202CA
:100C40006C197D098E099F0986169706A806B906B4
:100C500008F076CF8091CE020E94980380E0109237
:100C600095028093940284E993E00E94B9047C0188
:100C700084E993E00E94B90460E0782F6E297F290F
:100C8000072E000C880B990B0E94ED0A20E030E043
:100C900040E85BE30E94A80B6B017C01C092280234
:100CA000D0922902E0922A02F0922B0284E993E08A
:100CB0000E94B9045C0184E993E00E94B90460E0F9
:100CC000782F6A297B29072E000C880B990B0E942C
:100CD000ED0A20E030E040E85BE30E94A80B4B0106
:100CE0005C018092240290922502A0922602B0928A
:100CF000270284E993E00E94B90484E993E00E940A
:100D0000B904A7019601C501B4010E94790ACF91E7
:100D1000FF90EF90DF90CF90BF90AF909F908F901B
:100D20000C944A0A85EE58CF8091CF029091D00260
:100D3000A091D102B091D202892B8A2B8B2B09F47E
:100D400051CF0E94C3018090CF029090D002A0901A
:100D5000D102B090D2026C197D098E099F098616C6
:100D60009706A806B90608F03DCF74CF86E046CFB7
:100D70001F920F920FB60F9211242F933F938F93D0
:100D80009F93AF93BF9380919F029091A002A091F7
:100D9000A102B091A20230919E0223E0230F2D37D1
:100DA00058F50196A11DB11D20939E0280939F02CC
:100DB0009093A002A093A102B093A2028091A302FB
:100DC0009091A402A091A502B091A6020196A11D46
:100DD000B11D8093A3029093A402A093A502B093A7
:100DE000A602BF91AF919F918F913F912F910F904C
:100DF0000FBE0F901F90189526E8230F0296A11D95
:100E0000B11DD2CF1F920F920FB60F9211240BB6C5
:100E10000F922F933F934F935F936F937F938F9393
:100E20009F93AF93BF93EF93FF9387EF92E00E945E
:100E30009302FF91EF91BF91AF919F918F917F911D
:100E40006F915F914F913F912F910F900BBE0F903B
:100E50000FBE0F901F9018951F920F920FB60F9212
:100E600011240BB60F922F938F939F93EF93FF93C1
:100E7000E0910703F09108038081E0910D03F09168
:100E80000E0382FD1DC09081809110038F5F8F73D0
:100E900020911103821741F0E0911003F0E0E95036
:100EA000FD4F958F80931003FF91EF919F918F914C
:100EB0002F910F900BBE0F900FBE0F901F901895A3
:100EC0008081F2CF1F920F920FB60F9211240BB6B2
:100ED0000F922F933F934F935F936F937F938F93D3
:100EE0009F93AF93BF93EF93FF938091B900887F57
:100EF000803609F44DC008F040C0883209F4A9C01A
:100F000028F5803109F49DC0C8F4882309F4FBC09A
:100F1000883009F496C0FF91EF91BF91AF919F91F6
:100F20008F917F916F915F914F913F912F910F9092
:100F30000BBE0F900FBE0F901F901895883109F4CB
:100F400088C0803241F78093CB0214C0803409F40A
:100F50009DC040F48033B9F38833E9F68093CB0227
:100F600085ECB0C0803509F485C0883509F496C099
:100F7000883489F60E943705CECF883909F48CC0B1
:100F800038F5883729F050F4883611F0803719F693
:100F900083E08093CD0210928F0257C0883809F405
:100FA0007BC0803919F0803809F0B5CF80918F026D
:100FB000803208F071C0E0918F0281E08E0F809343
:100FC0008F028091BB00F0E0E159FD4F80833DC06E
:100FD000803B39F0E0F4803A09F479C0883A09F0AE
:100FE0009ACF84E08093CD0210926E0210926D022F
:100FF000E0919202F0919302099580916D02811126
:101000000FC081E080936D0210924D0209C0803CB8
:1010100009F4A6CF883C09F4A3CF883B09F07BCF25
:10102000E0916E0281E08E0F80936E02F0E0E35B50
:10103000FD4F80818093BB0090916E0280916D0284
:1010400029C08091A8028093BB0085EC8093BC00EE
:1010500062CF9091CA028091C902981758F5E09129
:10106000CA0281E08E0F8093CA02F0E0E755FD4F7F
:101070008081E9CFE091CA0281E08E0F8093CA029D
:101080008091BB00F0E0E755FD4F80839091CA024C
:101090008091C9029817C8F285E8D8CFE091CA02BA
:1010A00081E08E0F8093CA028091BB00F0E0E7558B
:1010B000FD4F80838091CC0281115CCF81E08093D1
:1010C000A70284EA8093BC001092CD0224CF85EC65
:1010D0008093BC001092CD0280918F02803230F458
:1010E000E0918F02F0E0E159FD4F108260918F0294
:1010F00070E0E0919002F09191028FE692E0099504
:1011000010928F0208CF1092CB0234CFE7EFF2E0BB
:101110001382128288EE93E0A0E0B0E0848395838E
:10112000A683B78324E032E03183208325EC30E0CE
:101130003587248724EC30E03787268720EC30E0A1
:10114000318B208B21EC30E0338B228B22EC30E092
:10115000358B248B26EC30E0378B268B118E128E4C
:10116000138E148EE4E9F3E0138212828483958354
:10117000A683B78386E192E0918380830895789473
:1011800084B5826084BD84B5816084BD85B582608C
:1011900085BD85B5816085BD80916E00816080933D
:1011A0006E001092810080918100826080938100A6
:1011B00080918100816080938100809180008160B6
:1011C000809380008091B10084608093B100809111
:1011D000B00081608093B000809191008260809324
:1011E00091008091910081608093910080919000A6
:1011F0008160809390008091A10082608093A10023
:101200008091A10081608093A1008091A000816005
:101210008093A000809121018260809321018091C0
:101220002101816080932101809120018160809360
:10123000200180917A00846080937A0080917A0006
:10124000826080937A0080917A00816080937A0036
:1012500080917A00806880937A001092C100E9E959
:10126000F1E02491E3E5F1E08491882399F090E0A6
:10127000880F991FFC01EE5EFE4FA591B491FC0111
:10128000E45DFE4F859194918FB7F894EC91E22B39
:10129000EC938FBFE0910703F091080382E0808315
:1012A000E0910303F09104031082E0910503F091B3
:1012B00006038FEC808310920F03E0910B03F091F3
:1012C0000C0386E08083E0910903F0910A0380819A
:1012D00080618083E0910903F0910A038081886036
:1012E0008083E0910903F0910A0380818068808304
:1012F000E0910903F0910A0380818F7D8083109231
:101300009502109294021092D4021092F6020E945A
:101310007A038AE492E090939302809392028BE4A2
:1013200092E0909391028093900281E08093D302A7
:1013300083E58093F5028DE290E00E942F0588E01E
:1013400090E00E942F0581E00E94B9030E94E8010D
:101350000E946F056B017C010E94E8010E946F05ED
:10136000A70196010E94DD099B01AC0160E070E0DD
:1013700084EB92E40E94DD096B017C01AC019B01CE
:1013800060919A0270919B0280919C0290919D02C3
:101390000E94DE0960939A0270939B0280939C02E4
:1013A00090939D02C0929602D0929702E09298028A
:1013B000F09299020E942203CBCF5058BB27AA2754
:1013C0000E94F5090C94660B0E94580B38F00E949D
:1013D0005F0B20F039F49F3F19F426F40C942E0B88
:1013E0000EF4E095E7FB0C94280BE92F0E94770B95
:1013F00058F3BA17620773078407950720F079F44A
:10140000A6F50C94990B0EF4E0950B2EBA2FA02D97
:101410000B01B90190010C01CA01A0011124FF27A1
:10142000591B99F0593F50F4503E68F11A16F0409C
:10143000A22F232F342F4427585FF3CF469537959B
:101440002795A795F0405395C9F77EF41F16BA0B60
:10145000620B730B840BBAF09150A1F0FF0FBB1F0E
:10146000661F771F881FC2F70EC0BA0F621F731F57
:10147000841F48F4879577956795B795F7959E3FB4
:1014800008F0B0CF9395880F08F09927EE0F979545
:1014900087950895DF93DD27B92FBF7740E85FE395
:1014A0001616170648075B0718F4D92F0E94A00BE1
:1014B0009F938F937F936F930E94150CE4EEF0E05F
:1014C0000E94310B0E94660B2F913F914F915F91CB
:1014D0000E94BB0BDD2351F09058A2EA2AED3FE0B9
:1014E00049EC5FE3D0785D270E94F509DF910C9409
:1014F000660B0E948D0A0C94660B0E945F0B58F0DD
:101500000E94580B40F029F45F3F29F00C94280BFF
:1015100051110C949A0B0C942E0B0E94770B68F3CC
:101520009923B1F3552391F3951B550BBB27AA279C
:1015300062177307840738F09F5F5F4F220F331FD6
:10154000441FAA1FA9F335D00E2E3AF0E0E832D09E
:1015500091505040E695001CCAF72BD0FE2F29D0A1
:10156000660F771F881FBB1F261737074807AB0773
:10157000B0E809F0BB0B802DBF01FF2793585F4FE8
:101580003AF09E3F510578F00C94280B0C949A0B7E
:101590005F3FE4F3983ED4F3869577956795B795CA
:1015A000F7959F5FC9F7880F911D9695879597F9D5
:1015B0000895E1E0660F771F881FBB1F621773074E
:1015C0008407BA0720F0621B730B840BBA0BEE1F63
:1015D00088F7E0950895E89409C097FB3EF490954C
:1015E0008095709561957F4F8F4F9F4F9923A9F0FC
:1015F000F92F96E9BB279395F6958795779567958B
:10160000B795F111F8CFFAF4BB0F11F460FF1BC0CE
:101610006F5F7F4F8F4F9F4F16C0882311F096E961
:1016200011C0772321F09EE8872F762F05C066230F
:1016300071F096E8862F70E060E02AF09A95660FC8
:10164000771F881FDAF7880F9695879597F9089581
:1016500097F99F6780E870E060E008959FEF80EC65
:101660000895DF93CF931F930F93FF92EF92DF9232
:101670007B018C01689406C0DA2EEF010E94BB0B3F
:10168000FE01E894A5912591359145915591A6F3D8
:10169000EF010E94F509FE019701A801DA9469F7AC
:1016A000DF90EF90FF900F911F91CF91DF91089500
:1016B00000240A9416161706180609060895002431
:1016C0000A9412161306140605060895092E0394AB
:1016D000000C11F4882352F0BB0F40F4BF2B11F41F
:1016E00060FF04C06F5F7F4F8F4F9F4F089557FD7E
:1016F0009058440F551F59F05F3F71F04795880F80
:1017000097FB991F61F09F3F79F087950895121616
:1017100013061406551FF2CF4695F1DF08C01616C2
:1017200017061806991FF1CF869571056105089473
:101730000895E894BB2766277727CB0197F908958A
:101740009B01AC0160E070E080E89FE30C94790AB3
:101750000E94BB0B0C94660B0E94580B38F00E9441
:101760005F0B20F0952311F00C94280B0C942E0B9A
:1017700011240C949A0B0E94770B70F3959FC1F380
:10178000950F50E0551F629FF001729FBB27F00D2F
:10179000B11D639FAA27F00DB11DAA1F649F662784
:1017A000B00DA11D661F829F2227B00DA11D621FD3
:1017B000739FB00DA11D621F839FA00D611D221F8D
:1017C000749F3327A00D611D231F849F600D211D71
:1017D000822F762F6A2F11249F5750409AF0F1F0F4
:1017E00088234AF0EE0FFF1FBB1F661F771F881F5D
:1017F00091505040A9F79E3F510580F00C94280B62
:101800000C949A0B5F3FE4F3983ED4F3869577955A
:101810006795B795F795E7959F5FC1F7FE2B880F02
:10182000911D9695879597F908959B01AC010C94AD
:10183000A80BEE0FFF1F0024001C0BBE0790F691B3
:08184000E02D0994F894FFCF9C
:1018480000000000B5021D024C0202037D025B028B
:101858006F02000000000005D3043405A904CC047D
:04186800B904AA0411
:00000001FF
