:100000000C94F6000C9448080C941D080C94F2070C
:100010000C94C7070C949C070C9471070C9446072A
:100020000C941B070C9420010C9420010C942001CB
:100030000C9420010C9420010C9420010C942001BC
:100040000C9420010C9420010C9420010C942001AC
:100050000C9420010C9420010C9420010C94D106E6
:100060000C9420010C949D080C9473080C942001AE
:100070000C9420010C9420010C9420010C9420017C
:100080000C9420010C9420010C9420010C9420016C
:100090000C9420010C9420010C9420010C94D308A2
:1000A0000C9420010C9420010C9420010C9420014C
:1000B0000C9420010C9420010C9420010C9420013C
:1000C0000C9420010C9420010C9420010C9420012C
:1000D0000C9420010C9420010C9420010C9420011C
:1000E0000C94200100002100240027002A002D008C
:1000F0003000330001010000040107010A01000083
:100100002200250028002B002E00310034000201BF
:100110000000050108010B01050505050705080894
:100120000808020202020A0A080804040404010181
:100130000101010101010303030303030303040796
:1001400007070C0C0C0C0C0C0C0C0202020206062D
:100150000606060606060B0B0B0B0B0B0B0B010220
:1001600010202008081020401020408002010201C9
:100170000804020101020408102040808040201081
:1001800008040201800402018040201008040201DA
:100190000804020101020408102040800102040842
:1001A0001020408000000A0B02090C0D0E08070306
:1001B000040100000000000000000000000000003A
:1001C000000000000000000000000000000000002F
:1001D00012111000000000000000000000000000EC
:1001E00000000000000000000000F70911241FBEFD
:1001F000CFEFD1E2DEBFCDBF12E0A0E0B2E0E6ED8E
:10020000FDE100E00BBF02C007900D92A834B107DA
:10021000D9F723E0A8E4B2E001C01D92AC3CB207DC
:10022000E1F710E0C6EFD0E004C02197FE010E9484
:10023000E00EC53FD107C9F70E94410A0C94E90EB0
:100240000C940000282F30E0F901EC55FE4F9491FA
:10025000F901E25AFE4F8491285E3E4FF901249144
:10026000222309F433C0992301F191509231E8F42B
:10027000E92FF0E0E25CFE4F0C94E00E6F01730199
:10028000500167016B01550176017C0180018601F7
:100290008A018E019401980155019C01A201A601D9
:1002A000909180009F7790938000E22FF0E0EE0F16
:1002B000FF1FE250FF4FA591B4919FB7F894EC91C6
:1002C000611148C080958E238C939FBF08959091B3
:1002D00080009F7DE8CF90918000977FE4CF94B518
:1002E0009F7794BDE2CF94B59F7DFBCF9091B000F6
:1002F0009F779093B000D9CF9091B0009F7DF9CFB8
:10030000909190009F7790939000CFCF9091900024
:100310009F7DF9CF90919000977FF5CF9091A000AD
:100320009F779093A000C1CF9091A0009F7DF9CFBF
:100330009091A000977FF5CF909120019F779093A7
:100340002001B3CF909120019F7DF9CF90912001A2
:10035000977FF5CF8E2BB8CFCF93DF9390E0FC0142
:10036000E25AFE4F2491885E9E4FFC0184918823BF
:10037000D1F090E0880F991FFC01EC51FF4FA5913F
:10038000B491FC01E250FF4FC591D49161110EC0B0
:100390009FB7F8948C91E22FE0958E238C9328815F
:1003A000E223E8839FBFDF91CF9108958FB7F89440
:1003B000EC91E22BEC938FBFF6CFE82FF0E0EC55F9
:1003C000FE4FE491E150E23108F0AEC0F0E0E551BB
:1003D000FE4F0C94E00EFD010202070211021B0207
:1003E000940225022D0235023F02490253026202A5
:1003F0006C029402760280028A0284B5806884BD11
:1004000067BD089584B5806284BD68BD08958091FC
:1004100080008068809380007093890060938800DA
:1004200008958091800080628093800070938B009B
:1004300060938A0008958091800088608093800096
:1004400070938D0060938C0008958091B000806857
:100450008093B0006093B30008958091B0008062F3
:100460008093B0006093B4000895809190008068FC
:100470008093900070939900609398000895809104
:10048000900080628093900070939B0060939A002C
:1004900008958091900088608093900070939D00F3
:1004A00060939C0008958091A00080688093A000D4
:1004B0008091A0008F7B8093A0007093A90060932F
:1004C000A80008958091A00080628093A00070939E
:1004D000AB006093AA0008958091A000886080938B
:1004E000A0007093AD006093AC000895809120014E
:1004F00080688093200170932901609328010895FA
:100500008091200180628093200170932B01609381
:100510002A010895809120018860809320017093C2
:100520002D0160932C010895603871051CF460E082
:100530000C94220161E0FCCF3FB7F8948091130343
:1005400090911403A0911503B091160326B5A89BB2
:1005500005C02F3F19F00196A11DB11D3FBFBA2F55
:10056000A92F982F8827BC01CD01620F711D811D15
:10057000911D42E0660F771F881F991F4A95D1F79A
:1005800008958F929F92AF92BF92CF92DF92EF9297
:10059000FF924B015C010E949C026B017C010E9456
:1005A0009C026C197D098E099F09683E7340810584
:1005B0009105A8F321E0821A9108A108B10888EEFC
:1005C000C80E83E0D81EE11CF11C81149104A10423
:1005D000B10429F7FF90EF90DF90CF90BF90AF90DC
:1005E0009F908F9008950895AF92BF92CF92DF921F
:1005F000EF92FF920F931F93CF93DF936C017B01D8
:100600008B01040F151FEB015E01AE18BF08C01768
:10061000D10759F06991D601ED91FC910190F081DB
:10062000E02DC6010995892B79F7C501DF91CF919E
:100630001F910F91FF90EF90DF90CF90BF90AF9000
:10064000089580910C0390910D03019690930D03F2
:1006500080930C03089580910A0390910B030196F7
:1006600090930B0380930A03089508950895FC0165
:10067000538D448D252F30E0842F90E0821B930B07
:10068000541710F0CF96089501970895FC01918DAD
:10069000828D981761F0A28DAE0FBF2FB11D5D96B0
:1006A0008C91928D9F5F9F73928F90E008958FEF52
:1006B0009FEF0895FC01918D828D981731F0828D06
:1006C000E80FF11D858D90E008958FEF9FEF08955D
:1006D000FC01918D228D892F90E0805C9F4F821BC1
:1006E00091098F739927089587E193E00E94680329
:1006F00021E0892B09F420E0822F0895FC01A48DCC
:10070000A80FB92FB11DA35ABF4F2C91848D90E033
:1007100001968F739927848FA689B7892C93A08916
:10072000B1898C91837080648C93938D848D9813A0
:1007300006C00288F389E02D80818F7D8083089533
:10074000EF92FF920F931F93CF93DF93EC0181E021
:10075000888F9B8D8C8D98131AC0E889F9898081C8
:1007600085FF15C09FB7F894EE89FF896083E889FB
:10077000F98980818370806480839FBF81E090E0ED
:10078000DF91CF911F910F91FF90EF900895F62E7A
:100790000B8D10E00F5F1F4F0F731127E02E8C8D14
:1007A0008E110CC00FB607FCFACFE889F989808159
:1007B00085FFF5CFCE010E947E03F1CFEB8DEC0FCC
:1007C000FD2FF11DE35AFF4FF0829FB7F8940B8F76
:1007D000EA89FB8980818062CFCFCF93DF93EC01E0
:1007E000888D8823B9F0AA89BB89E889F9898C9119
:1007F00085FD03C0808186FD0DC00FB607FCF7CFD5
:100800008C9185FFF2CF808185FFEDCFCE010E94D4
:100810007E03E9CFDF91CF91089580E090E0892BAE
:1008200029F00E94740381110E94000080E090E092
:10083000892B49F080E090E0892B29F00E9400008C
:1008400081110E94000080E090E0892B49F080E057
:1008500090E0892B29F00E94000081110E94000085
:1008600080E090E0892B49F080E090E0892B29F02E
:100870000E94000081110C94000008952091B002A4
:10088000260F3327331F21323105ECF42091D40297
:10089000FC0190E080E0243069F082E00895A091AE
:1008A000B0022191AC0140575D4FA40FB52FB11D8F
:1008B0002C930196861798F38091B002680F60938D
:1008C000B00280E0089581E008951092D40281E0A2
:1008D0008093D6021092D50261E084E10E94220149
:1008E00061E085E10E942201E9EBF0E080818E7FEA
:1008F000808380818D7F808388E48093B80085E445
:100900008093BC000895CF93DF9391E090938F0282
:100910008823B9F0C091B800D091BA008091BC0092
:100920008A7B8093BC0060E084E10E94220160E049
:1009300085E10E9422010E946504D093BA00C09311
:10094000B800DF91CF9108950895E091010380915F
:100950000003E81730F4F0E0E659FD4F808190E0A5
:1009600008958FEF9FEF0895909101038091000308
:100970002FEF3FEF981748F4E92FF0E0E659FD4FCD
:10098000208130E09F5F90930103C9010895809119
:10099000000390910103891B990B0895CF92DF9278
:1009A000EF92FF920F931F93CF93DF937C01CB01C4
:1009B0008A0120916902222389F0EB016B01C40EA8
:1009C000D51ECC15DD0569F06991D701ED91FC913B
:1009D0000190F081E02DC7010995F3CF642F0E94AB
:1009E0003E04C801DF91CF911F910F91FF90EF90CE
:1009F000DF90CF900895CF93DF931F92CDB7DEB7EE
:100A00006983209169022223F9F02091FE022032AD
:100A100058F021E030E0FC013383228390E080E055
:100A20000F90DF91CF9108958091FF02E82FF0E0C1
:100A3000E75BFD4F998190838F5F8093FF028093E6
:100A4000FE0281E090E0ECCF61E0CE0101960E94D1
:100A50003E04F7CFCF92DF92EF92FF920F931F9356
:100A6000CF93DF93FC01C48121E020936902C093FE
:100A700048021092FF021092FE028385682B84EBDD
:100A800093E00E94FB04D091FE02D13208F092C0A4
:100A90000E949C026B017C018091D402811165C08F
:100AA00082E08093D40281E08093D6028FEF80931E
:100AB000D3021092F802D093F702A9E4B2E0E7ED76
:100AC000F2E080E0D81385C01092F9028091F9021B
:100AD000CC0FC82BC093F9028091D502813009F068
:100AE0007CC01092D5020E949C026B017C01809117
:100AF000F9028093BB0080918B0290918C02A091AF
:100B00008D02B0918E02892B8A2B8B2B99F00E943B
:100B10009C0200918B0210918C0220918D023091E9
:100B20008E026C197D098E099F0906171707280781
:100B30003907E0F18091BC0083FDD9CF85EC80932B
:100B4000BC000E949C026B017C018091D402823027
:100B500009F445C08091D3028F3F61F18091D302A7
:100B6000803241F18091D30225C080918B02909117
:100B70008C02A0918D02B0918E02892B8A2B8B2B37
:100B800009F48ACF0E949C0200918B0210918C0282
:100B900020918D0230918E026C197D098E099F097A
:100BA000061717072807390708F076CF80918A02C1
:100BB0000E9483041092FF021092FE0210926902BA
:100BC000DF91CF911F910F91FF90EF90DF90CF9029
:100BD00008959D9191938F5F75CF85EEB0CF8091F1
:100BE0008B0290918C02A0918D02B0918E02892B84
:100BF0008A2B8B2B09F4A9CF0E949C0200918B02B7
:100C000010918C0220918D0230918E026C197D0919
:100C10008E099F09061717072807390708F095CF8F
:100C2000C5CF089590E080E008958F929F92AF9293
:100C3000BF920F931F93CF93DF93CDB7DEB7A197EA
:100C40000FB6F894DEBF0FBECDBF19A2423008F434
:100C50004AE08E010F5D1F4F842E912CB12CA12CE8
:100C6000A50194010E94BE0EE62FB901CA01EA3027
:100C700044F5E05DD801EE938D01232B242B252B29
:100C800079F790E080E0109769F0FD010190002075
:100C9000E9F73197AF014A1B5B0BBD0180EC93E094
:100CA0000E94F402A1960FB6F894DEBF0FBECDBF2E
:100CB000DF91CF911F910F91BF90AF909F908F9038
:100CC0000895E95CD7CF0F931F93CF938C01C62F64
:100CD0000E942A056C2F6460C8010E942A056C2FAF
:100CE0006B7FC8010E942A0583EC90E00197F1F721
:100CF000CF911F910F9108950F931F93CF93DF937F
:100D00008C01D62FC42F607F642B0E94630680E184
:100D1000D89FB00111246C2BC801DF91CF911F9196
:100D20000F910C94630641E00E947C0681E090E004
:100D3000089585ED8093BC0080918B0290918C0288
:100D4000A0918D02B0918E020796A11DB11D23E0E6
:100D5000B695A795979587952A95D1F72091BC00D0
:100D600024FD03C01092D402089540918B0250914B
:100D70008C0260918D0270918E02452B462B472B81
:100D800069F30097A105B10541F025E32A95F1F734
:100D900000000197A109B109E1CF80918A020C946A
:100DA00083041F920F920FB60F9211242F933F933B
:100DB0008F939F93AF93BF9380910F0390911003F4
:100DC000A0911103B091120330910E0323E0230F81
:100DD0002D3758F50196A11DB11D20930E03809368
:100DE0000F0390931003A0931103B093120380910B
:100DF000130390911403A0911503B091160301966B
:100E0000A11DB11D8093130390931403A0931503A8
:100E1000B0931603BF91AF919F918F913F912F9106
:100E20000F900FBE0F901F90189526E8230F029683
:100E3000A11DB11DD2CF1F920F920FB60F92112498
:100E40000BB60F922F933F934F935F936F937F93C4
:100E50008F939F93AF93BF93EF93FF93E0910E0215
:100E6000F0910F020995FF91EF91BF91AF919F9182
:100E70008F917F916F915F914F913F912F910F9043
:100E80000BBE0F900FBE0F901F9018951F920F92E0
:100E90000FB60F9211240BB60F922F933F934F93DF
:100EA0005F936F937F938F939F93AF93BF93EF93D2
:100EB000FF93E0910C02F0910D020995FF91EF91E3
:100EC000BF91AF919F918F917F916F915F914F9162
:100ED0003F912F910F900BBE0F900FBE0F901F9060
:100EE00018951F920F920FB60F9211240BB60F9206
:100EF0002F933F934F935F936F937F938F939F9322
:100F0000AF93BF93EF93FF93E0910202F09103023E
:100F10000995FF91EF91BF91AF919F918F917F9133
:100F20006F915F914F913F912F910F900BBE0F905A
:100F30000FBE0F901F9018951F920F920FB60F9231
:100F400011240BB60F922F933F934F935F936F93A0
:100F50007F938F939F93AF93BF93EF93FF93E09112
:100F60000002F09101020995FF91EF91BF91AF91BD
:100F70009F918F917F916F915F914F913F912F91B1
:100F80000F900BBE0F900FBE0F901F9018951F92E1
:100F90000F920FB60F9211240BB60F922F933F931F
:100FA0004F935F936F937F938F939F93AF93BF9371
:100FB000EF93FF93E0910A02F0910B020995FF91E4
:100FC000EF91BF91AF919F918F917F916F915F91C1
:100FD0004F913F912F910F900BBE0F900FBE0F902E
:100FE0001F9018951F920F920FB60F9211240BB6F7
:100FF0000F922F933F934F935F936F937F938F93B2
:101000009F93AF93BF93EF93FF93E0910802F0910A
:1010100009020995FF91EF91BF91AF919F918F9137
:101020007F916F915F914F913F912F910F900BBEE8
:101030000F900FBE0F901F9018951F920F920FB632
:101040000F9211240BB60F922F933F934F935F9300
:101050006F937F938F939F93AF93BF93EF93FF9380
:10106000E0910602F09107020995FF91EF91BF917F
:10107000AF919F918F917F916F915F914F913F9130
:101080002F910F900BBE0F900FBE0F901F901895D1
:101090001F920F920FB60F9211240BB60F922F933F
:1010A0003F934F935F936F937F938F939F93AF93F0
:1010B000BF93EF93FF93E0910402F091050209952D
:1010C000FF91EF91BF91AF919F918F917F916F9120
:1010D0005F914F913F912F910F900BBE0F900FBEDC
:1010E0000F901F9018951F920F920FB60F92112418
:1010F0000BB60F922F933F934F935F936F937F9312
:101100008F939F93AF93BF93EF93FF9387E193E008
:101110000E947E03FF91EF91BF91AF919F918F91BC
:101120007F916F915F914F913F912F910F900BBEE7
:101130000F900FBE0F901F9018951F920F920FB631
:101140000F9211240BB60F922F938F939F93EF93CF
:10115000FF93E0912703F09128038081E0912D0314
:10116000F0912E0382FD1DC09081809130038F5F2E
:101170008F7320913103821741F0E0913003F0E04A
:10118000E95EFC4F958F80933003FF91EF919F9123
:101190008F912F910F900BBE0F900FBE0F901F904D
:1011A00018958081F2CF1F920F920FB60F921124E3
:1011B0000BB60F922F933F934F935F936F937F9351
:1011C0008F939F93AF93BF93EF93FF938091B90059
:1011D000887F803609F44DC008F040C0883209F499
:1011E000A9C028F5803109F49DC0C8F4882309F40A
:1011F000FBC0883009F496C0FF91EF91BF91AF9189
:101200009F918F917F916F915F914F913F912F911E
:101210000F900BBE0F900FBE0F901F901895883146
:1012200009F488C0803241F78093D30214C080341F
:1012300009F49DC040F48033B9F38833E9F6809314
:10124000D30285ECB0C0803509F485C0883509F437
:1012500096C0883489F60E949906CECF883909F461
:101260008CC038F5883729F050F4883611F0803773
:1012700019F683E08093D4021092D20257C08838C6
:1012800009F47BC0803919F0803809F0B5CF80911E
:10129000D202803208F071C0E091D20281E08E0F5C
:1012A0008093D2028091BB00F0E0EE54FD4F80832A
:1012B0003DC0803B39F0E0F4803A09F479C0883AC7
:1012C00009F09ACF84E08093D4021092B102109278
:1012D000B002E091FC02F091FD0209958091B0020C
:1012E00081110FC081E08093B0021092900209C07A
:1012F000803C09F4A6CF883C09F4A3CF883B09F0D1
:101300007BCFE091B10281E08E0F8093B102F0E0DB
:10131000E057FD4F80818093BB009091B102809196
:10132000B00229C08091F9028093BB0085EC8093C4
:10133000BC0062CF9091F8028091F702981758F59F
:10134000E091F80281E08E0F8093F802F0E0E9521C
:10135000FD4F8081E9CFE091F80281E08E0F80930C
:10136000F8028091BB00F0E0E952FD4F808390913C
:10137000F8028091F7029817C8F285E8D8CFE0917B
:10138000F80281E08E0F8093F8028091BB00F0E0BC
:10139000E952FD4F80838091D60281115CCF81E0BC
:1013A0008093D50284EA8093BC001092D40224CFAB
:1013B00085EC8093BC001092D4028091D2028032DE
:1013C00030F4E091D202F0E0EE54FD4F10826091D3
:1013D000D20270E0E091FA02F091FB0282EB92E01F
:1013E00009951092D20208CF1092D30234CFE7E1D0
:1013F000F3E01382128288EE93E0A0E0B0E08483F1
:101400009583A683B7832CE132E03183208325ECDA
:1014100030E03587248724EC30E03787268720ECBE
:1014200030E0318B208B21EC30E0338B228B22ECAF
:1014300030E0358B248B26EC30E0378B268B118EF9
:10144000128E138E148EE4EBF3E0138212828483E7
:101450009583A683B7838EE292E091838083E0EC4C
:10146000F3E01382128280E492E0918380838FE321
:1014700084838CE2808782E08187128688E083877C
:101480000895CF93DF93CDB7DEB728970FB6F894C2
:10149000DEBF0FBECDBF789484B5826084BD84B5B5
:1014A000816084BD85B5826085BD85B5816085BD5F
:1014B00080916E00816080936E0010928100809117
:1014C000810082608093810080918100816080939F
:1014D0008100809180008160809380008091B100C4
:1014E00084608093B1008091B00081608093B000EF
:1014F0008091910082608093910080919100816041
:101500008093910080919000816080939000809101
:10151000A10082608093A1008091A10081608093EE
:10152000A1008091A00081608093A00080912101A2
:10153000826080932101809121018160809321014B
:101540008091200181608093200180917A008460E5
:1015500080937A0080917A00826080937A008091F3
:101560007A00816080937A0080917A00806880930D
:101570007A001092C100E0912703F091280382E0E5
:101580008083E0912303F09124031082E0912503EE
:10159000F09126038FEC808310922F03E0912B03B0
:1015A000F0912C0386E08083E0912903F0912A03D7
:1015B000808180618083E0912903F0912A038081FA
:1015C00088608083E0912903F0912A0380818068FC
:1015D0008083E0912903F0912A0380818F7D8083AD
:1015E00061E08DE00E94AC0161E08CE00E94AC0102
:1015F00061E087E00E94AC0161E088E00E94AC01FC
:1016000061E08BE00E94AC0161E089E00E94AC01E6
:1016100060E085E00E94AC0161E085E00E9422016B
:1016200081E293E0909301028093000280916A002E
:10163000836080936A00EC9A60E083E00E94AC01D2
:1016400061E083E00E9422018BE293E09093030229
:101650008093020280916A008C6080936A00ED9A08
:1016600010920103109200031092FF021092FE02EA
:101670000E94650485E393E09093FD028093FC0251
:1016800086E393E09093FB028093FA021092C503E5
:101690008091C903823018F098E09093C50390912F
:1016A000CA03992339F0813029F48091C5038460FD
:1016B0008093C50362E370E080E090E00E94C10285
:1016C0006091CB0380EC93E00E942A0568EE73E002
:1016D00080E090E00E94C10260E380EC93E00E9411
:1016E00063060BE416E4C8010197F1F760E380ECB0
:1016F00093E00E946306C8010197F1F760E380EC74
:1017000093E00E94630683E592E00197F1F760E2BF
:1017100080EC93E00E9463066091C503606240E044
:1017200080EC93E00E947C0684E08093C60340E056
:101730006CE080EC93E00E947C0640E061E080EC8D
:1017400093E00E947C060BE31FE1C8010197F1F7CB
:1017500082E08093C70340E066E080EC93E00E9463
:101760007C0640E062E080EC93E00E947C06C801C9
:101770000197F1F780910C0390910D038536910547
:1017800008F0E9C080910A0390910B03853691051A
:1017900008F0E1C060910C0370910D0390E080E0CF
:1017A0004AE00E94150688E0E0E1F2E0DE011196D1
:1017B00001900D928A95E1F78091C903EFEF8111B5
:1017C000E1E0F0E0EE0FFF1F81E090E08C0F9D1F45
:1017D000E80FF91F6081606840E080EC93E00E94B0
:1017E0007C0660910A0370910B0390E080E04AE070
:1017F0000E94150660910C0370910D0390E080E04B
:101800000E94C30D9B01AC0160E070E088EC92E4A3
:101810000E94AE0C6B017C0100910A0310910B0336
:1018200020E030E040E251E40E94510E209102039A
:101830003091030340910403509105030E94AF0CC3
:101840004B015C018092020390920303A092040377
:10185000B0920503B80190E080E00E94C30D9B01A7
:10186000AC0160E070E088EC92E40E94AE0C20E0F5
:1018700030E040E251E40E94510E9B01AC016091C6
:1018800006037091070380910803909109030E9459
:10189000AF0C609306037093070380930803909343
:1018A000090361E08DE00E94220160E08CE00E946B
:1018B000220161E08BE00E94AC0168EC70E08BE0FB
:1018C0000E94DD012DEC3CEC4CE45DE3C701B60168
:1018D0000E94510E20E030E040E251E40E941B0DD6
:1018E0002B013C0120E030E040E05FE3C501B401A2
:1018F0000E94510EA70196010E94AF0C9B01AC0102
:10190000C301B2010E94AF0C20E030E040ED52E490
:101910000E94AF0C0E948D0D6B018B0161E087E08E
:101920000E94220160E088E00E94220161E089E0DB
:101930000E94AC0160E0C114D10421F00F3F1105F9
:1019400029F461E089E00E94220114CFB60189E008
:101950000E94DD010FCF0E940D040CCF5058BB2711
:10196000AA270E94C60C0C94170E0E94090E38F08C
:101970000E94100E20F039F49F3F19F426F40C94C5
:10198000060E0EF4E095E7FB0C94000EE92F0E9482
:10199000280E58F3BA17620773078407950720F0DB
:1019A00079F4A6F50C944A0E0EF4E0950B2EBA2F9E
:1019B000A02D0B01B90190010C01CA01A001112455
:1019C000FF27591B99F0593F50F4503E68F11A1601
:1019D000F040A22F232F342F4427585FF3CF469592
:1019E00037952795A795F0405395C9F77EF41F16B4
:1019F000BA0B620B730B840BBAF09150A1F0FF0F7E
:101A0000BB1F661F771F881FC2F70EC0BA0F621F69
:101A1000731F841F48F4879577956795B795F79559
:101A20009E3F08F0B0CF9395880F08F09927EE0FEE
:101A30009795879508950E942F0D0C94170E0E947C
:101A4000100E58F00E94090E40F029F45F3F29F073
:101A50000C94000E51110C944B0E0C94060E0E9427
:101A6000280E68F39923B1F3552391F3951B550B79
:101A7000BB27AA2762177307840738F09F5F5F4F61
:101A8000220F331F441FAA1FA9F335D00E2E3AF0A0
:101A9000E0E832D091505040E695001CCAF72BD0B8
:101AA000FE2F29D0660F771F881FBB1F2617370709
:101AB0004807AB07B0E809F0BB0B802DBF01FF273B
:101AC00093585F4F3AF09E3F510578F00C94000E0A
:101AD0000C944B0E5F3FE4F3983ED4F386957795D4
:101AE0006795B795F7959F5FC9F7880F911D9695F4
:101AF000879597F90895E1E0660F771F881FBB1F50
:101B0000621773078407BA0720F0621B730B840BFC
:101B1000BA0BEE1F88F7E09508950E94940D689423
:101B2000B1110C944B0E08950E94300E88F09F570F
:101B300098F0B92F9927B751B0F0E1F0660F771FF1
:101B4000881F991F1AF0BA95C9F714C0B13091F0E7
:101B50000E944A0EB1E008950C944A0E672F782F28
:101B60008827B85F39F0B93FCCF3869577956795AC
:101B7000B395D9F73EF490958095709561957F4F18
:101B80008F4F9F4F0895E89409C097FB3EF49095BE
:101B90008095709561957F4F8F4F9F4F9923A9F046
:101BA000F92F96E9BB279395F695879577956795D5
:101BB000B795F111F8CFFAF4BB0F11F460FF1BC019
:101BC0006F5F7F4F8F4F9F4F16C0882311F096E9AC
:101BD00011C0772321F09EE8872F762F05C066235A
:101BE00071F096E8862F70E060E02AF09A95660F13
:101BF000771F881FDAF7880F9695879597F90895CC
:101C000097F99F6780E870E060E008959FEF80ECAF
:101C1000089500240A941616170618060906089552
:101C200000240A9412161306140605060895092EB8
:101C30000394000C11F4882352F0BB0F40F4BF2B27
:101C400011F460FF04C06F5F7F4F8F4F9F4F089567
:101C500057FD9058440F551F59F05F3F71F047955D
:101C6000880F97FB991F61F09F3F79F08795089542
:101C7000121613061406551FF2CF4695F1DF08C061
:101C8000161617061806991FF1CF8695710561057E
:101C900008940895E894BB2766277727CB0197F926
:101CA00008950E94640E0C94170E0E94090E38F0DD
:101CB0000E94100E20F0952311F00C94000E0C944D
:101CC000060E11240C944B0E0E94280E70F3959F63
:101CD000C1F3950F50E0551F629FF001729FBB2723
:101CE000F00DB11D639FAA27F00DB11DAA1F649FBF
:101CF0006627B00DA11D661F829F2227B00DA11D72
:101D0000621F739FB00DA11D621F839FA00D611DF7
:101D1000221F749F3327A00D611D231F849F600D18
:101D2000211D822F762F6A2F11249F5750409AF041
:101D3000F1F088234AF0EE0FFF1FBB1F661F771FCD
:101D4000881F91505040A9F79E3F510580F00C9498
:101D5000000E0C944B0E5F3FE4F3983ED4F386954F
:101D600077956795B795F795E7959F5FC1F7FE2B38
:101D7000880F911D9695879597F90895A1E21A2EDF
:101D8000AA1BBB1BFD010DC0AA1FBB1FEE1FFF1F1F
:101D9000A217B307E407F50720F0A21BB30BE40B6F
:101DA000F50B661F771F881F991F1A9469F76095B6
:101DB0007095809590959B01AC01BD01CF01089570
:101DC000EE0FFF1F0024001C0BBE0790F691E02DC4
:061DD0000994F894FFCF16
:101DD600F302F302F302F302F302F302F302F30255
:101DE600000040001400540000000000A003F402AC
:101DF6003703ED03680346035A0300000000FB04A3
:101E0600CE041206A404C704B404A504000000000E
:081E16009306F4021206110606
:00000001FF
