:100000000C94F5000C9433040C9408040C94DD0358
:100010000C94B2030C9487030C945C030C9431038E
:100020000C9406030C9414010C9414010C94140108
:100030000C9414010C9414010C9414010C941401EC
:100040000C9414010C9414010C9414010C941401DC
:100050000C9414010C9414010C9414010C94BC0223
:100060000C9414010C9414010C9414010C941401BC
:100070000C9414010C9414010C9414010C941401AC
:100080000C9414010C9414010C9414010C9414019C
:100090000C9414010C9414010C9414010C9414018C
:1000A0000C9414010C9414010C9414010C9414017C
:1000B0000C9414010C9414010C9414010C9414016C
:1000C0000C9414010C9414010C9414010C9414015C
:1000D0000C9414010C9414010C9414010C9414014C
:1000E0000C94140100002100240027002A002D0098
:1000F0003000330001010000040107010A01000083
:100100002200250028002B002E00310034000201BF
:100110000000050108010B01050505050705080894
:100120000808020202020A0A080804040404010181
:100130000101010101010303030303030303040796
:1001400007070C0C0C0C0C0C0C0C0202020206062D
:100150000606060606060B0B0B0B0B0B0B0B010220
:1001600010202008081020401020408002010201C9
:100170000804020101020408102040808040201081
:1001800008040201800402018040201008040201DA
:100190000804020101020408102040800102040842
:1001A0001020408000000A0B02090C0D0E08070306
:1001B000040100000000000000000000000000003A
:1001C000000000000000000000000000000000002F
:1001D00012111000000000000000000000000000EC
:1001E0000000000000000000000011241FBECFEF3F
:1001F000D1E2DEBFCDBF12E0A0E0B2E0ECE7FAE072
:1002000000E00BBF02C007900D92A031B107D9F7F3
:1002100022E0A0E1B2E001C01D92AD31B207E1F7EA
:100220000E945E040C943C050C940000282F30E0E2
:10023000F901EC55FE4F9491F901E25AFE4F849179
:10024000285E3E4FF9012491222309F433C09923FB
:1002500001F191509231E8F4E92FF0E0EE5CFE4FAD
:100260000C9433056301670144015B015F0149019F
:100270006A01700174017A017E01820188018C019A
:100280004901900196019A01909180009F77909387
:100290008000E22FF0E0EE0FFF1FE250FF4FA5912C
:1002A000B4919FB7F894EC91611148C080958E236A
:1002B0008C939FBF0895909180009F7DE8CF90918F
:1002C0008000977FE4CF94B59F7794BDE2CF94B53B
:1002D0009F7DFBCF9091B0009F779093B000D9CFD6
:1002E0009091B0009F7DF9CF909190009F7790936F
:1002F0009000CFCF909190009F7DF9CF909190008A
:10030000977FF5CF9091A0009F779093A000C1CFE9
:100310009091A0009F7DF9CF9091A000977FF5CF9D
:10032000909120019F7790932001B3CF909120016D
:100330009F7DF9CF90912001977FF5CF8E2BB8CF7D
:10034000CF93DF9390E0FC01E25AFE4F2491885E48
:100350009E4FFC0184918823D1F090E0880F991F73
:10036000FC01EC51FF4FA591B491FC01E250FF4F0D
:10037000C591D49161110EC09FB7F8948C91E22F72
:10038000E0958E238C932881E223E8839FBFDF9141
:10039000CF9108958FB7F894EC91E22BEC938FBF37
:1003A000F6CF0895809110029091110201969093DA
:1003B000110280931002089580911202909113020D
:1003C000019690931302809312020895E82FF0E0B3
:1003D000EC55FE4FE491E150E23108F0CAC0F0E084
:1003E000EC50FE4F0C94330506020C0212021E0262
:1003F0002A02B90236023F024802540260026C022D
:100400007D028902B9029502A102AD0284B580681D
:1004100084BD8AEA87BD089584B5806284BD8AEA76
:1004200088BD0895809180008068809380008AEA6A
:1004300090E09093890080938800089580918000D7
:100440008062809380008AEA90E090938B00809392
:100450008A000895809180008860809380008AEAF5
:1004600090E090938D0080938C0008958091B0006F
:1004700080688093B0008AEA8093B30008958091E9
:10048000B00080628093B0008AEA8093B40008953F
:10049000809190008068809390008AEA90E0909329
:1004A00099008093980008958091900080628093D5
:1004B00090008AEA90E090939B0080939A000895C0
:1004C000809190008860809390008AEA90E09093F9
:1004D0009D0080939C0008958091A0008068809387
:1004E000A0008091A0008F7B8093A0008AEA90E01A
:1004F0009093A9008093A80008958091A000806245
:100500008093A0008AEA90E09093AB008093AA00C9
:1005100008958091A00088608093A0008AEA90E00E
:100520009093AD008093AC00089580912001806885
:10053000809320018AEA90E090932901809328011A
:100540000895809120018062809320018AEA90E0E2
:1005500090932B0180932A01089580912001886057
:10056000809320018AEA90E090932D0180932C01E2
:10057000089561E00C9416011F920F920FB60F922E
:1005800011242F933F938F939F93AF93BF938091A9
:10059000190290911A02A0911B02B0911C02309195
:1005A000180223E0230F2D3758F50196A11DB11D28
:1005B000209318028093190290931A02A0931B02B1
:1005C000B0931C028091140290911502A091160222
:1005D000B09117020196A11DB11D80931402909352
:1005E0001502A0931602B0931702BF91AF919F918D
:1005F0008F913F912F910F900FBE0F901F901895E4
:1006000026E8230F0296A11DB11DD2CF1F920F9293
:100610000FB60F9211240BB60F922F933F934F9367
:100620005F936F937F938F939F93AF93BF93EF935A
:10063000FF93E0910E02F0910F020995FF91EF9167
:10064000BF91AF919F918F917F916F915F914F91EA
:100650003F912F910F900BBE0F900FBE0F901F90E8
:1006600018951F920F920FB60F9211240BB60F928E
:100670002F933F934F935F936F937F938F939F93AA
:10068000AF93BF93EF93FF93E0910C02F0910D02B3
:100690000995FF91EF91BF91AF919F918F917F91BC
:1006A0006F915F914F913F912F910F900BBE0F90E3
:1006B0000FBE0F901F9018951F920F920FB60F92BA
:1006C00011240BB60F922F933F934F935F936F9329
:1006D0007F938F939F93AF93BF93EF93FF93E0919B
:1006E0000202F09103020995FF91EF91BF91AF9142
:1006F0009F918F917F916F915F914F913F912F913A
:100700000F900BBE0F900FBE0F901F9018951F9269
:100710000F920FB60F9211240BB60F922F933F93A7
:100720004F935F936F937F938F939F93AF93BF93F9
:10073000EF93FF93E0910002F09101020995FF9180
:10074000EF91BF91AF919F918F917F916F915F9149
:100750004F913F912F910F900BBE0F900FBE0F90B6
:100760001F9018951F920F920FB60F9211240BB67F
:100770000F922F933F934F935F936F937F938F933A
:100780009F93AF93BF93EF93FF93E0910A02F09191
:100790000B020995FF91EF91BF91AF919F918F91BE
:1007A0007F916F915F914F913F912F910F900BBE71
:1007B0000F900FBE0F901F9018951F920F920FB6BB
:1007C0000F9211240BB60F922F933F934F935F9389
:1007D0006F937F938F939F93AF93BF93EF93FF9309
:1007E000E0910802F09109020995FF91EF91BF9104
:1007F000AF919F918F917F916F915F914F913F91B9
:100800002F910F900BBE0F900FBE0F901F90189559
:100810001F920F920FB60F9211240BB60F922F93C7
:100820003F934F935F936F937F938F939F93AF9378
:10083000BF93EF93FF93E0910602F09107020995B1
:10084000FF91EF91BF91AF919F918F917F916F91A8
:100850005F914F913F912F910F900BBE0F900FBE64
:100860000F901F9018951F920F920FB60F921124A0
:100870000BB60F922F933F934F935F936F937F939A
:100880008F939F93AF93BF93EF93FF93E0910402F5
:10089000F09105020995FF91EF91BF91AF919F9162
:1008A0008F917F916F915F914F913F912F910F9019
:1008B0000BBE0F900FBE0F901F901895789484B5C3
:1008C000826084BD84B5816084BD85B5826085BD4C
:1008D00085B5816085BD80916E00816080936E00DA
:1008E00010928100809181008260809381008091CC
:1008F000810081608093810080918000816080937D
:1009000080008091B10084608093B1008091B0003C
:1009100081608093B000809191008260809391000B
:10092000809191008160809391008091900081601E
:10093000809390008091A10082608093A1008091BB
:10094000A10081608093A1008091A00081608093CC
:10095000A00080912101826080932101809121017A
:10096000816080932101809120018160809320012A
:1009700080917A00846080937A0080917A0082600E
:1009800080937A0080917A00816080937A008091D0
:100990007A00806880937A001092C10061E08CE058
:1009A0000E94A00161E08DE00E94A00161E088E06A
:1009B0000E94A00161E08EE00E94A00161E08FE052
:1009C0000E94A00161E087E00E94A00160E085E054
:1009D0000E94A00161E085E00E94160182ED91E095
:1009E000909301028093000280916A00836080935B
:1009F0006A00EC9A60E083E00E94A00161E083E07D
:100A00000E9416018CED91E0909303028093020204
:100A100080916A008C6080936A00ED9AC0E0D0E01B
:100A200061E08CE00E94160160E08DE00E941601FA
:100A300061E088E00E94A00188E00E94E60161E098
:100A40008EE00E94160160E08FE00E94160161E0D6
:100A500087E00E94A00187E00E94E601209701F351
:100A60000E940000DDCFEE0FFF1F0024001C0BBE14
:0C0A70000790F691E02D0994F894FFCF58
:100A7C00D101D101D101D101D101D101D101D101DA
:00000001FF
