:100000000C94F5000C9407010C9407010C94070163
:100010000C9407010C9407010C9407010C94070140
:100020000C9407010C9407010C9407010C94070130
:100030000C9407010C9407010C9407010C94070120
:100040000C9407010C9407010C9407010C94070110
:100050000C9407010C9407010C9407010C94C40143
:100060000C9407010C9407010C9407010C940701F0
:100070000C9407010C9407010C9407010C940701E0
:100080000C9407010C9407010C9407010C940701D0
:100090000C9407010C9407010C9407010C940701C0
:1000A0000C9407010C9407010C9407010C940701B0
:1000B0000C9407010C9407010C9407010C940701A0
:1000C0000C9407010C9407010C9407010C94070190
:1000D0000C9407010C9407010C9407010C94070180
:1000E0000C94070100002100240027002A002D00A5
:1000F0003000330001010000040107010A01000083
:100100002200250028002B002E00310034000201BF
:100110000000050108010B01050505050705080894
:100120000808020202020A0A080804040404010181
:100130000101010101010303030303030303040796
:1001400007070C0C0C0C0C0C0C0C0202020206062D
:100150000606060606060B0B0B0B0B0B0B0B010220
:1001600010202008081020401020408002010201C9
:100170000804020101020408102040808040201081
:1001800008040201800402018040201008040201DA
:100190000804020101020408102040800102040842
:1001A0001020408000000A0B02090C0D0E08070306
:1001B000040100000000000000000000000000003A
:1001C000000000000000000000000000000000002F
:1001D00012111000000000000000000000000000EC
:1001E0000000000000000000000011241FBECFEF3F
:1001F000D1E2DEBFCDBF22E0A0E0B2E001C01D929F
:10020000A930B207E1F70E940E020C9481030C940E
:100210000000282F30E0F901EC55FE4F9491F901D0
:10022000E25AFE4F8491285E3E4FF9012491222329
:1002300009F433C0992301F191509231E8F4E92F88
:10024000F0E0EB5DFE4F0C94780356015A01370144
:100250004E0152013C015D01630167016D017101B5
:1002600075017B017F013C01830189018D01909122
:1002700080009F7790938000E22FF0E0EE0FFF1F49
:10028000E250FF4FA591B4919FB7F894EC916111A2
:1002900048C080958E238C939FBF089590918000D5
:1002A0009F7DE8CF90918000977FE4CF94B59F77B2
:1002B00094BDE2CF94B59F7DFBCF9091B0009F7726
:1002C0009093B000D9CF9091B0009F7DF9CF9091DD
:1002D00090009F7790939000CFCF909190009F7D5A
:1002E000F9CF90919000977FF5CF9091A0009F77E4
:1002F0009093A000C1CF9091A0009F7DF9CF9091E5
:10030000A000977FF5CF909120019F7790932001D7
:10031000B3CF909120019F7DF9CF90912001977FDD
:10032000F5CF8E2BB8CFCF93DF9390E0FC01E25A4C
:10033000FE4F2491885E9E4FFC0184918823D1F06A
:1003400090E0880F991FFC01EC51FF4FA591B491EB
:10035000FC01E250FF4FC591D49161110EC09FB7CF
:10036000F8948C91E22FE0958E238C932881E223E0
:10037000E8839FBFDF91CF9108958FB7F894EC91F8
:10038000E22BEC938FBFF6CF1F920F920FB60F9216
:1003900011242F933F938F939F93AF93BF9380919B
:1003A000050290910602A0910702B09108023091D7
:1003B000040223E0230F2D3758F50196A11DB11D2E
:1003C000209304028093050290930602A0930702F3
:1003D000B09308028091000290910102A091020264
:1003E000B09103020196A11DB11D8093000290936C
:1003F0000102A0930202B0930302BF91AF919F91BB
:100400008F913F912F910F900FBE0F901F901895D5
:1004100026E8230F0296A11DB11DD2CF789484B592
:10042000826084BD84B5816084BD85B5826085BDF0
:1004300085B5816085BD80916E00816080936E007E
:100440001092810080918100826080938100809170
:100450008100816080938100809180008160809321
:1004600080008091B10084608093B1008091B000E1
:1004700081608093B00080919100826080939100B0
:1004800080919100816080939100809190008160C3
:10049000809390008091A10082608093A100809160
:1004A000A10081608093A1008091A0008160809371
:1004B000A00080912101826080932101809121011F
:1004C00081608093210180912001816080932001CF
:1004D00080917A00846080937A0080917A008260B3
:1004E00080937A0080917A00816080937A00809175
:1004F0007A00806880937A001092C10061E088E001
:100500000E94930161E089E00E94930161E08AE02A
:100510000E94930161E08BE00E94930160E082E021
:100520000E94930161E083E00E94930160E084E017
:100530000E94930161E085E00E94930160E086E003
:100540000E94930161E087E00E9493010DEA11E0AF
:10055000C8ECD0E088ECD82E90E0E92E90E0F92E9F
:1005600060E088E00E94090161E089E00E94930157
:10057000F8018491EFEFE80FE23108F0B4C0F0E049
:10058000EC53FD4F0C947803D602E102E602F00230
:10059000FA02730304030C0314031E03280332033B
:1005A00041034B03730355035F03690384B58068FC
:1005B00084BDD7BCE114F10409F4D2CF0E9400003D
:1005C000CFCF84B5806284BDD8BCF4CF8091800049
:1005D000806880938000D0938900C0938800EACF20
:1005E00080918000806280938000D0938B00C093C4
:1005F0008A00E0CF80918000886080938000D09353
:100600008D00C0938C00D6CF8091B000806880931D
:10061000B000D092B300CECF8091B00080628093C2
:10062000B000D092B400C6CF8091900080688093D3
:100630009000D0939900C0939800BCCF8091900017
:10064000806280939000D0939B00C0939A00B2CFB9
:1006500080919000886080939000D0939D00C0931B
:100660009C00A8CF8091A00080688093A00080911A
:10067000A0008F7B8093A000D093A900C093A80016
:1006800099CF8091A00080628093A000D093AB00AE
:10069000C093AA008FCF8091A00088608093A000B3
:1006A000D093AD00C093AC0085CF809120018068CD
:1006B00080932001D0932901C09328017BCF8091A2
:1006C0002001806280932001D0932B01C0932A01E6
:1006D00071CF80912001886080932001D0932D01FB
:1006E000C0932C0167CF61E089E00E94090162CFCD
:1006F000EE0FFF1F0024001C0BBE0790F691E02DAB
:060700000994F894FFCFFC
:00000001FF
