:100000000C9458000C9480000C9480000C94800098
:100010000C9480000C9480000C9480000C94800060
:100020000C9480000C9480000C9480000C94800050
:100030000C9480000C9480000C9480000C94800040
:100040000C9499030C9480000C9480000C94800014
:100050000C9480000C9480000C9480000C94800020
:100060000C94E3030C94800000000000250028009D
:100070002B00040404040404040402020202020229
:10008000030303030303010204081020408001025C
:1000900004081020010204081020000000080002DB
:1000A000010000030407000000000000000002053A
:1000B00011241FBECFEFD8E0DEBFCDBF11E0A0E01E
:1000C000B1E0ECE1FCE002C005900D92AC32B1076A
:1000D000D9F722E0ACE2B1E001C01D92A730B2072F
:1000E000E1F710E0C8E5D0E004C02197FE010E94CE
:1000F0000606C735D107C9F70E9424050C940C06E3
:100100000C94000090E0FC01E656FF4F2491FC01A6
:10011000EA57FF4F3491FC01EE58FF4FE491EE2374
:10012000C9F0222339F0233001F1A8F4213019F16C
:10013000223029F1F0E0EE0FFF1FE859FF4FA591A3
:10014000B4918FB7F894EC91611126C030953E239D
:100150003C938FBF08952730A9F02830C9F0243090
:1001600049F7809180008F7D03C0809180008F7758
:1001700080938000DFCF84B58F7784BDDBCF84B5DB
:100180008F7DFBCF8091B0008F778093B000D2CF6E
:100190008091B0008F7DF9CF3E2BDACF3FB7F89436
:1001A0008091EB019091EC01A091ED01B091EE01F5
:1001B00026B5A89B05C02F3F19F00196A11DB11DC2
:1001C0003FBFBA2FA92F982F8827BC01CD01620FFE
:1001D000711D811D911D42E0660F771F881F991FB9
:1001E0004A95D1F708958F929F92AF92BF92CF9286
:1001F000DF92EF92FF924B015C010E94CE006B01F7
:100200007C010E94CE006C197D098E099F09683E11
:10021000734081059105A8F321E0821A9108A10895
:10022000B10888EEC80E83E0D81EE11CF11C8114D1
:100230009104A104B10429F7FF90EF90DF90CF90D3
:10024000BF90AF909F908F900895AF92BF92CF9242
:10025000DF92EF92FF920F931F93CF93DF936C0186
:100260007B018B01040F151FEB015E01AE18BF0867
:10027000C017D10759F06991D601ED91FC91019019
:10028000F081E02DC6010995892B79F7C501DF9131
:10029000CF911F910F91FF90EF90DF90CF90BF9083
:1002A000AF9008950895089520919401260F332763
:1002B000331F21323105ECF42091B801FC0190E0AC
:1002C00080E0243069F082E00895A09194012191AA
:1002D000AC014C585E4FA40FB52FB11D2C93019665
:1002E000861798F380919401680F6093940180E0E1
:1002F000089581E008951092B80181E08093BA01D9
:100300001092B90161E082E10E94820061E083E124
:100310000E948200E9EBF0E080818E7F8083808103
:100320008D7F808388E48093B80085E48093BC004F
:100330000895CF93DF9391E0909373018823B9F0F0
:10034000C091B800D091BA008091BC008A7B8093A4
:10035000BC0060E082E10E94820060E083E10E94D4
:1003600082000E947B01D093BA00C093B800DF9155
:10037000CF9108950895E091E5018091E401E81797
:1003800030F4F0E0E25BFE4F808190E008958FEF63
:100390009FEF08959091E5018091E4012FEF3FEFE9
:1003A000981748F4E92FF0E0E25BFE4F208130E03F
:1003B0009F5F9093E501C90108958091E4019091B8
:1003C000E501891B990B0895CF92DF92EF92FF927E
:1003D0000F931F93CF93DF937C01CB018A01209170
:1003E0004D01222389F0EB016B01C40ED51ECC1503
:1003F000DD0569F06991D701ED91FC910190F081E3
:10040000E02DC7010995F3CF642F0E945401C80164
:10041000DF91CF911F910F91FF90EF90DF90CF90E0
:100420000895CF93DF931F92CDB7DEB769832091F4
:100430004D012223F9F02091E201203258F021E011
:1004400030E0FC013383228390E080E00F90DF9165
:10045000CF9108958091E301E82FF0E0E35DFE4F36
:10046000998190838F5F8093E3018093E20181E023
:1004700090E0ECCF61E0CE0101960E945401F7CFED
:10048000CF92DF92EF92FF920F931F93CF93DF9360
:10049000FC01C48121E020934D01C0932C011092F6
:1004A000E3011092E2018385682B8FEE91E00E94B8
:1004B0001102D091E201D13208F092C00E94CE0028
:1004C0006B017C018091B801811165C082E080934D
:1004D000B80181E08093BA018FEF8093B701109249
:1004E000DC01D093DB01ADE2B1E0EBEBF1E080E0C9
:1004F000D81385C01092DD018091DD01CC0FC82B8F
:10050000C093DD018091B901813009F07CC0109267
:10051000B9010E94CE006B017C018091DD018093C6
:10052000BB0080916F0190917001A0917101B09119
:100530007201892B8A2B8B2B99F00E94CE0000919F
:100540006F011091700120917101309172016C194D
:100550007D098E099F090617170728073907E0F15B
:100560008091BC0083FDD9CF85EC8093BC000E94B4
:10057000CE006B017C018091B801823009F445C046
:100580008091B7018F3F61F18091B701803241F1D5
:100590008091B70125C080916F0190917001A09169
:1005A0007101B0917201892B8A2B8B2B09F48ACFB0
:1005B0000E94CE0000916F01109170012091710195
:1005C000309172016C197D098E099F090617170772
:1005D0002807390708F076CF80916E010E949901B3
:1005E0001092E3011092E20110924D01DF91CF9140
:1005F0001F910F91FF90EF90DF90CF9008959D9104
:1006000091938F5F75CF85EEB0CF80916F01909100
:100610007001A0917101B0917201892B8A2B8B2BF3
:1006200009F4A9CF0E94CE0000916F0110917001D2
:1006300020917101309172016C197D098E099F0919
:10064000061717072807390708F095CFC5CF089573
:1006500090E080E0089585ED8093BC0080916F016B
:1006600090917001A0917101B09172010796A11D46
:10067000B11D23E0B695A795979587952A95D1F753
:100680002091BC0024FD03C01092B8010895409150
:100690006F01509170016091710170917201452B51
:1006A000462B472B69F30097A105B10541F025E3DF
:1006B0002A95F1F700000197A109B109E1CF8091D6
:1006C0006E010C9499010F931F93CF938C01C62F49
:1006D0000E9440026C2F6460C8010E9440026C2F8F
:1006E0006B7FC8010E94400283EC90E00197F1F714
:1006F000CF911F910F9108950F931F93CF93DF9385
:100700008C01D62FC42F607F642B0E94630380E18D
:10071000D89FB00111246C2BC801DF91CF911F919C
:100720000F910C94630341E00E947C0381E090E010
:1007300008951F920F920FB60F9211242F933F939B
:100740008F939F93AF93BF938091E7019091E801BE
:10075000A091E901B091EA013091E60123E0230F75
:100760002D3758F50196A11DB11D2093E601809308
:10077000E7019093E801A093E901B093EA01809129
:10078000EB019091EC01A091ED01B091EE01019689
:10079000A11DB11D8093EB019093EC01A093ED019D
:1007A000B093EE01BF91AF919F918F913F912F91A7
:1007B0000F900FBE0F901F90189526E8230F0296FA
:1007C000A11DB11DD2CF1F920F920FB60F9211240F
:1007D0002F933F934F935F936F937F938F939F9349
:1007E000AF93BF93EF93FF938091B900887F8036DA
:1007F00009F44AC0F0F5883209F4A7C018F5803131
:1008000009F49BC0B8F4882309F4F9C0883009F4CE
:1008100094C0FF91EF91BF91AF919F918F917F9184
:100820006F915F914F913F912F910F900FBE0F905D
:100830001F901895883109F488C0803251F7809351
:10084000B70114C0803409F49DC040F48033B9F37B
:100850008833F9F68093B70185ECB0C0803509F490
:1008600085C0883509F496C0883499F60E942B0318
:10087000D0CF883909F48CC038F5883729F050F486
:10088000883611F0803729F683E08093B801109202
:10089000B60157C0883809F47BC0803919F0803818
:1008A00009F0B7CF8091B601803208F071C0E091B5
:1008B000B60181E08E0F8093B6018091BB00F0E01D
:1008C000EA56FE4F80833DC0803B39F0E0F4803A29
:1008D00009F479C0883A09F09CCF84E08093B8018C
:1008E0001092950110929401E091E001F091E101E4
:1008F00009958091940181110FC081E0809394014A
:100900001092740109C0803C09F4A6CF883C09F418
:10091000A3CF883B09F07DCFE091950181E08E0F58
:1009200080939501F0E0EC58FE4F80818093BB00EE
:10093000909195018091940129C08091DD0180936F
:10094000BB0085EC8093BC0064CF9091DC0180916A
:10095000DB01981758F5E091DC0181E08E0F809360
:10096000DC01F0E0E554FE4F8081E9CFE091DC014D
:1009700081E08E0F8093DC018091BB00F0E0E554B4
:10098000FE4F80839091DC018091DB019817C8F2C3
:1009900085E8D8CFE091DC0181E08E0F8093DC0107
:1009A0008091BB00F0E0E554FE4F80838091BA0156
:1009B00081115CCF81E08093B90184EA8093BC000F
:1009C0001092B80126CF85EC8093BC001092B8013C
:1009D0008091B601803230F4E091B601F0E0EA5641
:1009E000FE4F10826091B60170E0E091DE01F0915F
:1009F000DF0186E991E009951092B6010ACF1092C5
:100A0000B70134CFEFEEF1E01382128288EE93E06B
:100A1000A0E0B0E084839583A683B78384E091E06F
:100A200091838083EBEFF1E01382128286E191E003
:100A3000918380838FE384838CE2808782E0818747
:100A4000128688E083870895789484B5826084BD97
:100A500084B5816084BD85B5826085BD85B58160C2
:100A600085BD80916E00816080936E001092810040
:100A700080918100826080938100809181008160FB
:100A800080938100809180008160809380008091BC
:100A9000B10084608093B1008091B0008160809348
:100AA000B00080917A00846080937A0080917A000F
:100AB000826080937A0080917A00816080937A00CE
:100AC00080917A00806880937A001092C100109221
:100AD000E5011092E4011092E3011092E2010E94FC
:100AE0007B0182E591E09093E1018093E00183E551
:100AF00091E09093DF018093DE01109200028091DB
:100B00000402823018F098E0909300029091050260
:100B1000992339F0813029F4809100028460809318
:100B2000000262E370E080E090E00E94F3006091D8
:100B300006028BEF91E00E94400268EE73E080E0D5
:100B400090E00E94F30060E38BEF91E00E9463036A
:100B5000CBE4D6E4CE010197F1F760E38BEF91E0AF
:100B60000E9463032197F1F760E38BEF91E00E940D
:100B7000630383E592E00197F1F760E28BEF91E088
:100B80000E94630360910002606240E08BEF91E09D
:100B90000E947C0384E08093010240E06CE08BEFD4
:100BA00091E00E947C0340E061E08BEF91E00E94C5
:100BB0007C03CBE3DFE1CE010197F1F782E0809384
:100BC000020240E066E08BEF91E00E947C0340E08F
:100BD00062E08BEF91E00E947C032197F1F788E0BF
:100BE0008093060260E08BEF91E00E9440024CE0AF
:100BF00050E06EE171E08BEF91E00E942501C0E0D2
:100C0000D0E02097F1F30E940000FBCFEE0FFF1F12
:0C0C10000590F491E02D0994F894FFCFBA
:100C1C00000000001102E4012803BA01DD01CA0141
:100C2C00BB0100000000930325012803270358692A
:0C0C3C006E206368616F20746F69000017
:00000001FF
