:100000000C9403010C94210A0C94F6090C94CB096E
:100010000C94A0090C9475090C944A090C941F09BE
:100020000C94F4080C942D010C942D010C942D01CA
:100030000C942D010C942D010C942D010C942D0188
:100040000C942D010C94FA0B0C942D010C942D01A1
:100050000C942D010C942D010C942D010C94AA08E4
:100060000C942D010C942D010C942D010C942D0158
:100070000C942D010C942D010C942D010C942D0148
:100080000C94CC0B0C942D010C942D010C942D018F
:100090000C942D010C942D010C942D010C944C0A00
:1000A0000C942D010C942D010C949E0B0C942D019D
:1000B0000C942D010C942D010C942D010C94700BBB
:1000C0000C942D010C942D010C942D010C942D01F8
:1000D0000C942D010C942D010C942D010C942D01E8
:1000E0000C942D0100002100240027002A002D007F
:1000F0003000330001010000040107010A01000083
:100100002200250028002B002E00310034000201BF
:100110000000050108010B0100002000230026005B
:1001200029002C002F00320000010000030106010D
:10013000090105050505070508080808020202026D
:100140000A0A080804040404010101010101010173
:100150000303030303030303040707070C0C0C0C3E
:100160000C0C0C0C02020202060606060606060627
:100170000B0B0B0B0B0B0B0B0102102020080810B4
:100180002040102040800201020108040201010207
:1001900004081020408080402010080402018004E0
:1001A000020180402010080402010804020101023B
:1001B0000408102040800102040810204080000044
:1001C0000A0B02090C0D0E080703040100000000D1
:1001D000000000000000000000000000000000001F
:1001E00000000000000000000000121110000000DC
:1001F00000000000000000000000000000000000FF
:1002000000000000430C11241FBECFEFD1E2DEBF7F
:10021000CDBF12E0A0E0B2E0E4E1F1E200E00BBF0C
:1002200002C007900D92A633B107D9F723E0A6E3E9
:10023000B2E001C01D92AF3BB207E1F711E0C3E0AD
:10024000D1E004C02197FE010E947F10C230D10787
:10025000C9F70E947C0C0C9488100C94000081500B
:10026000823108F058C0E82FF0E0E75CFE4F0C94B4
:100270007F1059015D014B01510155018B01600156
:1002800066016A017001740178017E0182018B01AF
:1002900086018C019001809180008F77809380008F
:1002A0000895809180008F7DF9CF80918000877FB5
:1002B000F5CF84B58F7784BD089584B58F7DFBCF4E
:1002C0008091B0008F778093B00008958091B00046
:1002D0008F7DF9CF809190008F7780939000089563
:1002E000809190008F7DF9CF80919000877FF5CF2E
:1002F0008091A0008F778093A00008958091A00046
:100300008F7DF9CF8091A000877FF5CF809120016C
:100310008F77809320010895809120018F7DF9CF00
:1003200080912001877FF5CFCF93DF93282F30E096
:10033000F901E254FE4F8491F901E858FE4FD4913F
:10034000F901EE5CFE4FC491CC23A1F081110E9413
:100350002F01EC2FF0E0EE0FFF1FE85EFE4FA5919E
:10036000B491EC91ED2381E090E009F480E0DF911D
:10037000CF91089580E090E0FACF1F93CF93DF9361
:10038000282F30E0F901E254FE4F8491F901E8583A
:10039000FE4FD491F901EE5CFE4FC491CC23A9F03D
:1003A000162F81110E942F01EC2FF0E0EE0FFF1F9E
:1003B000E250FF4FA591B4918FB7F894EC911111D1
:1003C00008C0D095DE23DC938FBFDF91CF911F91C2
:1003D0000895DE2BF8CFCF93DF9390E0FC01E8582F
:1003E000FE4F24918E5C9E4FFC0184918823D1F0B6
:1003F00090E0880F991FFC01EC51FF4FA591B4913B
:10040000FC01E250FF4FC591D49161110EC09FB71E
:10041000F8948C91E22FE0958E238C932881E2232F
:10042000E8839FBFDF91CF9108958FB7F894EC9147
:10043000E22BEC938FBFF6CF1F93CF93DF93182F50
:10044000EB0161E00E94EB01209739F460E0812F1D
:10045000DF91CF911F910C94BD01CF3FD10511F4D5
:1004600061E0F5CFE12FF0E0E254FE4FE491E1507E
:10047000E23108F0B1C0F0E0E05CFD4F0C947F1079
:1004800052025A025F0269027302EC027D02850287
:100490008D029702A102AB02BA02C402EC02CE02A4
:1004A000D802E20284B5806884BDC7BDDF91CF91D8
:1004B0001F91089584B5806284BDC8BDF7CF809137
:1004C0008000806880938000D0938900C09388006A
:1004D000EDCF80918000806280938000D0938B006C
:1004E000C0938A00E3CF8091800088608093800071
:1004F000D0938D00C0938C00D9CF8091B0008068DC
:100500008093B000C093B300D1CF8091B0008062DF
:100510008093B000C093B400C9CF809190008068F0
:1005200080939000D0939900C0939800BFCF8091A2
:100530009000806280939000D0939B00C0939A00BB
:10054000B5CF80919000886080939000D0939D00FB
:10055000C0939C00ABCF8091A00080688093A000E6
:100560008091A0008F7B8093A000D093A900C093BE
:10057000A8009CCF8091A00080628093A000D093BF
:10058000AB00C093AA0092CF8091A00088608093B6
:10059000A000D093AD00C093AC0088CF8091200123
:1005A000806880932001D0932901C09328017ECFD9
:1005B00080912001806280932001D0932B01C09311
:1005C0002A0174CF80912001886080932001D0930C
:1005D0002D01C0932C016ACFC038D1050CF040CF5B
:1005E00035CF3FB7F8948091960390919703A091EF
:1005F0009803B091990326B5A89B05C02F3F19F029
:100600000196A11DB11D3FBFBA2FA92F982F882792
:10061000BC01CD01620F711D811D911D42E0660F6D
:10062000771F881F991F4A95D1F708958F929F923F
:10063000AF92BF92CF92DF92EF92FF924B015C019B
:100640000E94F1026B017C010E94F1026C197D098C
:100650008E099F09683E734081059105A8F321E04A
:10066000821A9108A108B10888EEC80E83E0D81E4E
:10067000E11CF11C81149104A104B10429F7FF903D
:10068000EF90DF90CF90BF90AF909F908F900895A4
:100690000895AF92BF92CF92DF92EF92FF920F93A5
:1006A0001F93CF93DF936C017B018B01040F151F08
:1006B000EB015E01AE18BF08C017D10759F0699170
:1006C000D601ED91FC910190F081E02DC6010995D4
:1006D000892B79F7C501DF91CF911F910F91FF9081
:1006E000EF90DF90CF90BF90AF90089560E08DE0E5
:1006F0000E94BD0160E08CE00E94BD0160E087E0E7
:100700000E94BD0160E088E00C94BD01CF92DF92B1
:10071000EF92FF926B017C012FB7F8946091A603D2
:100720007091A7038091A8039091A9032FBF0E9405
:10073000780FA70196010E94640E0E94490F6B0179
:100740007C012FB7F8948091A6039091A703A09104
:10075000A803B091A9032FBF8C159D05AE05BF0559
:1007600098F40E9476032FB7F8948091A603909195
:10077000A703A091A803B091A9032FBF8C159D05D5
:10078000AE05BF0580F3DDCFFF90EF90DF90CF90F7
:1007900008950895089520913F03260F3327331FAE
:1007A00021323105ECF420916303FC0190E080E0FC
:1007B000243069F082E00895A0913F032191AC01BB
:1007C000415E5C4FA40FB52FB11D2C930196861787
:1007D00098F380913F03680F60933F0380E0089592
:1007E00081E008951092630381E080936503109285
:1007F000640361E084E10E94BD0161E085E10E9443
:10080000BD01E9EBF0E080818E7F808380818D7F68
:10081000808388E48093B80085E48093BC000895C9
:10082000CF93DF9391E090931E038823B9F0C0919A
:10083000B800D091BA008091BC008A7B8093BC0044
:1008400060E084E10E94BD0160E085E10E94BD019D
:100850000E94F203D093BA00C093B800DF91CF9109
:1008600008950895E091900380918F03E81730F484
:10087000F0E0E750FD4F808190E008958FEF9FEF0B
:1008800008959091900380918F032FEF3FEF981779
:1008900048F4E92FF0E0E750FD4F208130E09F5F02
:1008A00090939003C901089580918F0390919003D4
:1008B000891B990B0895CF92DF92EF92FF920F93CD
:1008C0001F93CF93DF937C01CB018A012091F80223
:1008D000222389F0EB016B01C40ED51ECC15DD057A
:1008E00069F06991D701ED91FC910190F081E02DC3
:1008F000C7010995F3CF642F0E94CB03C801DF9194
:10090000CF911F910F91FF90EF90DF90CF900895BE
:10091000CF93DF931F92CDB7DEB769832091F802A2
:100920002223F9F020918D03203258F021E030E0AD
:10093000FC013383228390E080E00F90DF91CF9120
:10094000089580918E03E82FF0E0E852FD4F9981E1
:1009500090838F5F80938E0380938D0381E090E07E
:10096000ECCF61E0CE0101960E94CB03F7CFCF928E
:10097000DF92EF92FF920F931F93CF93DF93FC01CF
:10098000C48121E02093F802C093D70210928E0315
:1009900010928D038385682B8AE993E00E94880476
:1009A000D0918D03D13208F092C00E94F1026B0108
:1009B0007C0180916303811165C082E080936303B1
:1009C00081E0809365038FEF809362031092870329
:1009D000D0938603A8EDB2E0E6E6F3E080E0D8131A
:1009E00085C01092880380918803CC0FC82BC093D8
:1009F000880380916403813009F07CC01092640305
:100A00000E94F1026B017C01809188038093BB00FE
:100A100080911A0390911B03A0911C03B0911D03B8
:100A2000892B8A2B8B2B99F00E94F10200911A03DB
:100A300010911B0320911C0330911D036C197D093B
:100A40008E099F090617170728073907E0F18091DB
:100A5000BC0083FDD9CF85EC8093BC000E94F102DD
:100A60006B017C0180916303823009F445C0809161
:100A700062038F3F61F180916203803241F1809186
:100A8000620325C080911A0390911B03A0911C035F
:100A9000B0911D03892B8A2B8B2B09F48ACF0E94DE
:100AA000F10200911A0310911B0320911C03309155
:100AB0001D036C197D098E099F0906171707280762
:100AC000390708F076CF809119030E941004109224
:100AD0008E0310928D031092F802DF91CF911F9137
:100AE0000F91FF90EF90DF90CF9008959D9191939B
:100AF0008F5F75CF85EEB0CF80911A0390911B0365
:100B0000A0911C03B0911D03892B8A2B8B2B09F418
:100B1000A9CF0E94F10200911A0310911B032091AA
:100B20001C0330911D036C197D098E099F0906175E
:100B300017072807390708F095CFC5CF089590E02B
:100B400080E008951F93CF93DF93EC01162F8881E7
:100B5000803308F04EC061E0812F0E94EB01888154
:100B6000282F30E0F901EE0FFF1FE20FF31FE95BC2
:100B7000FD4F1F736081607C612B608319821A8234
:100B80002CE0622F0E947310829FB001112430E08C
:100B900020E0AB01420F531FFA01EE0FFF1FE40FDD
:100BA000F51FE95BFD4F908196FD16C02F5F3F4F0B
:100BB0002C30310571F7813009F51092800082E008
:100BC000809381001092850010928400B19A8091E8
:100BD0006F00826080936F00E8818E2F90E0FC01AF
:100BE000EE0FFF1FE80FF91FE95BFD4F8081806466
:100BF00080838881DF91CF911F910895823061F4C5
:100C000010929000809391001092950010929400A1
:100C100088BB80937100E0CF833069F41092A0000C
:100C200082E08093A1001092A5001092A40089BBDD
:100C300080937200D1CF8111CFCF1092200182E03A
:100C40008093210110922501109224018ABB809388
:100C50007300C2CFAF92BF92CF92DF92EF92FF921A
:100C60000F931F93CF93DF936B017A01EC01CE5B5F
:100C7000DD4F28813CE0389F8001399F100D112401
:100C8000A0904602B12C27FF1FC0FB0111821082E9
:100C900088818F5F888388819801280F311D87FDA7
:100CA0003A95F6012A153B051CF488818C30C4F175
:100CB00080819181049680349C4908F473C0F601C8
:100CC00080819181049670C088819801280F311D20
:100CD00087FD3A952A153B05DCF68881A801480F67
:100CE000511D87FD5A95FA01EE0FFF1FE40FF51F06
:100CF000E95BFD4F808186FFCBCF8881F801E80F4B
:100D0000F11D87FDFA95CF01EE0FFF1FE80FF91FC8
:100D1000E95BFD4F808160E08F730E94BD01B8CF19
:100D2000808191812881A801420F511D27FD5A958C
:100D30009A01FA01EE0FFF1FE20FF31FE95BFD4F6F
:100D400021813281820F931FF701918380838881F3
:100D50009801280F311D87FD3A95F901EE0FFF1F0D
:100D6000E20FF31FE95BFD4F808186FF22C088817F
:100D7000080F111D87FD1A95F801EE0FFF1FE00FF8
:100D8000F11FE95BFD4F808161E08F73DF91CF91AF
:100D90001F910F91FF90EF90DF90CF90BF90AF9099
:100DA0000C94BD0180E49CE9F701918380838FEF6F
:100DB0008883DF91CF911F910F91FF90EF90DF908B
:100DC000CF90BF90AF900895CF92DF92EF92FF92B5
:100DD0006B017C0120E030E040E251E40E9406100B
:100DE0009B01AC0160913E0270913F0280914002F4
:100DF000909141020E94640E60933E0270933F0204
:100E0000809340029093410220913A0230913B023C
:100E100040913C0250913D02C701B6010E94630E11
:100E20002DEC3CEC4CE45DE30E94061020E030E049
:100E300040E251E40E94D00EA70196010E94640E88
:100E4000C0923A02D0923B02E0923C02F0923D0204
:100E500020E030E040ED52E40E94640E0E94420F18
:100E60006B0161E08DE00E94BD0160E08CE00E94BA
:100E7000BD01B6018BE00E941C0261E087E00E9488
:100E8000BD0160E088E00E94BD01B60189E00E94DA
:100E90001C02C601FF90EF90DF90CF90089584E090
:100EA0000E949401409136025091370260913802BD
:100EB00070913902892B69F44F5F5F4F6F4F7F4FFD
:100EC0004093360250933702609338027093390290
:100ED00008954150510961097109F2CF85E00E94DE
:100EE000940140919103509192036091930370910A
:100EF0009403019769F44F5F5F4F6F4F7F4F4093AB
:100F00009103509392036093930370939403089515
:100F10004150510961097109F2CF8F929F92AF92AE
:100F2000BF920F931F93CF93DF93CDB7DEB7A197F7
:100F30000FB6F894DEBF0FBECDBF19A2423008F441
:100F40004AE08E010F5D1F4F842E912CB12CA12CF5
:100F5000A50194010E94410EE62FB901CA01EA30B1
:100F600044F5E05DD801EE938D01232B242B252B36
:100F700079F790E080E0109769F0FD010190002082
:100F8000E9F73197AF014A1B5B0BBD018AEA93E099
:100F90000E944903A1960FB6F894DEBF0FBECDBFE5
:100FA000DF91CF911F910F91BF90AF909F908F9045
:100FB0000895E95CD7CF0F931F93CF938C01C62F71
:100FC0000E94B7046C2F6460C8010E94B7046C2FA4
:100FD0006B7FC8010E94B70483EC90E00197F1F7A2
:100FE000CF911F910F9108950F931F93CF93DF938C
:100FF0008C01D62FC42F607F642B0E94DB0780E119
:10100000D89FB00111246C2BC801DF91CF911F91A3
:101010000F910C94DB0740E061E08AEA93E00E94C4
:10102000F4078BE39FE10197F1F7089541E00E94F7
:10103000F40781E090E00895CF92DF92EF92FF9263
:1010400097FF18C06B017C0141E06DE28AEA93E0F2
:101050000E94F40766277727CB016C197D098E095A
:101060009F094AE00E948D070196FF90EF90DF9064
:10107000CF9008954AE0FF90EF90DF90CF900C94CE
:101080008D07CF93DF93CDB7DEB728970FB6F894CF
:10109000DEBF0FBECDBF98E0E0E1F2E0DE011196C9
:1010A00001900D929A95E1F79091B303981708F487
:1010B0008FEF90E0880F991F21E030E02C0F3D1F4B
:1010C000820F931FFC016081606840E08AEA93E030
:1010D00028960FB6F894DEBF0FBECDBFDF91CF913B
:1010E0000C94F40785ED8093BC0080911A039091D5
:1010F0001B03A0911C03B0911D030796A11DB11DF8
:1011000023E0B695A795979587952A95D1F72091D5
:10111000BC0024FD03C010926303089540911A039C
:1011200050911B0360911C0370911D03452B462BAE
:10113000472B69F30097A105B10541F025E32A95F6
:10114000F1F700000197A109B109E1CF80911903DE
:101150000C9410041F920F920FB60F9211242F932C
:101160003F938F939F93AF93BF938091A6039091EA
:10117000A703A091A803B091A9033091950323E0A0
:10118000230F2D3758F50196A11DB11D209395030E
:101190008093A6039093A703A093A803B093A903F9
:1011A0008091960390919703A0919803B091990331
:1011B0000196A11DB11D8093960390939703A09370
:1011C0009803B0939903BF91AF919F918F913F91F5
:1011D0002F910F900FBE0F901F90189526E8230FA8
:1011E0000296A11DB11DD2CF1F920F920FB60F9282
:1011F00011240BB60F922F933F934F935F936F93EE
:101200007F938F939F93AF93BF93EF93FF93E0915F
:101210000E02F0910F020995FF91EF91BF91AF91EE
:101220009F918F917F916F915F914F913F912F91FE
:101230000F900BBE0F900FBE0F901F9018951F922E
:101240000F920FB60F9211240BB60F922F933F936C
:101250004F935F936F937F938F939F93AF93BF93BE
:10126000EF93FF93E0910C02F0910D020995FF912D
:10127000EF91BF91AF919F918F917F916F915F910E
:101280004F913F912F910F900BBE0F900FBE0F907B
:101290001F9018951F920F920FB60F9211240BB644
:1012A0000F922F933F934F935F936F937F938F93FF
:1012B0009F93AF93BF93EF93FF93E0910202F0915E
:1012C00003020995FF91EF91BF91AF919F918F918B
:1012D0007F916F915F914F913F912F910F900BBE36
:1012E0000F900FBE0F901F9018951F920F920FB680
:1012F0000F9211240BB60F922F933F934F935F934E
:101300006F937F938F939F93AF93BF93EF93FF93CD
:10131000E0910002F09101020995FF91EF91BF91D8
:10132000AF919F918F917F916F915F914F913F917D
:101330002F910F900BBE0F900FBE0F901F9018951E
:101340001F920F920FB60F9211240BB60F922F938C
:101350003F934F935F936F937F938F939F93AF933D
:10136000BF93EF93FF93E0910A02F0910B0209956E
:10137000FF91EF91BF91AF919F918F917F916F916D
:101380005F914F913F912F910F900BBE0F900FBE29
:101390000F901F9018951F920F920FB60F92112465
:1013A0000BB60F922F933F934F935F936F937F935F
:1013B0008F939F93AF93BF93EF93FF93E0910802B6
:1013C000F09109020995FF91EF91BF91AF919F9123
:1013D0008F917F916F915F914F913F912F910F90DE
:1013E0000BBE0F900FBE0F901F9018951F920F927B
:1013F0000FB60F9211240BB60F922F933F934F937A
:101400005F936F937F938F939F93AF93BF93EF936C
:10141000FF93E0910602F09107020995FF91EF9189
:10142000BF91AF919F918F917F916F915F914F91FC
:101430003F912F910F900BBE0F900FBE0F901F90FA
:1014400018951F920F920FB60F9211240BB60F92A0
:101450002F933F934F935F936F937F938F939F93BC
:10146000AF93BF93EF93FF93E0910402F0910502D5
:101470000995FF91EF91BF91AF919F918F917F91CE
:101480006F915F914F913F912F910F900BBE0F90F5
:101490000FBE0F901F9018951F920F920FB60F92CC
:1014A00011240BB60F922F933F934F935F936F933B
:1014B0007F938F939F93AF93BF93EF93FF9380910D
:1014C000B900887F803609F44DC008F040C08832EA
:1014D00009F4A9C028F5803109F49DC0C8F4882317
:1014E00009F4FBC0883009F496C0FF91EF91BF91D9
:1014F000AF919F918F917F916F915F914F913F91AC
:101500002F910F900BBE0F900FBE0F901F9018954C
:10151000883109F488C0803241F78093620314C097
:10152000803409F49DC040F48033B9F38833E9F680
:101530008093620385ECB0C0803509F485C088359E
:1015400009F496C0883489F60E947208CECF883993
:1015500009F48CC038F5883729F050F4883611F03A
:10156000803719F683E0809363031092610357C0BC
:10157000883809F47BC0803919F0803809F0B5CF7C
:1015800080916103803208F071C0E091610381E0D5
:101590008E0F809361038091BB00F0E0EF5BFC4F06
:1015A00080833DC0803B39F0E0F4803A09F479C093
:1015B000883A09F09ACF84E0809363031092400345
:1015C00010923F03E0918B03F0918C030995809179
:1015D0003F0381110FC081E080933F0310921F03EE
:1015E00009C0803C09F4A6CF883C09F4A3CF883B0E
:1015F00009F07BCFE091400381E08E0F80934003A0
:10160000F0E0E15EFC4F80818093BB00909140034D
:1016100080913F0329C0809188038093BB0085ECB3
:101620008093BC0062CF90918703809186039817C6
:1016300058F5E091870381E08E0F80938703F0E0F7
:10164000EA59FC4F8081E9CFE091870381E08E0F5A
:10165000809387038091BB00F0E0EA59FC4F8083C0
:1016600090918703809186039817C8F285E8D8CFB8
:10167000E091870381E08E0F809387038091BB0008
:10168000F0E0EA59FC4F80838091650381115CCFC3
:1016900081E08093640384EA8093BC00109263032A
:1016A00024CF85EC8093BC0010926303809161038A
:1016B000803230F4E0916103F0E0EF5BFC4F108288
:1016C0006091610370E0E0918903F0918A0381E405
:1016D00093E009951092610308CF1092620334CF12
:1016E0001F920F920FB60F9211240BB60F922F93E9
:1016F0003F934F935F936F937F938F939F93AF939A
:10170000BF93EF93FF9348E251E064E271E090E011
:1017100080E00E942A06FF91EF91BF91AF919F91C7
:101720008F917F916F915F914F913F912F910F908A
:101730000BBE0F900FBE0F901F9018951F920F9227
:101740000FB60F9211240BB60F922F933F934F9326
:101750005F936F937F938F939F93AF93BF93EF9319
:10176000FF9348EA50E064EA70E083E090E00E9472
:101770002A06FF91EF91BF91AF919F918F917F9139
:101780006F915F914F913F912F910F900BBE0F90F2
:101790000FBE0F901F9018951F920F920FB60F92C9
:1017A00011240BB60F922F933F934F935F936F9338
:1017B0007F938F939F93AF93BF93EF93FF9348E9EA
:1017C00050E064E970E082E090E00E942A06FF9118
:1017D000EF91BF91AF919F918F917F916F915F91A9
:1017E0004F913F912F910F900BBE0F900FBE0F9016
:1017F0001F9018951F920F920FB60F9211240BB6DF
:101800000F922F933F934F935F936F937F938F9399
:101810009F93AF93BF93EF93FF9348E850E064E842
:1018200070E081E090E00E942A06FF91EF91BF9165
:10183000AF919F918F917F916F915F914F913F9168
:101840002F910F900BBE0F900FBE0F901F90189509
:10185000FC0190914602903398F481E0890F8093C7
:1018600046029083892F90E0FC01EE0FFF1FE80FE6
:10187000F91FE95BFD4F88EB9BE09283818308951C
:101880008FEF80830895EAE9F3E01382128288EEF5
:1018900093E0A0E0B0E084839583A683B7838CE1D6
:1018A00092E0918380838CEB93E00E94280C89EB7B
:1018B00093E00E94280C86EB93E00E94280C8FB7DF
:1018C000F8944091A6035091A7036091A8037091EA
:1018D000A9038FBFEAEAF3E0138212828EE292E05C
:1018E000918380838FE384838CE2808782E0818789
:1018F000128688E083870895789484B5826084BDD9
:1019000084B5816084BD85B5826085BD85B5816003
:1019100085BD80916E00816080936E001092810081
:10192000809181008260809381008091810081603C
:1019300080938100809180008160809380008091FD
:10194000B10084608093B1008091B0008160809389
:10195000B00080919100826080939100809191000D
:1019600081608093910080919000816080939000CD
:101970008091A10082608093A1008091A10081608C
:101980008093A1008091A00081608093A00080914D
:1019900021018260809321018091210181608093E7
:1019A00021018091200181608093200180917A0043
:1019B000846080937A0080917A00826080937A00BC
:1019C00080917A00816080937A0080917A008068AB
:1019D00080937A001092C10060E085E00E94EB01E4
:1019E0008EE697E0909303028093020280916A0052
:1019F0008C6080936A00ED9A60E084E00E94EB01C5
:101A00008FE497E0909301028093000280916A0036
:101A1000836080936A00EC9A61E08DE00E94EB01A4
:101A200061E08CE00E94EB0161E087E00E94EB0145
:101A300061E088E00E94EB0161E08BE00E94EB0135
:101A400061E089E00E94EB0161E084E10E94EB012A
:101A500060E085E10E94EB016AE070E08CEB93E0CE
:101A60000E94A20563E370E089EB93E00E94A20567
:101A700065E370E086EB93E00E94A205109290036C
:101A800010928F0310928E0310928D030E94F20326
:101A900089EC93E090938C0380938B038AEC93E022
:101AA00090938A03809389031092AF038091B303CC
:101AB000823018F098E09093AF039091B40399238B
:101AC00039F0813029F48091AF0384608093AF03B3
:101AD00062E370E080E090E00E9416036091B5033D
:101AE0008AEA93E00E94B70468EE73E080E090E039
:101AF0000E94160360E38AEA93E00E94DB07CBE4CE
:101B0000D6E4CE010197F1F760E38AEA93E00E9400
:101B1000DB072197F1F760E38AEA93E00E94DB0795
:101B200083E592E00197F1F760E28AEA93E00E9490
:101B3000DB076091AF03606240E08AEA93E00E94B5
:101B4000F40784E08093B00340E06CE08AEA93E01D
:101B50000E94F4070E940B0882E08093B10340E0EA
:101B600066E08AEA93E00E94F40740E062E08AEAD5
:101B700093E00E94F4078BE39FE10197F1F784E67D
:101B8000C82ED12CE12CF12C00E010E080909103C4
:101B900090909203A0909303B090940385E68816EA
:101BA0009104A104B104E4F4C701B60168197909EC
:101BB0008A099B090E947A0F0E94E406EC0180E0EA
:101BC0000E944108C501B4010E941C0881E00E94E6
:101BD0004108BE01DD0F880B990B0E941C08D6CF6F
:101BE00060E070E08AEF93E40E9486030E940B0895
:101BF0001092910310929203109293031092940307
:101C00008090910390909203A0909303B0909403DE
:101C100083E388169104A104B104E4F4C701B6017A
:101C2000681979098A099B090E947A0F0E94E406C3
:101C3000EC0180E00E944108C501B4010E941C082B
:101C400081E00E944108BE01DD0F880B990B0E94C4
:101C50001C08D6CF60E070E08AEF93E40E94860310
:101C60000E940B081092910310929203109293031A
:101C7000109294030115110509F488CF0E94000009
:101C800085CFA1E21A2EAA1BBB1BFD010DC0AA1F06
:101C9000BB1FEE1FFF1FA217B307E407F50720F0D5
:101CA000A21BB30BE40BF50B661F771F881F991F50
:101CB0001A9469F760957095809590959B01AC0199
:101CC000BD01CF0108955058BB27AA270E947B0E63
:101CD0000C94CC0F0E94BE0F38F00E94C50F20F06C
:101CE00039F49F3F19F426F40C94BB0F0EF4E095E1
:101CF000E7FB0C94B50FE92F0E94DD0F58F3BA17DC
:101D0000620773078407950720F079F4A6F50C9411
:101D1000FF0F0EF4E0950B2EBA2FA02D0B01B90189
:101D200090010C01CA01A0011124FF27591B99F051
:101D3000593F50F4503E68F11A16F040A22F232F5D
:101D4000342F4427585FF3CF469537952795A795AD
:101D5000F0405395C9F77EF41F16BA0B620B730B54
:101D6000840BBAF09150A1F0FF0FBB1F661F771FC5
:101D7000881FC2F70EC0BA0F621F731F841F48F47A
:101D8000879577956795B795F7959E3F08F0B0CF03
:101D90009395880F08F09927EE0F979587950895EA
:101DA0000E94E40E0C94CC0F0E94C50F58F00E94C4
:101DB000BE0F40F029F45F3F29F00C94B50F51118C
:101DC0000C9400100C94BB0F0E94DD0F68F3992354
:101DD000B1F3552391F3951B550BBB27AA27621727
:101DE0007307840738F09F5F5F4F220F331F441F34
:101DF000AA1FA9F335D00E2E3AF0E0E832D0915068
:101E00005040E695001CCAF72BD0FE2F29D0660F54
:101E1000771F881FBB1F261737074807AB07B0E897
:101E200009F0BB0B802DBF01FF2793585F4F3AF09D
:101E30009E3F510578F00C94B50F0C9400105F3F55
:101E4000E4F3983ED4F3869577956795B795F79523
:101E50009F5FC9F7880F911D9695879597F908950B
:101E6000E1E0660F771F881FBB1F621773078407A7
:101E7000BA0720F0621B730B840BBA0BEE1F88F7B6
:101E8000E09508950E94490F6894B1110C940010D8
:101E900008950E94E50F88F09F5798F0B92F992771
:101EA000B751B0F0E1F0660F771F881F991F1AF045
:101EB000BA95C9F714C0B13091F00E94FF0FB1E09C
:101EC00008950C94FF0F672F782F8827B85F39F09B
:101ED000B93FCCF3869577956795B395D9F73EF4DE
:101EE00090958095709561957F4F8F4F9F4F089586
:101EF000E89409C097FB3EF49095809570956195A4
:101F00007F4F8F4F9F4F9923A9F0F92F96E9BB2759
:101F10009395F695879577956795B795F111F8CFD5
:101F2000FAF4BB0F11F460FF1BC06F5F7F4F8F4F40
:101F30009F4F16C0882311F096E911C0772321F036
:101F40009EE8872F762F05C0662371F096E8862FCE
:101F500070E060E02AF09A95660F771F881FDAF725
:101F6000880F9695879597F9089597F99F6780E868
:101F700070E060E008959FEF80EC089500240A94DB
:101F80001616170618060906089500240A94121654
:101F90001306140605060895092E0394000C11F487
:101FA000882352F0BB0F40F4BF2B11F460FF04C034
:101FB0006F5F7F4F8F4F9F4F089557FD9058440F8D
:101FC000551F59F05F3F71F04795880F97FB991F98
:101FD00061F09F3F79F08795089512161306140655
:101FE000551FF2CF4695F1DF08C0161617061806E2
:101FF000991FF1CF86957105610508940895E894BD
:10200000BB2766277727CB0197F908950E941910FF
:102010000C94CC0F0E94BE0F38F00E94C50F20F028
:10202000952311F00C94B50F0C94BB0F11240C9454
:1020300000100E94DD0F70F3959FC1F3950F50E0E3
:10204000551F629FF001729FBB27F00DB11D639F6A
:10205000AA27F00DB11DAA1F649F6627B00DA11D10
:10206000661F829F2227B00DA11D621F739FB00DB6
:10207000A11D621F839FA00D611D221F749F332726
:10208000A00D611D231F849F600D211D822F762FBF
:102090006A2F11249F5750409AF0F1F088234AF09C
:1020A000EE0FFF1FBB1F661F771F881F9150504008
:1020B000A9F79E3F510580F00C94B50F0C940010C9
:1020C0005F3FE4F3983ED4F3869577956795B7958F
:1020D000F795E7959F5FC1F7FE2B880F911D9695A9
:1020E000879597F90895991B79E004C0991F961771
:1020F00008F0961B881F7A95C9F780950895EE0F12
:10210000FF1F0024001C0BBE0790F691E02D0994E0
:04211000F894FFCF71
:102114004803480348034803480348034803480363
:1021240000004000140054000000000088045B0418
:102134009F053104540441043204000000001608D1
:0621440049039F059E0502
:00000001FF
