:100000000C9403010C942D010C942D010C942D01E2
:100010000C942D010C942D010C942D010C942D01A8
:100020000C942D010C942D010C942D010C942D0198
:100030000C942D010C942D010C942D010C942D0188
:100040000C942D010C942D010C942D010C942D0178
:100050000C942D010C942D010C942D010C949106FF
:100060000C942D010C9405070C94DB060C942D01C7
:100070000C942D010C942D010C942D010C942D0148
:100080000C942D010C942D010C942D010C942D0138
:100090000C942D010C942D010C942D010C943B0714
:1000A0000C942D010C942D010C942D010C942D0118
:1000B0000C942D010C942D010C942D010C942D0108
:1000C0000C942D010C942D010C942D010C942D01F8
:1000D0000C942D010C942D010C942D010C942D01E8
:1000E0000C942D0100002100240027002A002D007F
:1000F0003000330001010000040107010A01000083
:100100002200250028002B002E00310034000201BF
:100110000000050108010B0100000A0B02090C0D8B
:100120000E080703040100000000000000000000AA
:1001300000000000000000000000000000000000BF
:10014000000000001211100000000000000000007C
:10015000000000000000000000000000000000009F
:1001600020002300260029002C002F00320000016F
:10017000000003010601090105050505070508083A
:100180000808020202020A0A080804040404010121
:100190000101010101010303030303030303040736
:1001A00007070C0C0C0C0C0C0C0C020202020606CD
:1001B0000606060606060B0B0B0B0B0B0B0B0102C0
:1001C0001020200808102040102040800201020169
:1001D0000804020101020408102040808040201021
:1001E000080402018004020180402010080402017A
:1001F00008040201010204081020408001020408E2
:1002000010204080A40811241FBECFEFD1E2DEBF32
:10021000CDBF12E0A0E0B2E0ECECF9E100E00BBFF2
:1002200002C007900D92A433B107D9F723E0A4E3ED
:10023000B2E001C01D92A03BB207E1F711E0C3E0BC
:10024000D1E004C02197FE010E94DB0CC230D1072F
:10025000C9F70E9491090C94E40C0C940000282F1B
:1002600030E0F901E85EFE4F9491F901E254FE4F4F
:10027000849128583E4FF9012491222309F433C078
:10028000992301F191509231E8F4E92FF0E0E55B18
:10029000FE4F0C94DB0C7C0180015D017401780140
:1002A0006201830189018D01930197019B01A101E5
:1002B000A5016201A901AF01B301909180009F7770
:1002C00090938000E22FF0E0EE0FFF1FE250FF4F0F
:1002D000A591B4919FB7F894EC91611148C08095B5
:1002E0008E238C939FBF0895909180009F7DE8CFCF
:1002F00090918000977FE4CF94B59F7794BDE2CF33
:1003000094B59F7DFBCF9091B0009F779093B00004
:10031000D9CF9091B0009F7DF9CF909190009F77B9
:1003200090939000CFCF909190009F7DF9CF9091C6
:100330009000977FF5CF9091A0009F779093A000B9
:10034000C1CF9091A0009F7DF9CF9091A000977FA1
:10035000F5CF909120019F7790932001B3CF90919A
:1003600020019F7DF9CF90912001977FF5CF8E2BB3
:10037000B8CFCF93DF9390E0FC01E254FE4F24917D
:1003800088589E4FFC0184918823D1F090E0880F1B
:10039000991FFC01EC51FF4FA591B491FC01E25073
:1003A000FF4FC591D49161110EC09FB7F8948C9105
:1003B000E22FE0958E238C932881E223E8839FBF70
:1003C000DF91CF9108958FB7F894EC91E22BEC93E5
:1003D0008FBFF6CF1F93CF93DF93182FEB0161E010
:1003E0000E94B901209739F460E0812FDF91CF910D
:1003F0001F910C942F01CF3FD10511F461E0F5CF8F
:10040000E12FF0E0E85EFE4FE491E150E23108F0C8
:10041000B1C0F0E0E25FFD4F0C94DB0C200228023B
:100420002D0237024102BA024B0253025B026502FF
:100430006F02790288029202BA029C02A602B002FE
:1004400084B5806884BDC7BDDF91CF911F910895A9
:1004500084B5806284BDC8BDF7CF8091800080687C
:1004600080938000D0938900C0938800EDCF809165
:100470008000806280938000D0938B00C0938A00BC
:10048000E3CF80918000886080938000D0938D00BE
:10049000C0938C00D9CF8091B00080688093B00069
:1004A000C093B300D1CF8091B00080628093B00040
:1004B000C093B400C9CF8091900080688093900071
:1004C000D0939900C0939800BFCF80919000806234
:1004D00080939000D0939B00C0939A00B5CF8091F9
:1004E0009000886080939000D0939D00C0939C0002
:1004F000ABCF8091A00080688093A0008091A00085
:100500008F7B8093A000D093A900C093A8009CCFBC
:100510008091A00080628093A000D093AB00C09334
:10052000AA0092CF8091A00088608093A000D09311
:10053000AD00C093AC0088CF80912001806880938B
:100540002001D0932901C09328017ECF8091200102
:10055000806280932001D0932B01C0932A0174CF35
:1005600080912001886080932001D0932D01C09359
:100570002C016ACFC038D1050CF040CF35CF3FB742
:10058000F8948091F3029091F402A091F502B09159
:10059000F60226B5A89B05C02F3F19F00196A11DB4
:1005A000B11D3FBFBA2FA92F982F8827BC01CD01BD
:1005B000620F711D811D911D42E0660F771F881F1C
:1005C000991F4A95D1F708958F929F92AF92BF924B
:1005D000CF92DF92EF92FF924B015C010E94BF022B
:1005E0006B017C010E94BF026C197D098E099F0975
:1005F000683E734081059105A8F321E0821A9108B5
:10060000A108B10888EEC80E83E0D81EE11CF11CD9
:1006100081149104A104B10429F7FF90EF90DF90B9
:10062000CF90BF90AF909F908F900895AF92BF9260
:10063000CF92DF92EF92FF920F931F93CF93DF93AE
:100640006C017B018B01040F151FEB015E01AE18DD
:10065000BF08C017D10759F06991D601ED91FC91FF
:100660000190F081E02DC6010995892B79F7C5012C
:10067000DF91CF911F910F91FF90EF90DF90CF907E
:10068000BF90AF90089508950895FC01538D448D57
:10069000252F30E0842F90E0821B930B541710F02D
:1006A000CF96089501970895FC01918D828D98173A
:1006B00061F0A28DAE0FBF2FB11D5D968C91928D12
:1006C0009F5F9F73928F90E008958FEF9FEF089543
:1006D000FC01918D828D981731F0828DE80FF11D0C
:1006E000858D90E008958FEF9FEF0895FC01918D27
:1006F000228D892F90E0805C9F4F821B91098F7320
:100700009927089587EF92E00E94760321E0892BD4
:1007100009F420E0822F0895FC01A48DA80FB92FC1
:10072000B11DA35ABF4F2C91848D90E001968F7319
:100730009927848FA689B7892C93A089B1898C9138
:10074000837080648C93938D848D981306C0028887
:10075000F389E02D80818F7D80830895EF92FF9251
:100760000F931F93CF93DF93EC0181E0888F9B8DD4
:100770008C8D98131AC0E889F989808185FF15C08E
:100780009FB7F894EE89FF896083E889F9898081B1
:100790008370806480839FBF81E090E0DF91CF9180
:1007A0001F910F91FF90EF900895F62E0B8D10E0A2
:1007B0000F5F1F4F0F731127E02E8C8D8E110CC011
:1007C0000FB607FCFACFE889F989808185FFF5CF5C
:1007D000CE010E948C03F1CFEB8DEC0FFD2FF11DAC
:1007E000E35AFF4FF0829FB7F8940B8FEA89FB8999
:1007F00080818062CFCFCF93DF93EC01888D8823F7
:10080000B9F0AA89BB89E889F9898C9185FD03C073
:10081000808186FD0DC00FB607FCF7CF8C9185FF58
:10082000F2CF808185FFEDCFCE010E948C03E9CF0E
:10083000DF91CF91089580E090E0892B29F00E940C
:10084000820381110E94000080E090E0892B49F032
:1008500080E090E0892B29F00E94000081110E9425
:10086000000080E090E0892B49F080E090E0892B47
:1008700029F00E94000081110E94000080E090E0B9
:10088000892B49F080E090E0892B29F00E9400003C
:1008900081110C940000089520919C02260F3327AB
:1008A000331F21323105ECF42091C002FC0190E0AD
:1008B00080E0243069F082E00895A0919C022191AB
:1008C000AC0144585D4FA40FB52FB11D2C93019678
:1008D000861798F380919C02680F60939C0280E0D9
:1008E000089581E008951092C00281E08093C202D1
:1008F0001092C10261E084E10E942F0161E085E174
:100900000E942F01E9EBF0E080818E7F808380815F
:100910008D7F808388E48093B80085E48093BC0059
:100920000895CF93DF9391E090937B028823B9F0F1
:10093000C091B800D091BA008091BC008A7B8093AE
:10094000BC0060E084E10E942F0160E085E10E942C
:100950002F010E947304D093BA00C093B800DF91B6
:10096000CF9108950895E091ED028091EC02E8178F
:1009700030F4F0E0EA5AFD4F808190E008958FEF67
:100980009FEF08959091ED028091EC022FEF3FEFE1
:10099000981748F4E92FF0E0EA5AFD4F208130E043
:1009A0009F5F9093ED02C90108958091EC029091B0
:1009B000ED02891B990B0895CF92DF92EF92FF927F
:1009C0000F931F93CF93DF937C01CB018A0120917A
:1009D0005502222389F0EB016B01C40ED51ECC1504
:1009E000DD0569F06991D701ED91FC910190F081ED
:1009F000E02DC7010995F3CF642F0E944C04C80174
:100A0000DF91CF911F910F91FF90EF90DF90CF90EA
:100A10000895CF93DF931F92CDB7DEB769832091FE
:100A200055022223F9F02091EA02203258F021E009
:100A300030E0FC013383228390E080E00F90DF916F
:100A4000CF9108958091EB02E82FF0E0EB5CFD4F31
:100A5000998190838F5F8093EB028093EA0281E01B
:100A600090E0ECCF61E0CE0101960E944C04F7CFFC
:100A7000CF92DF92EF92FF920F931F93CF93DF936A
:100A8000FC01C48121E020935502C09334021092EE
:100A9000EB021092EA028385682B84E993E00E94BE
:100AA0000905D091EA02D13208F092C00E94BF023B
:100AB0006B017C018091C002811165C082E080934E
:100AC000C00281E08093C2028FEF8093BF02109238
:100AD000E402D093E302A5E3B2E0E3ECF2E080E0CD
:100AE000D81385C01092E5028091E502CC0FC82B87
:100AF000C093E5028091C102813009F07CC0109260
:100B0000C1020E94BF026B017C018091E5028093CB
:100B1000BB008091770290917802A0917902B09108
:100B20007A02892B8A2B8B2B99F00E94BF020091AD
:100B30007702109178022091790230917A026C1933
:100B40007D098E099F090617170728073907E0F165
:100B50008091BC0083FDD9CF85EC8093BC000E94BE
:100B6000BF026B017C018091C002823009F445C054
:100B70008091BF028F3F61F18091BF02803241F1CD
:100B80008091BF0225C08091770290917802A09158
:100B90007902B0917A02892B8A2B8B2B09F48ACFA8
:100BA0000E94BF0200917702109178022091790291
:100BB00030917A026C197D098E099F090617170773
:100BC0002807390708F076CF809176020E949104B9
:100BD0001092EB021092EA0210925502DF91CF912F
:100BE0001F910F91FF90EF90DF90CF9008959D910E
:100BF00091938F5F75CF85EEB0CF80917702909102
:100C00007802A0917902B0917A02892B8A2B8B2BE2
:100C100009F4A9CF0E94BF020091770210917802D7
:100C20002091790230917A026C197D098E099F0911
:100C3000061717072807390708F095CFC5CF08957D
:100C400090E080E008950F931F93CF938C01C62FFF
:100C50000E9438056C2F6460C8010E9438056C2F13
:100C60006B7FC8010E94380583EC90E00197F1F793
:100C7000CF911F910F9108950F931F93CF93DF93FF
:100C80008C01D62FC42F607F642B0E94230680E145
:100C9000D89FB00111246C2BC801DF91CF911F9117
:100CA0000F910C94230641E00E943C0681E090E005
:100CB000089585ED8093BC00809177029091780231
:100CC000A0917902B0917A020796A11DB11D23E08F
:100CD000B695A795979587952A95D1F72091BC0051
:100CE00024FD03C01092C0020895409177025091F4
:100CF00078026091790270917A02452B462B472B3E
:100D000069F30097A105B10541F025E32A95F1F7B4
:100D100000000197A109B109E1CF809176020C94FE
:100D200091041F920F920FB60F9211242F933F93AD
:100D30008F939F93AF93BF938091EF029091F002B6
:100D4000A091F102B091F2023091EE0223E0230F64
:100D50002D3758F50196A11DB11D2093EE02809309
:100D6000EF029093F002A093F102B093F20280910F
:100D7000F3029091F402A091F502B091F60201966F
:100D8000A11DB11D8093F3029093F402A093F5028C
:100D9000B093F602BF91AF919F918F913F912F91A8
:100DA0000F900FBE0F901F90189526E8230F029604
:100DB000A11DB11DD2CF1F920F920FB60F92112419
:100DC0000BB60F922F933F934F935F936F937F9345
:100DD0008F939F93AF93BF93EF93FF9387EF92E02F
:100DE0000E948C03FF91EF91BF91AF919F918F91E2
:100DF0007F916F915F914F913F912F910F900BBE1B
:100E00000F900FBE0F901F9018951F920F920FB664
:100E10000F9211240BB60F922F938F939F93EF9302
:100E2000FF93E0910703F09108038081E0910D03A7
:100E3000F0910E0382FD1DC09081809110038F5FA1
:100E40008F7320911103821741F0E0911003F0E0BD
:100E5000E950FD4F958F80931003FF91EF919F9183
:100E60008F912F910F900BBE0F900FBE0F901F9080
:100E700018958081F2CF1F920F920FB60F92112416
:100E80000BB60F922F933F934F935F936F937F9384
:100E90008F939F93AF93BF93EF93FF938091B9008C
:100EA000887F803609F44DC008F040C0883209F4CC
:100EB000A9C028F5803109F49DC0C8F4882309F43D
:100EC000FBC0883009F496C0FF91EF91BF91AF91BC
:100ED0009F918F917F916F915F914F913F912F9152
:100EE0000F900BBE0F900FBE0F901F90189588317A
:100EF00009F488C0803241F78093BF0214C0803467
:100F000009F49DC040F48033B9F38833E9F6809347
:100F1000BF0285ECB0C0803509F485C0883509F47E
:100F200096C0883489F60E945906CECF883909F4D4
:100F30008CC038F5883729F050F4883611F08037A6
:100F400019F683E08093C0021092BE0257C0883821
:100F500009F47BC0803919F0803809F0B5CF809151
:100F6000BE02803208F071C0E091BE0281E08E0FB7
:100F70008093BE028091BB00F0E0E256FD4F80837B
:100F80003DC0803B39F0E0F4803A09F479C0883AFA
:100F900009F09ACF84E08093C00210929D021092D3
:100FA0009C02E091E802F091E902099580919C028F
:100FB00081110FC081E080939C0210927C0209C0D5
:100FC000803C09F4A6CF883C09F4A3CF883B09F004
:100FD0007BCFE0919D0281E08E0F80939D02F0E037
:100FE000E458FD4F80818093BB0090919D028091D9
:100FF0009C0229C08091E5028093BB0085EC809320
:10100000BC0062CF9091E4028091E302981758F5FA
:10101000E091E40281E08E0F8093E402F0E0ED5372
:10102000FD4F8081E9CFE091E40281E08E0F809353
:10103000E4028091BB00F0E0ED53FD4F808390917E
:10104000E4028091E3029817C8F285E8D8CFE091D6
:10105000E40281E08E0F8093E4028091BB00F0E017
:10106000ED53FD4F80838091C20281115CCF81E0FE
:101070008093C10284EA8093BC001092C00224CF06
:1010800085EC8093BC001092C0028091BE02803239
:1010900030F4E091BE02F0E0E256FD4F1082609124
:1010A000BE0270E0E091E602F091E7028EE992E084
:1010B00009951092BE0208CF1092BF0234CFCF9292
:1010C000DF92EF92FF920F931F93E82FF92F05C045
:1010D000015011092109310961F19081962394177A
:1010E000B9F305C0015011092109310911F19081AD
:1010F00096239413F7CFC12CD12CE12CF12C0AC0EC
:101100008FEFC81AD80AE80AF80A0C151D052E0533
:101110003F0579F080818623841791F36C2D7D2D16
:101120008E2D9F2D1F910F91FF90EF90DF90CF900C
:10113000089560E070E080E090E01F910F91FF90D3
:10114000EF90DF90CF900895CF92DF92EF92FF92D1
:101150000F931F931092FA021092F90288EE93E017
:10116000A0E0B0E08093FB029093FC02A093FD020C
:10117000B093FE0224E032E03093F8022093F702AD
:1011800025EC30E0309304032093030324EC30E09B
:10119000309306032093050320EC30E030930803DE
:1011A0002093070321EC30E030930A0320930903D6
:1011B00022EC30E030930C0320930B0326EC30E05C
:1011C00030930E0320930D0310921003109211031D
:1011D0001092120310921303109297031092960329
:1011E0008093980390939903A0939A03B0939B03E1
:1011F00086E192E090939503809394031092A70365
:101200001092A60388E292E09093A5038093A40332
:101210008FE38093A8038CE28093AC0382E08093F9
:10122000AD031092AE0388E08093AF0360E087E0E7
:101230000E942F0183E090E00197F1F761E087E0E1
:101240000E942F0183E290E00197F1F760E087E0D0
:101250000E942F01E6ECF1E06491E0E8F1E0E49116
:10126000F0E0EE0FFF1FE25AFE4F8591949108E8DF
:1012700013E120E030E0462F0E945F086115710500
:101280008105910529F06F5F7F4F8F4F9F4F9F70B2
:101290000E94BE0B2DEC3CEC48EE51E40E944A0B40
:1012A00020E030E040E05FE30E946E0C6B017C01C7
:1012B00020E030E0A9010E94450B811123C020E00D
:1012C00030E0A9016091A0037091A1038091A20375
:1012D0009091A3030E94450B81110CC080E090E027
:1012E000A0EAB1E48093A0039093A103A093A2038A
:1012F000B093A303C090A003D090A103E090A203F9
:10130000F090A303C092A003D092A103E092A203A5
:10131000F092A3031F910F91FF90EF90DF90CF9079
:101320000895CF93DF93CDB7DEB7A1970FB6F894AA
:10133000DEBF0FBECDBF789484B5826084BD84B516
:10134000816084BD85B5826085BD85B5816085BDC0
:1013500080916E00816080936E0010928100809178
:101360008100826080938100809181008160809300
:101370008100809180008160809380008091B10025
:1013800084608093B1008091B00081608093B00050
:1013900080919100826080939100809191008160A2
:1013A0008093910080919000816080939000809163
:1013B000A10082608093A1008091A1008160809350
:1013C000A1008091A00081608093A0008091210104
:1013D00082608093210180912101816080932101AD
:1013E0008091200181608093200180917A00846047
:1013F00080937A0080917A00826080937A00809155
:101400007A00816080937A0080917A00806880936E
:101410007A001092C10061E08CE00E94B90161E0A5
:101420008DE00E94B90161E08EE00E94B90161E0A7
:101430008FE00E94B90161E087E00E94B90160E09D
:1014400088E00E94B901E0910703F091080382E06F
:101450008083E0910303F09104031082E09105037F
:10146000F09106038FEC808310920F03E0910B0341
:10147000F0910C0386E08083E0910903F0910A0368
:10148000808180618083E0910903F0910A0380816B
:1014900088608083E0910903F0910A03808180686D
:1014A0008083E0910903F0910A0380818F7D80831E
:1014B00023E4422E23E0522E34E4632E33E0732ED5
:1014C00048E0342E5BE4A52E56E4B52E63E5862E67
:1014D00062E0962E0BE31FE17E018EE1E80EF11C27
:1014E00061E08CE00E942F0169E670E08DE00E94CF
:1014F000EA0161E08EE00E942F0169E670E08FE072
:101500000E94EA011092ED021092EC021092EB029E
:101510001092EA020E9473045092E9024092E8029B
:101520007092E7026092E6021092A9038091AD03E7
:10153000823010F03092A9039091AE03992339F0D4
:10154000813029F48091A90384608093A90362E328
:1015500070E080E090E00E94E4026091AF0384EAD2
:1015600093E00E94380568EE73E080E090E00E940E
:10157000E40260E384EA93E00E942306C501019738
:10158000F1F760E384EA93E00E942306C501019726
:10159000F1F760E384EA93E00E942306C401019717
:1015A000F1F760E284EA93E00E9423066091A903C8
:1015B000606240E084EA93E00E943C0684E080930D
:1015C000AA0340E06CE084EA93E00E943C0640E01D
:1015D00061E084EA93E00E943C06C8010197F1F7BC
:1015E00082E08093AB0340E066E084EA93E00E94EF
:1015F0003C0640E062E084EA93E00E943C06C801B9
:101600000197F1F73092AF0360E084EA93E00E9423
:1016100038058AE0C82ED12C90E3292E19A228A2E1
:1016200085E38F8F81E38E8FF70101900020E9F72A
:101630003197AF014E195F09B70184EA93E00E9428
:10164000160343E050E060E372E084EA93E00E9416
:10165000160364E670E080E090E00E94E40240E05F
:1016600061E084EA93E00E943C06C8010197F1F72B
:1016700065E070E080E090E00E94E40281E0C81A3A
:10168000D10861F60E941B042BCF0E94F90B08F4CD
:1016900081E008950E945E0B0C94340C0E942D0C86
:1016A00058F00E94260C40F029F45F3F29F00C947A
:1016B0001D0C51110C94680C0C94230C0E94450CC9
:1016C00068F39923B1F3552391F3951B550BBB2771
:1016D000AA2762177307840738F09F5F5F4F220FB6
:1016E000331F441FAA1FA9F335D00E2E3AF0E0E8AD
:1016F00032D091505040E695001CCAF72BD0FE2FF7
:1017000029D0660F771F881FBB1F2617370748078A
:10171000AB07B0E809F0BB0B802DBF01FF27935842
:101720005F4F3AF09E3F510578F00C941D0C0C94DD
:10173000680C5F3FE4F3983ED4F386957795679500
:10174000B795F7959F5FC9F7880F911D9695879577
:1017500097F90895E1E0660F771F881FBB1F621796
:1017600073078407BA0720F0621B730B840BBA0B54
:10177000EE1F88F7E0950895E89409C097FB3EF4C2
:1017800090958095709561957F4F8F4F9F4F9923CE
:10179000A9F0F92F96E9BB279395F695879577954C
:1017A0006795B795F111F8CFFAF4BB0F11F460FF0C
:1017B0001BC06F5F7F4F8F4F9F4F16C0882311F064
:1017C00096E911C0772321F09EE8872F762F05C078
:1017D000662371F096E8862F70E060E02AF09A9513
:1017E000660F771F881FDAF7880F9695879597F908
:1017F0000895990F0008550FAA0BE0E8FEEF1616A2
:101800001706E807F907C0F012161306E407F507F4
:1018100098F0621B730B840B950B39F40A2661F068
:10182000232B242B252B21F408950A2609F4A1400B
:10183000A6958FEF811D811D089597F99F6780E818
:1018400070E060E008959FEF80EC089500240A9412
:101850001616170618060906089500240A9412168B
:101860001306140605060895092E0394000C11F4BE
:10187000882352F0BB0F40F4BF2B11F460FF04C06B
:101880006F5F7F4F8F4F9F4F089557FD9058440FC4
:10189000551F59F05F3F71F04795880F97FB991FCF
:1018A00061F09F3F79F0879508951216130614068C
:1018B000551FF2CF4695F1DF08C016161706180619
:1018C000991FF1CF86957105610508940895E894F4
:1018D000BB2766277727CB0197F908950E94810CD3
:1018E0000C94340C0E94260C38F00E942D0C20F031
:1018F000952311F00C941D0C0C94230C11240C94C2
:10190000680C0E94450C70F3959FC1F3950F50E051
:10191000551F629FF001729FBB27F00DB11D639FA1
:10192000AA27F00DB11DAA1F649F6627B00DA11D47
:10193000661F829F2227B00DA11D621F739FB00DED
:10194000A11D621F839FA00D611D221F749F33275D
:10195000A00D611D231F849F600D211D822F762FF6
:101960006A2F11249F5750409AF0F1F088234AF0D3
:10197000EE0FFF1FBB1F661F771F881F915050403F
:10198000A9F79E3F510580F00C941D0C0C94680C37
:101990005F3FE4F3983ED4F3869577956795B795C6
:1019A000F795E7959F5FC1F7FE2B880F911D9695E0
:1019B000879597F90895EE0FFF1F0024001C0BBEBA
:0C19C0000790F691E02D0994F894FFCFF9
:1019CC0000000000AE0316034503FB03760354032B
:1019DC006803000000000905DC042006B204D504ED
:1019EC00C204B304000000005306160320061F06B1
:0419FC006D2F7300D8
:00000001FF
