:100000000C9403010C942D010C942D010C942D01E2
:100010000C942D010C942D010C942D010C942D01A8
:100020000C942D010C942D010C942D010C942D0198
:100030000C942D010C942D010C942D010C942D0188
:100040000C942D010C942D010C942D010C942D0178
:100050000C942D010C942D010C942D010C944D0742
:100060000C942D010C94C1070C9497070C942D014E
:100070000C942D010C942D010C942D010C942D0148
:100080000C942D010C942D010C942D010C942D0138
:100090000C942D010C942D010C942D010C94F70758
:1000A0000C942D010C942D010C942D010C942D0118
:1000B0000C942D010C942D010C942D010C942D0108
:1000C0000C942D010C942D010C942D010C942D01F8
:1000D0000C942D010C942D010C942D010C942D01E8
:1000E0000C942D0100002100240027002A002D007F
:1000F0003000330001010000040107010A01000083
:100100002200250028002B002E00310034000201BF
:100110000000050108010B0100000A0B02090C0D8B
:100120000E080703040100000000000000000000AA
:1001300000000000000000000000000000000000BF
:10014000000000001211100000000000000000007C
:10015000000000000000000000000000000000009F
:1001600020002300260029002C002F00320000016F
:10017000000003010601090105050505070508083A
:100180000808020202020A0A080804040404010121
:100190000101010101010303030303030303040736
:1001A00007070C0C0C0C0C0C0C0C020202020606CD
:1001B0000606060606060B0B0B0B0B0B0B0B0102C0
:1001C0001020200808102040102040800201020169
:1001D0000804020101020408102040808040201021
:1001E000080402018004020180402010080402017A
:1001F00008040201010204081020408001020408E2
:1002000010204080600911241FBECFEFD1E2DEBF75
:10021000CDBF12E0A0E0B2E0EEEAFBE100E00BBFF0
:1002200002C007900D92AC33B107D9F723E0ACE3DD
:10023000B2E001C01D92AA3BB207E1F711E0C3E0B2
:10024000D1E004C02197FE010E94CC0DC230D1073D
:10025000C9F70E944D0A0C94D50D0C940000282F6C
:1002600030E0F901E85EFE4F9491F901E254FE4F4F
:10027000849128583E4FF9012491222309F433C078
:10028000992301F191509231E8F4E92FF0E0E55B18
:10029000FE4F0C94CC0D7C0180015D01740178014E
:1002A0006201830189018D01930197019B01A101E5
:1002B000A5016201A901AF01B301909180009F7770
:1002C00090938000E22FF0E0EE0FFF1FE250FF4F0F
:1002D000A591B4919FB7F894EC91611148C08095B5
:1002E0008E238C939FBF0895909180009F7DE8CFCF
:1002F00090918000977FE4CF94B59F7794BDE2CF33
:1003000094B59F7DFBCF9091B0009F779093B00004
:10031000D9CF9091B0009F7DF9CF909190009F77B9
:1003200090939000CFCF909190009F7DF9CF9091C6
:100330009000977FF5CF9091A0009F779093A000B9
:10034000C1CF9091A0009F7DF9CF9091A000977FA1
:10035000F5CF909120019F7790932001B3CF90919A
:1003600020019F7DF9CF90912001977FF5CF8E2BB3
:10037000B8CFCF93DF9390E0FC01E254FE4F24917D
:1003800088589E4FFC0184918823D1F090E0880F1B
:10039000991FFC01EC51FF4FA591B491FC01E25073
:1003A000FF4FC591D49161110EC09FB7F8948C9105
:1003B000E22FE0958E238C932881E223E8839FBF70
:1003C000DF91CF9108958FB7F894EC91E22BEC93E5
:1003D0008FBFF6CF1F93CF93DF93182FEB0161E010
:1003E0000E94B901209739F460E0812FDF91CF910D
:1003F0001F910C942F01CF3FD10511F461E0F5CF8F
:10040000E12FF0E0E85EFE4FE491E150E23108F0C8
:10041000B1C0F0E0E25FFD4F0C94CC0D2002280249
:100420002D0237024102BA024B0253025B026502FF
:100430006F02790288029202BA029C02A602B002FE
:1004400084B5806884BDC7BDDF91CF911F910895A9
:1004500084B5806284BDC8BDF7CF8091800080687C
:1004600080938000D0938900C0938800EDCF809165
:100470008000806280938000D0938B00C0938A00BC
:10048000E3CF80918000886080938000D0938D00BE
:10049000C0938C00D9CF8091B00080688093B00069
:1004A000C093B300D1CF8091B00080628093B00040
:1004B000C093B400C9CF8091900080688093900071
:1004C000D0939900C0939800BFCF80919000806234
:1004D00080939000D0939B00C0939A00B5CF8091F9
:1004E0009000886080939000D0939D00C0939C0002
:1004F000ABCF8091A00080688093A0008091A00085
:100500008F7B8093A000D093A900C093A8009CCFBC
:100510008091A00080628093A000D093AB00C09334
:10052000AA0092CF8091A00088608093A000D09311
:10053000AD00C093AC0088CF80912001806880938B
:100540002001D0932901C09328017ECF8091200102
:10055000806280932001D0932B01C0932A0174CF35
:1005600080912001886080932001D0932D01C09359
:100570002C016ACFC038D1050CF040CF35CF909117
:100580007B00977F90937B008770806480937C00D2
:1005900080917A00806480937A0080917A0086FD51
:1005A000FCCF809178009091790008953FB7F8943E
:1005B0008091FD029091FE02A091FF02B091000394
:1005C00026B5A89B05C02F3F19F00196A11DB11DAE
:1005D0003FBFBA2FA92F982F8827BC01CD01620FEA
:1005E000711D811D911D42E0660F771F881F991FA5
:1005F0004A95D1F708958F929F92AF92BF92CF9272
:10060000DF92EF92FF924B015C010E94D6026B01D8
:100610007C010E94D6026C197D098E099F09683EF3
:10062000734081059105A8F321E0821A9108A10881
:10063000B10888EEC80E83E0D81EE11CF11C8114BD
:100640009104A104B10429F7FF90EF90DF90CF90BF
:10065000BF90AF909F908F900895AF92BF92CF922E
:10066000DF92EF92FF920F931F93CF93DF936C0172
:100670007B018B01040F151FEB015E01AE18BF0853
:10068000C017D10759F06991D601ED91FC91019005
:10069000F081E02DC6010995892B79F7C501DF911D
:1006A000CF911F910F91FF90EF90DF90CF90BF906F
:1006B000AF90089508950895FC01538D448D252F22
:1006C00030E0842F90E0821B930B541710F0CF96EC
:1006D000089501970895FC01918D828D981761F01E
:1006E000A28DAE0FBF2FB11D5D968C91928D9F5F35
:1006F0009F73928F90E008958FEF9FEF0895FC0114
:10070000918D828D981731F0828DE80FF11D858DC6
:1007100090E008958FEF9FEF0895FC01918D228D59
:10072000892F90E0805C9F4F821B91098F739927DE
:10073000089581E093E00E948D0321E0892B09F464
:1007400020E0822F0895FC01A48DA80FB92FB11DC0
:10075000A35ABF4F2C91848D90E001968F739927F7
:10076000848FA689B7892C93A089B1898C918370D5
:1007700080648C93938D848D981306C00288F389CE
:10078000E02D80818F7D80830895EF92FF920F93FB
:100790001F93CF93DF93EC0181E0888F9B8D8C8D2D
:1007A00098131AC0E889F989808185FF15C09FB721
:1007B000F894EE89FF896083E889F98980818370E4
:1007C000806480839FBF81E090E0DF91CF911F9193
:1007D0000F91FF90EF900895F62E0B8D10E00F5FB4
:1007E0001F4F0F731127E02E8C8D8E110CC00FB68A
:1007F00007FCFACFE889F989808185FFF5CFCE0122
:100800000E94A303F1CFEB8DEC0FFD2FF11DE35AF6
:10081000FF4FF0829FB7F8940B8FEA89FB898081A4
:100820008062CFCFCF93DF93EC01888D8823B9F01E
:10083000AA89BB89E889F9898C9185FD03C08081EB
:1008400086FD0DC00FB607FCF7CF8C9185FFF2CF68
:10085000808185FFEDCFCE010E94A303E9CFDF9118
:10086000CF91089580E090E0892B29F00E949903B0
:1008700081110E94000080E090E0892B49F080E027
:1008800090E0892B29F00E94000081110E94000055
:1008900080E090E0892B49F080E090E0892B29F0FE
:1008A0000E94000081110E94000080E090E0892BEE
:1008B00049F080E090E0892B29F00E94000081112E
:1008C0000C94000008952091A402260F3327331FB3
:1008D00021323105ECF42091C802FC0190E080E067
:1008E000243069F082E00895A091A4022191AC0126
:1008F0004C575D4FA40FB52FB11D2C930196861751
:1009000098F38091A402680F6093A40280E0089598
:1009100081E008951092C80281E08093CA0210928B
:10092000C90261E084E10E942F0161E085E10E943B
:100930002F01E9EBF0E080818E7F808380818D7FC5
:10094000808388E48093B80085E48093BC00089598
:10095000CF93DF9391E0909383028823B9F0C09105
:10096000B800D091BA008091BC008A7B8093BC0013
:1009700060E084E10E942F0160E085E10E942F0188
:100980000E948A04D093BA00C093B800DF91CF913F
:1009900008950895E091F5028091F402E81730F48B
:1009A000F0E0E25AFD4F808190E008958FEF9FEFD5
:1009B00008959091F5028091F4022FEF3FEF981780
:1009C00048F4E92FF0E0E25AFD4F208130E09F5FCC
:1009D0009093F502C90108958091F4029091F50277
:1009E000891B990B0895CF92DF92EF92FF920F939C
:1009F0001F93CF93DF937C01CB018A0120915D028D
:100A0000222389F0EB016B01C40ED51ECC15DD0548
:100A100069F06991D701ED91FC910190F081E02D91
:100A2000C7010995F3CF642F0E946304C801DF91C9
:100A3000CF911F910F91FF90EF90DF90CF9008958D
:100A4000CF93DF931F92CDB7DEB7698320915D020C
:100A50002223F9F02091F202203258F021E030E018
:100A6000FC013383228390E080E00F90DF91CF91EF
:100A700008958091F302E82FF0E0E35CFD4F998147
:100A800090838F5F8093F3028093F20281E090E085
:100A9000ECCF61E0CE0101960E946304F7CFCF92C4
:100AA000DF92EF92FF920F931F93CF93DF93FC019E
:100AB000C48121E020935D02C0933C021092F302B6
:100AC0001092F2028385682B8EE993E00E94200544
:100AD000D091F202D13208F092C00E94D6026B018E
:100AE0007C018091C802811165C082E08093C802B8
:100AF00081E08093CA028FEF8093C7021092EC02CC
:100B0000D093EB02ADE3B2E0EBECF2E080E0D8137F
:100B100085C01092ED028091ED02CC0FC82BC093DE
:100B2000ED028091C902813009F07CC01092C902A7
:100B30000E94D6026B017C018091ED028093BB0084
:100B400080917F0290918002A0918102B0918202F7
:100B5000892B8A2B8B2B99F00E94D60200917F0261
:100B60001091800220918102309182026C197D09DE
:100B70008E099F090617170728073907E0F18091AA
:100B8000BC0083FDD9CF85EC8093BC000E94D602C7
:100B90006B017C018091C802823009F445C08091CC
:100BA000C7028F3F61F18091C702803241F180918D
:100BB000C70225C080917F0290918002A09181029E
:100BC000B0918202892B8A2B8B2B09F48ACF0E9449
:100BD000D60200917F021091800220918102309113
:100BE00082026C197D098E099F09061717072807CD
:100BF000390708F076CF80917E020E94A8041092F7
:100C0000F3021092F20210925D02DF91CF911F91D8
:100C10000F91FF90EF90DF90CF9008959D91919369
:100C20008F5F75CF85EEB0CF80917F02909180026B
:100C3000A0918102B0918202892B8A2B8B2B09F41F
:100C4000A9CF0E94D60200917F02109180022091CC
:100C50008102309182026C197D098E099F09061765
:100C600017072807390708F095CFC5CF089590E0FA
:100C700080E008958F929F92AF92BF920F931F933F
:100C8000CF93DF93CDB7DEB7A1970FB6F894DEBF51
:100C90000FBECDBF19A2423008F44AE08E010F5DAD
:100CA0001F4F842E912CB12CA12CA50194010E94E0
:100CB000AA0DE62FB901CA01EA3044F5E05DD8017A
:100CC000EE938D01232B242B252B79F790E080E0E8
:100CD000109769F0FD0101900020E9F73197AF010D
:100CE0004A1B5B0BBD018EEA93E00E942D03A19687
:100CF0000FB6F894DEBF0FBECDBFDF91CF911F912D
:100D00000F91BF90AF909F908F900895E95CD7CFDF
:100D10000F931F93CF938C01C62F0E944F056C2F0A
:100D20006460C8010E944F056C2F6B7FC8010E9450
:100D30004F0583EC90E00197F1F7CF911F910F9150
:100D400008950F931F93CF93DF938C01D62FC42F59
:100D5000607F642B0E94880680E1D89FB001112437
:100D60006C2BC801DF91CF911F910F910C948806D5
:100D700041E00E94A10681E090E00895CF92DF92C9
:100D8000EF92FF9297FF18C06B017C0141E06DE28A
:100D90008EEA93E00E94A10666277727CB016C19A3
:100DA0007D098E099F094AE00E943A060196FF904C
:100DB000EF90DF90CF9008954AE0FF90EF90DF90A2
:100DC000CF900C943A06CF93DF93CDB7DEB7289738
:100DD0000FB6F894DEBF0FBECDBF98E0E0E0F2E0C2
:100DE000DE01119601900D929A95E1F79091B7036B
:100DF000981710F48FEF890F90E0880F991F21E06A
:100E000030E02C0F3D1F820F931FFC016081606852
:100E100040E08EEA93E028960FB6F894DEBF0FBE4E
:100E2000CDBFDF91CF910C94A10685ED8093BC00DE
:100E300080917F0290918002A0918102B091820204
:100E40000796A11DB11D23E0B695A79597958795A7
:100E50002A95D1F72091BC0024FD03C01092C8024E
:100E6000089540917F0250918002609181027091BB
:100E70008202452B462B472B69F30097A105B1054C
:100E800041F025E32A95F1F700000197A109B10986
:100E9000E1CF80917E020C94A8041F920F920FB6AE
:100EA0000F9211242F933F938F939F93AF93BF93F0
:100EB0008091F9029091FA02A091FB02B091FC029C
:100EC0003091F80223E0230F2D3758F50196A11D2C
:100ED000B11D2093F8028093F9029093FA02A09337
:100EE000FB02B093FC028091FD029091FE02A09162
:100EF000FF02B09100030196A11DB11D8093FD0278
:100F00009093FE02A093FF02B0930003BF91AF91B4
:100F10009F918F913F912F910F900FBE0F901F9037
:100F2000189526E8230F0296A11DB11DD2CF1F925E
:100F30000F920FB60F9211240BB60F922F933F937F
:100F40004F935F936F937F938F939F93AF93BF93D1
:100F5000EF93FF9381E093E00E94A303FF91EF9151
:100F6000BF91AF919F918F917F916F915F914F91C1
:100F70003F912F910F900BBE0F900FBE0F901F90BF
:100F800018951F920F920FB60F9211240BB60F9265
:100F90002F938F939F93EF93FF93E0911103F09121
:100FA00012038081E0911703F091180382FD1DC0A8
:100FB000908180911A038F5F8F7320911B0382179A
:100FC00041F0E0911A03F0E0EF5FFC4F958F8093C2
:100FD0001A03FF91EF919F918F912F910F900BBE6C
:100FE0000F900FBE0F901F9018958081F2CF1F9227
:100FF0000F920FB60F9211240BB60F922F933F93BF
:101000004F935F936F937F938F939F93AF93BF9310
:10101000EF93FF938091B900887F803609F44DC02B
:1010200008F040C0883209F4A9C028F5803109F4DD
:101030009DC0C8F4882309F4FBC0883009F496C029
:10104000FF91EF91BF91AF919F918F917F916F91A0
:101050005F914F913F912F910F900BBE0F900FBE5C
:101060000F901F901895883109F488C0803241F79D
:101070008093C70214C0803409F49DC040F48033CB
:10108000B9F38833E9F68093C70285ECB0C08035A8
:1010900009F485C0883509F496C0883489F60E9421
:1010A0001507CECF883909F48CC038F5883729F078
:1010B00050F4883611F0803719F683E08093C80227
:1010C0001092C60257C0883809F47BC0803919F0E5
:1010D000803809F0B5CF8091C602803208F071C027
:1010E000E091C60281E08E0F8093C6028091BB0022
:1010F000F0E0EA55FD4F80833DC0803B39F0E0F4DD
:10110000803A09F479C0883A09F09ACF84E0809354
:10111000C8021092A5021092A402E091F002F09190
:10112000F10209958091A40281110FC081E08093A2
:10113000A4021092840209C0803C09F4A6CF883C26
:1011400009F4A3CF883B09F07BCFE091A50281E0B1
:101150008E0F8093A502F0E0EC57FD4F80818093C5
:10116000BB009091A5028091A40229C08091ED025C
:101170008093BB0085EC8093BC0062CF9091EC0221
:101180008091EB02981758F5E091EC0281E08E0F08
:101190008093EC02F0E0E553FD4F8081E9CFE091D0
:1011A000EC0281E08E0F8093EC028091BB00F0E0B6
:1011B000E553FD4F80839091EC028091EB029817EC
:1011C000C8F285E8D8CFE091EC0281E08E0F8093E1
:1011D000EC028091BB00F0E0E553FD4F80838091ED
:1011E000CA0281115CCF81E08093C90284EA8093B6
:1011F000BC001092C80224CF85EC8093BC001092F2
:10120000C8028091C602803230F4E091C602F0E05C
:10121000EA55FD4F10826091C60270E0E091EE0247
:10122000F091EF0286EA92E009951092C60208CF8B
:101230001092C70234CFCF92DF92EF92FF920F93BA
:101240001F93E82FF92F05C0015011092109310919
:1012500061F1908196239417B9F305C001501109EB
:101260002109310911F1908196239413F7CFC12CF4
:10127000D12CE12CF12C0AC08FEFC81AD80AE80A49
:10128000F80A0C151D052E053F0579F0808186238F
:10129000841791F36C2D7D2D8E2D9F2D1F910F9115
:1012A000FF90EF90DF90CF90089560E070E080E0D5
:1012B00090E01F910F91FF90EF90DF90CF900895F5
:1012C000CF92DF92EF92FF920F931F93109204033D
:1012D0001092030388EE93E0A0E0B0E08093050352
:1012E00090930603A0930703B09308032CE032E029
:1012F000309302032093010325EC30E030930E037A
:1013000020930D0324EC30E03093100320930F035F
:1013100020EC30E0309312032093110321EC30E0F5
:10132000309314032093130322EC30E03093160320
:101330002093150326EC30E0309318032093170315
:1013400010921A0310921B0310921C0310921D039B
:101350001092A1031092A0038093A2039093A30381
:10136000A093A403B093A5038EE192E090939F0312
:1013700080939E031092B1031092B00380E392E039
:101380009093AF038093AE038FE38093B2038CE21C
:101390008093B60382E08093B7031092B80388E08D
:1013A0008093B90360E087E00E942F0183E090E022
:1013B0000197F1F761E087E00E942F0183E290E05E
:1013C0000197F1F760E087E00E942F01E6ECF1E081
:1013D0006491E0E8F1E0E491F0E0EE0FFF1FE25AE3
:1013E000FE4F8591949108E813E120E030E0462F0C
:1013F0000E941B09611571058105910529F06F5F38
:101400007F4F8F4F9F4F9F700E948D0C2DEC3CECB7
:1014100048EE51E40E94190C20E030E040E05FE328
:101420000E943D0D6B017C0120E030E0A9010E948B
:10143000140C811123C020E030E0A9016091AA03BF
:101440007091AB038091AC039091AD030E94140C9A
:1014500081110CC080E090E0A0EAB1E48093AA037F
:101460009093AB03A093AC03B093AD03C090AA03D9
:10147000D090AB03E090AC03F090AD03C092AA0310
:10148000D092AB03E092AC03F092AD031F910F91A9
:10149000FF90EF90DF90CF900895789484B58260AC
:1014A00084BD84B5816084BD85B5826085BD85B508
:1014B000816085BD80916E00816080936E00109286
:1014C0008100809181008260809381008091810001
:1014D0008160809381008091800081608093800092
:1014E0008091B10084608093B1008091B0008160F0
:1014F0008093B000809191008260809391008091F0
:101500009100816080939100809190008160809330
:1015100090008091A10082608093A1008091A10041
:1015200081608093A1008091A00081608093A000E1
:10153000809121018260809321018091210181604D
:10154000809321018091200181608093200180910E
:101550007A00846080937A0080917A008260809320
:101560007A0080917A00816080937A0080917A007D
:10157000806880937A001092C10086E990E0909391
:10158000F7028093F60261E08CE00E94B90161E00D
:101590008DE00E94B90161E08EE00E94B90161E036
:1015A0008FE00E94B90161E087E00E94B90160E02C
:1015B00088E00E94B901E0911103F091120382E0EA
:1015C0008083E0910D03F0910E031082E0910F03F0
:1015D000F09110038FEC808310921903E0911503B2
:1015E000F091160386E08083E0911303F0911403D9
:1015F000808180618083E0911303F09114038081E6
:1016000088608083E0911303F091140380818068E7
:101610008083E0911303F091140380818F7D808398
:1016200060E080E10E94B90160E081E10E94B901BF
:101630002AE5222E23E0322E3BE5C32E33E0D32EC3
:101640004BE4E42E46E4F42E53E5A52E52E0B52EED
:101650000BE31FE14090F6025090F70261E08CE04E
:101660000E942F0188248A94912C84189508B40133
:101670008DE00E94EA0161E08EE00E942F01B4013A
:101680008FE00E94EA011092F5021092F40210928B
:10169000F3021092F2020E948A043092F102209228
:1016A000F002D092EF02C092EE021092B30380914A
:1016B000B703823018F098E09093B3039091B80389
:1016C000992339F0813029F48091B30384608093A9
:1016D000B30362E370E080E090E00E94FB0260915F
:1016E000B9038EEA93E00E944F0568EE73E080E054
:1016F00090E00E94FB0260E38EEA93E00E9488067D
:10170000C7010197F1F760E38EEA93E00E94880633
:10171000C7010197F1F760E38EEA93E00E94880623
:10172000C5010197F1F760E28EEA93E00E94880616
:101730006091B303606240E08EEA93E00E94A106EC
:1017400084E08093B40340E06CE08EEA93E00E9472
:10175000A10640E061E08EEA93E00E94A106C80184
:101760000197F1F792E09093B50340E066E08EEACE
:1017700093E00E94A10640E062E08EEA93E00E94BE
:10178000A106C8010197F1F788E08093B90360E0F2
:101790008EEA93E00E944F058AE0882E912C052C5A
:1017A000000C66087708C301B2010E94BE0643E040
:1017B00050E068E372E08EEA93E00E942D0381E03E
:1017C0000E94E30680E10E94BF02BC01990F880BD2
:1017D000990B0E94BE0682E00E94E30681E10E940E
:1017E000BF02BC01990F880B990B0E94BE0668EEE0
:1017F00073E080E090E00E94FB0240E061E08EEA4E
:1018000093E00E94A106C8010197F1F76AE070E039
:1018100080E090E00E94FB0291E0891A910809F0B3
:10182000C2CF0E94320416CF0E94C80C08F481E097
:1018300008950E942D0C0C94030D0E94FC0C58F08E
:101840000E94F50C40F029F45F3F29F00C94EC0C59
:1018500051110C94370D0C94F20C0E94140D68F386
:101860009923B1F3552391F3951B550BBB27AA2759
:1018700062177307840738F09F5F5F4F220F331F93
:10188000441FAA1FA9F335D00E2E3AF0E0E832D05B
:1018900091505040E695001CCAF72BD0FE2F29D05E
:1018A000660F771F881FBB1F261737074807AB0730
:1018B000B0E809F0BB0B802DBF01FF2793585F4FA5
:1018C0003AF09E3F510578F00C94EC0C0C94370DD7
:1018D0005F3FE4F3983ED4F3869577956795B79587
:1018E000F7959F5FC9F7880F911D9695879597F992
:1018F0000895E1E0660F771F881FBB1F621773070B
:101900008407BA0720F0621B730B840BBA0BEE1F1F
:1019100088F7E0950895E89409C097FB3EF4909508
:101920008095709561957F4F8F4F9F4F9923A9F0B8
:10193000F92F96E9BB279395F69587957795679547
:10194000B795F111F8CFFAF4BB0F11F460FF1BC08B
:101950006F5F7F4F8F4F9F4F16C0882311F096E91E
:1019600011C0772321F09EE8872F762F05C06623CC
:1019700071F096E8862F70E060E02AF09A95660F85
:10198000771F881FDAF7880F9695879597F908953E
:10199000990F0008550FAA0BE0E8FEEF1616170680
:1019A000E807F907C0F012161306E407F50798F0E8
:1019B000621B730B840B950B39F40A2661F0232B01
:1019C000242B252B21F408950A2609F4A140A6957D
:1019D0008FEF811D811D089597F99F6780E870E062
:1019E00060E008959FEF80EC089500240A94161695
:1019F000170618060906089500240A9412161306FD
:101A0000140605060895092E0394000C11F488238A
:101A100052F0BB0F40F4BF2B11F460FF04C06F5FA6
:101A20007F4F8F4F9F4F089557FD9058440F551F7C
:101A300059F05F3F71F04795880F97FB991F61F050
:101A40009F3F79F087950895121613061406551FC7
:101A5000F2CF4695F1DF08C0161617061806991F33
:101A6000F1CF86957105610508940895E894BB2728
:101A700066277727CB0197F908950E94500D0C94A3
:101A8000030D0E94F50C38F00E94FC0C20F0952309
:101A900011F00C94EC0C0C94F20C11240C94370DF6
:101AA0000E94140D70F3959FC1F3950F50E0551FE0
:101AB000629FF001729FBB27F00DB11D639FAA27A3
:101AC000F00DB11DAA1F649F6627B00DA11D661FF2
:101AD000829F2227B00DA11D621F739FB00DA11D13
:101AE000621F839FA00D611D221F749F3327A00DCD
:101AF000611D231F849F600D211D822F762F6A2F69
:101B000011249F5750409AF0F1F088234AF0EE0FCD
:101B1000FF1FBB1F661F771F881F91505040A9F7FA
:101B20009E3F510580F00C94EC0C0C94370D5F3FF8
:101B3000E4F3983ED4F3869577956795B795F79536
:101B4000E7959F5FC1F7FE2B880F911D96958795AE
:101B500097F90895A1E21A2EAA1BBB1BFD010DC027
:101B6000AA1FBB1FEE1FFF1FA217B307E407F5074D
:101B700020F0A21BB30BE40BF50B661F771F881F29
:101B8000991F1A9469F760957095809590959B01BF
:101B9000AC01BD01CF010895EE0FFF1F0024001C12
:0E1BA0000BBE0790F691E02D0994F894FFCF4C
:101BAE00000040001400540000000000C5032D0387
:101BBE005C0312048D036B037F03000000002005FD
:101BCE00F3043706C904EC04D904CA04000000006B
:0C1BDE00B8062D03370636066D2F730085
:00000001FF
