:100000000C9474000C949E000C949E000C949E0022
:100010000C949E000C949E000C949E000C949E00E8
:100020000C949E000C949E000C949E000C949E00D8
:100030000C949E000C949E000C949E000C949E00C8
:100040000C949E000C949E000C949E000C949E00B8
:100050000C949E000C949E000C949E000C94F9014C
:100060000C949E000C946D020C9443020C949E0020
:100070000C949E000C949E000C949E000C949E0088
:100080000C949E000C949E000C949E000C949E0078
:100090000C949E000C949E000C949E000C949E0068
:1000A0000C949E000C949E000C949E000C949E0058
:1000B0000C949E000C949E000C949E000C949E0048
:1000C0000C949E000C949E000C949E000C949E0038
:1000D0000C949E000C949E000C949E000C949E0028
:1000E0000C949E00A302710411241FBECFEFD1E235
:1000F000DEBFCDBF12E0A0E0B2E0E8EBFBE000E045
:100100000BBF02C007900D92AC31B107D9F722E0C6
:10011000ACE1B2E001C01D92AD3DB207E1F710E0E5
:10012000C3E7D0E004C02197FE010E94A104C237BA
:10013000D107C9F70E942D030C94CF050C94000041
:100140003FB7F8948091230290912402A091250258
:10015000B091260226B5A89B05C02F3F19F0019645
:10016000A11DB11D3FBFBA2FA92F982F8827BC0111
:10017000CD01620F711D811D911D42E0660F771F39
:10018000881F991F4A95D1F70895AF92BF92CF92D9
:10019000DF92EF92FF920F931F93CF93DF936C0147
:1001A0007B018B01040F151FEB015E01AE18BF0828
:1001B000C017D10759F06991D601ED91FC910190DA
:1001C000F081E02DC6010995892B79F7C501DF91F2
:1001D000CF911F910F91FF90EF90DF90CF90BF9044
:1001E000AF900895FC01538D448D252F30E0842F6E
:1001F00090E0821B930B541710F0CF96089501974F
:100200000895FC01918D828D981761F0A28DAE0F3B
:10021000BF2FB11D5D968C91928D9F5F9F73928FC2
:1002200090E008958FEF9FEF0895FC01918D828DEE
:10023000981731F0828DE80FF11D858D90E00895BB
:100240008FEF9FEF0895FC01918D228D892F90E013
:10025000805C9F4F821B91098F739927089587E2D5
:1002600092E00E94230121E0892B09F420E0822FF3
:100270000895FC01A48DA80FB92FB11DA35ABF4F3B
:100280002C91848D90E001968F739927848FA68995
:10029000B7892C93A089B1898C91837080648C93E9
:1002A000938D848D981306C00288F389E02D808198
:1002B0008F7D80830895EF92FF920F931F93CF93CA
:1002C000DF93EC0181E0888F9B8D8C8D98131AC091
:1002D000E889F989808185FF15C09FB7F894EE8978
:1002E000FF896083E889F9898081837080648083D5
:1002F0009FBF81E090E0DF91CF911F910F91FF9020
:10030000EF900895F62E0B8D10E00F5F1F4F0F73C7
:100310001127E02E8C8D8E110CC00FB607FCFACF82
:10032000E889F989808185FFF5CFCE010E943901E6
:10033000F1CFEB8DEC0FFD2FF11DE35AFF4FF08253
:100340009FB7F8940B8FEA89FB8980818062CFCFB9
:10035000CF93DF93EC01888D8823B9F0AA89BB89FC
:10036000E889F9898C9185FD03C0808186FD0DC0E7
:100370000FB607FCF7CF8C9185FFF2CF808185FF08
:10038000EDCFCE010E943901E9CFDF91CF910895E1
:1003900080E090E0892B29F00E942F0181110E94BA
:1003A000000080E090E0892B49F080E090E0892B0C
:1003B00029F00E94000081110E94000080E090E07E
:1003C000892B49F080E090E0892B29F00E94000001
:1003D00081110E94000080E090E0892B49F080E0CC
:1003E00090E0892B29F00E94000081110C940000FC
:1003F00008951F920F920FB60F9211242F933F93DF
:100400008F939F93AF93BF9380911F02909120028F
:10041000A0912102B091220230911E0223E0230F0D
:100420002D3758F50196A11DB11D20931E02809312
:100430001F0290932002A0932102B0932202809188
:10044000230290912402A0912502B09126020196E8
:10045000A11DB11D8093230290932402A093250235
:10046000B0932602BF91AF919F918F913F912F91B1
:100470000F900FBE0F901F90189526E8230F02963D
:10048000A11DB11DD2CF1F920F920FB60F92112452
:100490000BB60F922F933F934F935F936F937F937E
:1004A0008F939F93AF93BF93EF93FF9387E292E075
:1004B0000E943901FF91EF91BF91AF919F918F9170
:1004C0007F916F915F914F913F912F910F900BBE54
:1004D0000F900FBE0F901F9018951F920F920FB69E
:1004E0000F9211240BB60F922F938F939F93EF933C
:1004F000FF93E0913702F09138028081E0913D0254
:10050000F0913E0282FD1DC09081809140028F5F7C
:100510008F7320914102821741F0E0914002F0E098
:10052000E95DFD4F958F80934002FF91EF919F9180
:100530008F912F910F900BBE0F900FBE0F901F90B9
:1005400018958081F2CF10922A021092290288EE2B
:1005500093E0A0E0B0E080932B0290932C02A09354
:100560002D02B0932E028AE092E0909328028093AD
:10057000270285EC90E0909334028093330284EC60
:1005800090E0909336028093350280EC90E0909357
:1005900038028093370281EC90E090933A02809386
:1005A000390282EC90E090933C0280933B0286EC0F
:1005B00090E090933E0280933D0210924002109290
:1005C0004102109242021092430285E090E0909323
:1005D000C8028093C70282E090E09093CA028093A1
:1005E000C9021092C5021092C4021092C602109263
:1005F000D8021092D7028AE090E00E94AA04909359
:10060000D0028093CF02892B49F41092CB02109232
:10061000CC021092CD021092CE0208958AE090E0B2
:10062000A0E0B0E08093CB029093CC02A093CD02E7
:10063000B093CE0285EA9AE59093D8028093D702D0
:100640001092D2021092D1021092D4021092D302D0
:100650001092D6021092D5020895CF93DF93CDB7B2
:10066000DEB7A1970FB6F894DEBF0FBECDBF78946A
:1006700084B5826084BD84B5816084BD85B58260A7
:1006800085BD85B5816085BD80916E008160809358
:100690006E001092810080918100826080938100C1
:1006A00080918100816080938100809180008160D1
:1006B000809380008091B10084608093B10080912C
:1006C000B00081608093B00080919100826080933F
:1006D00091008091910081608093910080919000C1
:1006E0008160809390008091A10082608093A1003E
:1006F0008091A10081608093A1008091A000816021
:100700008093A000809121018260809321018091DB
:10071000210181608093210180912001816080937B
:10072000200180917A00846080937A0080917A0021
:10073000826080937A0080917A00816080937A0051
:1007400080917A00806880937A001092C100E091D5
:100750003702F091380282E08083E0913302F09119
:1007600034021082E0913502F09136028FEC8083E2
:1007700010923F02E0913B02F0913C0286E08083C0
:10078000E0913902F0913A02808180618083E091AA
:100790003902F0913A02808188608083E0913902C9
:1007A000F0913A02808180688083E0913902F09173
:1007B0003A0280818F7D80839AE0C92ED12CE12C72
:1007C000F12C10921D0210921C0280911C0290913B
:1007D0001D02843691050CF081C04C01092E000CDD
:1007E000AA08BB0897FF64C06DE287E292E00E940E
:1007F0005B0122273327A901281939094A095B0916
:1008000019A28E010F5D1F4FCA01B901A701960100
:100810000E947F04605DF80162938F01211531050C
:100820004105510589F70115110561F0019000207E
:10083000E9F73197AF01401B510BB80187E292E015
:100840000E94C50042E050E068E172E087E292E079
:100850000E94C5000E94A0002B013C0188EC882E5C
:10086000912CA12CB12C0E94A00064197509860955
:100870009709683E734081059105A8F3F1E08F1A4E
:100880009108A108B10828EE420E23E0521E611C17
:10089000711C81149104A104B10429F780911C02F8
:1008A00090911D02019690931D0280931C028DCFA2
:1008B000A501940119A28E010F5D1F4FCA01B90154
:1008C000A70196010E947F04605DF80162938F0189
:1008D000211531054105510589F7A5CF0E94C801B1
:1008E00070CF8091D7029091D802853A9A4531F421
:1008F0008091CF029091D0020C9446050895A1E218
:100900001A2EAA1BBB1BFD010DC0AA1FBB1FEE1F89
:10091000FF1FA217B307E407F50720F0A21BB30BD4
:10092000E40BF50B661F771F881F991F1A9469F750
:1009300060957095809590959B01AC01BD01CF01AC
:100940000895EE0FFF1F0024001C0BBE0790F691C8
:10095000E02D09940F931F93CF93DF93823091057D
:1009600010F482E090E0E091DB02F091DC0230E0F4
:1009700020E0B0E0A0E0309799F42115310509F4AA
:100980004AC0281B390B24303105D8F58A819B8158
:100990006115710589F1FB0193838283FE0111C00A
:1009A000408151810281138148175907E0F04817AF
:1009B000590799F4109761F012960C9312971396B9
:1009C0001C933296CF01DF91CF911F910F91089523
:1009D0000093DB021093DC02F4CF2115310551F0B6
:1009E0004217530738F0A901DB019A01BD01DF016D
:1009F000F801C1CFEF01F9CF9093DC028093DB02C5
:100A0000CDCFFE01E20FF31F819391932250310964
:100A100039832883D7CF2091D9023091DA02232B52
:100A200041F420910202309103023093DA022093C4
:100A3000D90220910002309101022115310541F4C3
:100A40002DB73EB74091040250910502241B350B8F
:100A5000E091D902F091DA02E217F307A0F42E1B1D
:100A60003F0B2817390778F0AC014E5F5F4F241712
:100A7000350748F04E0F5F1F5093DA024093D902BA
:100A8000819391939FCFF0E0E0E09CCFCF93DF93F1
:100A90000097E9F0FC01329713821282A091DB02E9
:100AA000B091DC02ED0130E020E01097A1F420814C
:100AB0003181820F931F2091D9023091DA022817D9
:100AC000390709F061C0F093DA02E093D902DF91AF
:100AD000CF910895EA01CE17DF07E8F54A815B81DF
:100AE0009E0141155105B1F7E901FB83EA83499164
:100AF0005991C40FD51FEC17FD0761F480819181D6
:100B00000296840F951FE9019983888382819381DE
:100B10009B838A83F0E0E0E012968D919C9113977D
:100B20000097B9F52D913C911197CD010296820F56
:100B3000931F2091D9023091DA022817390739F62C
:100B4000309751F51092DC021092DB02B093DA027A
:100B5000A093D902BCCFD383C28340815181840F3B
:100B6000951FC817D90761F44E5F5F4F888199813F
:100B7000480F591F518340838A819B8193838283CD
:100B80002115310509F0B0CFF093DC02E093DB02D0
:100B90009ECFFD01DC01C0CF13821282D7CF10E0BF
:100BA000C3E7D0E004C0FE010E94A1042196C4372F
:080BB000D107C9F7F894FFCF4B
:100BB8000000DD028000000000005B01C500F200BB
:0C0BC800A8012301010115010D0A000025
:00000001FF
