:100000000C94E9000C9413010C9413010C9413014B
:100010000C9413010C9413010C9413010C94130110
:100020000C9413010C9413010C9413010C94130100
:100030000C9413010C9413010C9413010C941301F0
:100040000C9413010C9413010C9413010C941301E0
:100050000C9413010C9413010C9413010C946A0476
:100060000C9413010C9413010C9413010C941301C0
:100070000C9413010C9413010C9413010C941301B0
:100080000C9413010C9413010C9413010C941301A0
:100090000C9413010C9413010C9413010C94B404EC
:1000A0000C9413010C9413010C9413010C94130180
:1000B0000C9413010C9413010C9413010C94130170
:1000C0000C9413010C9413010C9413010C94130160
:1000D0000C9413010C9413010C9413010C94130150
:1000E0000C94130100002200250028002B002E0094
:1000F0003100340002010000050108010B01050573
:100100000505070508080808020202020A0A08088D
:1001100004040404010101010101010103030303BB
:1001200003030303040707070C0C0C0C0C0C0C0C4A
:100130000202020206060606060606060B0B0B0B5B
:100140000B0B0B0B01021020200808102040102080
:10015000408002010201080402010102040810208B
:100160004080804020100804020180040201804089
:1001700020100804020108040201010204081020F2
:100180004080010204081020408000000A0B020990
:100190000C0D0E0807030401000000000000000021
:1001A000000000000000000000000000000000004F
:1001B000000000000000121110000000000000000C
:1001C000000000000000000000000000000000002F
:1001D000D80511241FBECFEFD1E2DEBFCDBF12E0A4
:1001E000A0E0B2E0E8E2FEE000E00BBF02C0079052
:1001F0000D92A832B107D9F723E0A8E2B2E001C01E
:100200001D92A330B207E1F710E0C9EED0E004C0C0
:100210002197FE010E940907C83ED107C9F70E9435
:10022000FA050C9412070C940000282F30E0F90115
:10023000E657FE4F9491F901EC5BFE4F84912250FA
:100240003F4FF9012491222309F433C0992301F18E
:1002500091509231E8F4E92FF0E0EF5CFE4F0C94FE
:1002600009076201660143015A015E014801690103
:100270006F01730179017D01810187018B014801C3
:100280008F0195019901909180009F779093800054
:10029000E22FF0E0EE0FFF1FEC51FF4FA591B4915C
:1002A0009FB7F894EC91611148C080958E238C9390
:1002B0009FBF0895909180009F7DE8CF909180002E
:1002C000977FE4CF94B59F7794BDE2CF94B59F7D9F
:1002D000FBCF9091B0009F779093B000D9CF9091D1
:1002E000B0009F7DF9CF909190009F779093900000
:1002F000CFCF909190009F7DF9CF90919000977F04
:10030000F5CF9091A0009F779093A000C1CF9091DE
:10031000A0009F7DF9CF9091A000977FF5CF90919D
:1003200020019F7790932001B3CF909120019F7D72
:10033000F9CF90912001977FF5CF8E2BB8CF3FB7A3
:10034000F8948091E7029091E802A091E902B091BF
:10035000EA0226B5A89B05C02F3F19F00196A11D02
:10036000B11D3FBFBA2FA92F982F8827BC01CD01FF
:10037000620F711D811D911D42E0660F771F881F5E
:10038000991F4A95D1F708958F929F92AF92BF928D
:10039000CF92DF92EF92FF924B015C010E949F018E
:1003A0006B017C010E949F016C197D098E099F09D8
:1003B000683E734081059105A8F321E0821A9108F7
:1003C000A108B10888EEC80E83E0D81EE11CF11C1C
:1003D00081149104A104B10429F7FF90EF90DF90FC
:1003E000CF90BF90AF909F908F900895AF92BF92A3
:1003F000CF92DF92EF92FF920F931F93CF93DF93F1
:100400006C017B018B01040F151FEB015E01AE181F
:10041000BF08C017D10759F06991D601ED91FC9141
:100420000190F081E02DC6010995892B79F7C5016E
:10043000DF91CF911F910F91FF90EF90DF90CF90C0
:10044000BF90AF9008950895089520919002260FCF
:100450003327331F21323105ECF42091B402FC0123
:1004600090E080E0243069F082E00895A09190024D
:100470002191AC0140595D4FA40FB52FB11D2C93B4
:100480000196861798F380919002680F609390020E
:1004900080E0089581E008951092B40281E0809395
:1004A000B6021092B50261E084E10E94150161E09C
:1004B00085E10E941501E9EBF0E080818E7F808369
:1004C00080818D7F808388E48093B80085E4809369
:1004D000BC000895CF93DF9391E090936F0288233F
:1004E000B9F0C091B800D091BA008091BC008A7B6D
:1004F0008093BC0060E084E10E94150160E085E12A
:100500000E9415010E944C02D093BA00C093B8001B
:10051000DF91CF9108950895E091E1028091E0028A
:10052000E81730F4F0E0E65BFD4F808190E008953D
:100530008FEF9FEF08959091E1028091E0022FEFFD
:100540003FEF981748F4E92FF0E0E65BFD4F20817C
:1005500030E09F5F9093E102C90108958091E0022D
:100560009091E102891B990B0895CF92DF92EF924F
:10057000FF920F931F93CF93DF937C01CB018A01EE
:1005800020914902222389F0EB016B01C40ED51E94
:10059000CC15DD0569F06991D701ED91FC910190D1
:1005A000F081E02DC7010995F3CF642F0E94250249
:1005B000C801DF91CF911F910F91FF90EF90DF90D5
:1005C000CF900895CF93DF931F92CDB7DEB76983A5
:1005D000209149022223F9F02091DE02203258F0C6
:1005E00021E030E0FC013383228390E080E00F9033
:1005F000DF91CF9108958091DF02E82FF0E0E75D71
:10060000FD4F998190838F5F8093DF028093DE029C
:1006100081E090E0ECCF61E0CE0101960E942502DE
:10062000F7CFCF92DF92EF92FF920F931F93CF936A
:10063000DF93FC01C48121E020934902C09328028A
:100640001092DF021092DE028385682B8BEE92E01F
:100650000E94E202D091DE02D13208F092C00E94E4
:100660009F016B017C018091B402811165C082E021
:100670008093B40281E08093B6028FEF8093B3023F
:100680001092D802D093D702A9E2B2E0E7EBF2E0F1
:1006900080E0D81385C01092D9028091D902CC0F86
:1006A000C82BC093D9028091B502813009F07CC07B
:1006B0001092B5020E949F016B017C018091D902CA
:1006C0008093BB0080916B0290916C02A0916D02AF
:1006D000B0916E02892B8A2B8B2B99F00E949F017F
:1006E00000916B0210916C0220916D0230916E02AC
:1006F0006C197D098E099F09061717072807390706
:10070000E0F18091BC0083FDD9CF85EC8093BC00E3
:100710000E949F016B017C018091B402823009F438
:1007200045C08091B3028F3F61F18091B302803266
:1007300041F18091B30225C080916B0290916C02CF
:10074000A0916D02B0916E02892B8A2B8B2B09F43C
:100750008ACF0E949F0100916B0210916C02209140
:100760006D0230916E026C197D098E099F09061782
:1007700017072807390708F076CF80916A020E9490
:100780006A021092DF021092DE0210924902DF919B
:10079000CF911F910F91FF90EF90DF90CF90089530
:1007A0009D9191938F5F75CF85EEB0CF80916B0255
:1007B00090916C02A0916D02B0916E02892B8A2BF0
:1007C0008B2B09F4A9CF0E949F0100916B0210911D
:1007D0006C0220916D0230916E026C197D098E09B8
:1007E0009F09061717072807390708F095CFC5CFC7
:1007F000089590E080E0089585ED8093BC0080919D
:100800006B0290916C02A0916D02B0916E020796FE
:10081000A11DB11D23E0B695A795979587952A95BB
:10082000D1F72091BC0024FD03C01092B4020895BA
:1008300040916B0250916C0260916D0270916E025A
:10084000452B462B472B69F30097A105B10541F0D5
:1008500025E32A95F1F700000197A109B109E1CF3D
:1008600080916A020C946A020F931F93CF938C01BC
:10087000C62F0E9411036C2F6460C8010E941103EF
:100880006C2F6B7FC8010E94110383EC90E00197ED
:10089000F1F7CF911F910F9108950F931F93CF936D
:1008A000DF938C01D62FC42F607F642B0E94340409
:1008B00080E1D89FB00111246C2BC801DF91CF914A
:1008C0001F910F910C94340441E00E944D0481E08B
:1008D00090E008951F920F920FB60F9211242F935C
:1008E0003F938F939F93AF93BF938091E302909137
:1008F000E402A091E502B091E6023091E20223E029
:10090000230F2D3758F50196A11DB11D2093E2024A
:100910008093E3029093E402A093E502B093E60291
:100920008091E7029091E802A091E902B091EA0279
:100930000196A11DB11D8093E7029093E802A09358
:10094000E902B093EA02BF91AF919F918F913F91DD
:100950002F910F900FBE0F901F90189526E8230F30
:100960000296A11DB11DD2CF1F920F920FB60F920A
:1009700011240BB60F922F933F934F935F936F9376
:100980007F938F939F93AF93BF93EF93FF93809148
:10099000B900887F803609F44DC008F040C0883225
:1009A00009F4A9C028F5803109F49DC0C8F4882352
:1009B00009F4FBC0883009F496C0FF91EF91BF9114
:1009C000AF919F918F917F916F915F914F913F91E7
:1009D0002F910F900BBE0F900FBE0F901F90189588
:1009E000883109F488C0803241F78093B30214C083
:1009F000803409F49DC040F48033B9F38833E9F6BC
:100A00008093B30285ECB0C0803509F485C0883589
:100A100009F496C0883489F60E94FC03CECF883949
:100A200009F48CC038F5883729F050F4883611F075
:100A3000803719F683E08093B4021092B20257C057
:100A4000883809F47BC0803919F0803809F0B5CFB7
:100A50008091B202803208F071C0E091B20281E070
:100A60008E0F8093B2028091BB00F0E0EE56FD4FF6
:100A700080833DC0803B39F0E0F4803A09F479C0CE
:100A8000883A09F09ACF84E08093B40210929102E0
:100A900010929002E091DC02F091DD0209958091C4
:100AA000900281110FC081E0809390021092700239
:100AB00009C0803C09F4A6CF883C09F4A3CF883B49
:100AC00009F07BCFE091910281E08E0F809391023B
:100AD000F0E0E059FD4F80818093BB00909191023E
:100AE0008091900229C08091D9028093BB0085EC4F
:100AF0008093BC0062CF9091D8028091D702981762
:100B000058F5E091D80281E08E0F8093D802F0E092
:100B1000E954FD4F8081E9CFE091D80281E08E0F4A
:100B20008093D8028091BB00F0E0E954FD4F8083B0
:100B30009091D8028091D7029817C8F285E8D8CF53
:100B4000E091D80281E08E0F8093D8028091BB00A3
:100B5000F0E0E954FD4F80838091B60281115CCFB3
:100B600081E08093B50284EA8093BC001092B402C5
:100B700024CF85EC8093BC001092B4028091B20225
:100B8000803230F4E091B202F0E0EE56FD4F108278
:100B90006091B20270E0E091DA02F091DB0282E94A
:100BA00092E009951092B20208CF1092B30234CFAE
:100BB000EBEEF2E01382128288EE93E0A0E0B0E068
:100BC00084839583A683B78384E092E091838083B6
:100BD000E7EFF2E01382128286E192E09183808354
:100BE00087E2848380E1808782E08187128688E0C3
:100BF00083870895789484B5826084BD84B58160CC
:100C000084BD85B5826085BD85B5816085BD8091D7
:100C10006E00816080936E0010928100809181004F
:100C20008260809381008091810081608093810047
:100C3000809180008160809380008091B100846009
:100C40008093B1008091B00081608093B00080916A
:100C500091008260809391008091910081608093E7
:100C60009100809190008160809390008091A1001C
:100C700082608093A1008091A10081608093A10097
:100C80008091A00081608093A0008091210182600A
:100C900080932101809121018160809321018091C5
:100CA000200181608093200180917A00846080938C
:100CB0007A0080917A00826080937A0080917A0035
:100CC000816080937A0080917A00806880937A00B6
:100CD0001092C1001092E1021092E0021092DF0225
:100CE0001092DE020E944C0283E292E09093DD02B9
:100CF0008093DC0284E292E09093DB028093DA023C
:100D00001092FC0280910003823018F098E09093DA
:100D1000FC0290910103992339F0813029F48091EC
:100D2000FC0284608093FC0262E370E080E090E06B
:100D30000E94C4016091020387EF92E00E941103B8
:100D400068EE73E080E090E00E94C40160E387EF0A
:100D500092E00E943404CBE4D6E4CE010197F1F78F
:100D600060E387EF92E00E9434042197F1F760E39B
:100D700087EF92E00E94340483E592E00197F1F757
:100D800060E287EF92E00E9434046091FC026062AE
:100D900040E087EF92E00E944D0484E08093FD02E2
:100DA00040E06CE087EF92E00E944D0440E061E09B
:100DB00087EF92E00E944D04CBE3DFE1CE01019783
:100DC000F1F782E08093FE0240E066E087EF92E078
:100DD0000E944D0440E062E087EF92E00E944D04E3
:100DE0002197F1F788E08093020360E087EF92E0BB
:100DF0000E94110348E050E06EE172E087EF92E05C
:100E00000E94F601C0E0D0E02097F1F30E940000BC
:100E1000FBCFEE0FFF1F0024001C0BBE0790F691C6
:080E2000E02D0994F894FFCFC6
:100E280000000000E202B502F9038B02AE029B0249
:100E38008C02000000006404F601F903F803586905
:080E48006E206368616F000079
:00000001FF
