:100000000C9403010C942D010C942D010C942D01E2
:100010000C942D010C942D010C942D010C942D01A8
:100020000C942D010C942D010C942D010C942D0198
:100030000C942D010C942D010C942D010C942D0188
:100040000C942D010C942D010C942D010C942D0178
:100050000C942D010C942D010C942D010C94EC04A6
:100060000C942D010C9460050C9436050C942D0114
:100070000C942D010C942D010C942D010C942D0148
:100080000C942D010C942D010C942D010C942D0138
:100090000C942D010C942D010C942D010C942D0128
:1000A0000C942D010C942D010C942D010C942D0118
:1000B0000C942D010C942D010C942D010C942D0108
:1000C0000C942D010C942D010C942D010C942D01F8
:1000D0000C942D010C942D010C942D010C942D01E8
:1000E0000C942D01000020002300260029002C0084
:1000F0002F00320000010000030106010901000089
:100100002100240027002A002D00300033000101C7
:100110000000040107010A01000022002500280058
:100120002B002E00310034000201000005010801FF
:100130000B0105050505070508080808020202026B
:100140000A0A080804040404010101010101010173
:100150000303030303030303040707070C0C0C0C3E
:100160000C0C0C0C02020202060606060606060627
:100170000B0B0B0B0B0B0B0B0102102020080810B4
:100180002040102040800201020108040201010207
:1001900004081020408080402010080402018004E0
:1001A000020180402010080402010804020101023B
:1001B0000408102040800102040810204080000044
:1001C0000A0B02090C0D0E080703040100000000D1
:1001D000000000000000000000000000000000001F
:1001E00000000000000000000000121110000000DC
:1001F00000000000000000000000000000000000FF
:1002000000000000DB0511241FBECFEFD1E2DEBFEE
:10021000CDBF12E0A0E0B2E0E8E7F5E100E00BBFFF
:1002200002C007900D92A232B107D9F722E0A2E2F4
:10023000B2E001C01D92A43DB207E1F711E0C3E0B6
:10024000D1E004C02197FE010E94B10AC230D1075B
:10025000C9F70E941A060C94BA0A0C940000282FC1
:1002600030E0F901E254FE4F9491F901E858FE4F55
:1002700084912E5C3E4FF9012491222309F433C06E
:10028000992301F191509231E8F4E92FF0E0E55B18
:10029000FE4F0C94B10A7C0180015D01740178016C
:1002A0006201830189018D01930197019B01A101E5
:1002B000A5016201A901AF01B301909180009F7770
:1002C00090938000E22FF0E0EE0FFF1FE85EFE4FFC
:1002D000A591B4919FB7F894EC91611148C08095B5
:1002E0008E238C939FBF0895909180009F7DE8CFCF
:1002F00090918000977FE4CF94B59F7794BDE2CF33
:1003000094B59F7DFBCF9091B0009F779093B00004
:10031000D9CF9091B0009F7DF9CF909190009F77B9
:1003200090939000CFCF909190009F7DF9CF9091C6
:100330009000977FF5CF9091A0009F779093A000B9
:10034000C1CF9091A0009F7DF9CF9091A000977FA1
:10035000F5CF909120019F7790932001B3CF90919A
:1003600020019F7DF9CF90912001977FF5CF8E2BB3
:10037000B8CFCF93DF9390E0FC01E858FE4F249173
:100380008E5C9E4FFC0184918823D1F090E0880F11
:10039000991FFC01E250FF4FA591B491FC01E85E6A
:1003A000FE4FC591D49161110EC09FB7F8948C9106
:1003B000E22FE0958E238C932881E223E8839FBF70
:1003C000DF91CF9108958FB7F894EC91E22BEC93E5
:1003D0008FBFF6CF1F93CF93DF93182FEB0161E010
:1003E0000E94B901209739F460E0812FDF91CF910D
:1003F0001F910C942F01CF3FD10511F461E0F5CF8F
:10040000E12FF0E0E254FE4FE491E150E23108F0D8
:10041000B1C0F0E0E25FFD4F0C94B10A2002280267
:100420002D0237024102BA024B0253025B026502FF
:100430006F02790288029202BA029C02A602B002FE
:1004400084B5806884BDC7BDDF91CF911F910895A9
:1004500084B5806284BDC8BDF7CF8091800080687C
:1004600080938000D0938900C0938800EDCF809165
:100470008000806280938000D0938B00C0938A00BC
:10048000E3CF80918000886080938000D0938D00BE
:10049000C0938C00D9CF8091B00080688093B00069
:1004A000C093B300D1CF8091B00080628093B00040
:1004B000C093B400C9CF8091900080688093900071
:1004C000D0939900C0939800BFCF80919000806234
:1004D00080939000D0939B00C0939A00B5CF8091F9
:1004E0009000886080939000D0939D00C0939C0002
:1004F000ABCF8091A00080688093A0008091A00085
:100500008F7B8093A000D093A900C093A8009CCFBC
:100510008091A00080628093A000D093AB00C09334
:10052000AA0092CF8091A00088608093A000D09311
:10053000AD00C093AC0088CF80912001806880938B
:100540002001D0932901C09328017ECF8091200102
:10055000806280932001D0932B01C0932A0174CF35
:1005600080912001886080932001D0932D01C09359
:100570002C016ACFC038D1050CF040CF35CF3FB742
:10058000F89480912F0290913002A0913102B091A5
:10059000320226B5A89B05C02F3F19F00196A11D78
:1005A000B11D3FBFBA2FA92F982F8827BC01CD01BD
:1005B000620F711D811D911D42E0660F771F881F1C
:1005C000991F4A95D1F70895AF92BF92CF92DF92CB
:1005D000EF92FF920F931F93CF93DF936C017B01F8
:1005E0008B01040F151FEB015E01AE18BF08C01789
:1005F000D10759F06991D601ED91FC910190F081FC
:10060000E02DC6010995892B79F7C501DF91CF91BE
:100610001F910F91FF90EF90DF90CF90BF90AF9020
:100620000895FC01538D448D252F30E0842F90E0F8
:10063000821B930B541710F0CF96089501970895DD
:10064000FC01918D828D981761F0A28DAE0FBF2FA6
:10065000B11D5D968C91928D9F5F9F73928F90E0FC
:1006600008958FEF9FEF0895FC01918D828D98176B
:1006700031F0828DE80FF11D858D90E008958FEFA8
:100680009FEF0895FC01918D228D892F90E0805C71
:100690009F4F821B91098F739927089583E392E0FE
:1006A0000E94420321E0892B09F420E0822F089563
:1006B000FC01A48DA80FB92FB11DA35ABF4F2C91D7
:1006C000848D90E001968F739927848FA689B789CE
:1006D0002C93A089B1898C91837080648C93938DC5
:1006E000848D981306C00288F389E02D80818F7D68
:1006F00080830895EF92FF920F931F93CF93DF9320
:10070000EC0181E0888F9B8D8C8D98131AC0E8894D
:10071000F989808185FF15C09FB7F894EE89FF891C
:100720006083E889F98980818370806480839FBFBA
:1007300081E090E0DF91CF911F910F91FF90EF90BA
:100740000895F62E0B8D10E00F5F1F4F0F731127CA
:10075000E02E8C8D8E110CC00FB607FCFACFE88905
:10076000F989808185FFF5CFCE010E945803F1CF32
:10077000EB8DEC0FFD2FF11DE35AFF4FF0829FB779
:10078000F8940B8FEA89FB8980818062CFCFCF9369
:10079000DF93EC01888D8823B9F0AA89BB89E889A9
:1007A000F9898C9185FD03C0808186FD0DC00FB64F
:1007B00007FCF7CF8C9185FFF2CF808185FFEDCFCD
:1007C000CE010E945803E9CFDF91CF91089580E0D8
:1007D00090E0892B29F00E944E0381110E940000B5
:1007E00080E090E0892B49F080E090E0892B29F0AF
:1007F0000E94000081110E94000080E090E0892B9F
:1008000049F080E090E0892B29F00E9400008111DE
:100810000E94000080E090E0892B49F080E090E0A9
:10082000892B29F00E94000081110C94000008958A
:10083000FC0101900020E9F73197AF01481B590BEB
:10084000BC0183E392E00C94E4028F929F92AF92FA
:10085000BF920F931F93CF93DF93CDB7DEB7A197CE
:100860000FB6F894DEBF0FBECDBF19A2423008F418
:100870004AE08E010F5D1F4F842E912CB12CA12CCC
:10088000A50194010E948F0AE62FB901CA01EA303E
:10089000F4F4E05DD801EE938D01232B242B252B5E
:1008A00079F790E080E0109719F0CD010E941804CC
:1008B000A1960FB6F894DEBF0FBECDBFDF91CF91EA
:1008C0001F910F91BF90AF909F908F900895E95C1A
:1008D000E1CFCF92DF92EF92FF920F931F9360E0F0
:1008E00082E00E942F0183E090E00197F1F761E040
:1008F00082E00E942F0183E290E00197F1F760E02F
:1009000082E00E942F01E4E8F1E06491EEE3F1E07F
:10091000E491F0E0EE0FFF1FEC51FF4F85919491B1
:1009200008E813E120E030E0462F0E9496056115AB
:1009300071058105910529F06F5F7F4F8F4F9F4FA4
:100940009F700E9468092DEC3CEC48EE51E40E9437
:10095000BE0820E030E040E05FE30E941D0A6B012A
:100960007C0120E030E0A9010E94B908811123C078
:1009700020E030E0A9016091220270912302809171
:100980002402909125020E94B90881110CC080E0D8
:1009900090E0A0EAB1E48093220290932302A09316
:1009A0002402B0932502C0902202D0902302E0904E
:1009B0002402F0902502C0922202D0922302E092FB
:1009C0002402F0922502C701B6011F910F91FF90FA
:1009D000EF90DF90CF9008951F920F920FB60F9275
:1009E00011242F933F938F939F93AF93BF93809145
:1009F0002B0290912C02A0912D02B0912E023091E9
:100A00002A0223E0230F2D3758F50196A11DB11DB1
:100A100020932A0280932B0290932C02A0932D0204
:100A2000B0932E0280912F0290913002A09131025A
:100A3000B09132020196A11DB11D80932F029093B7
:100A40003002A0933102B0933202BF91AF919F91D7
:100A50008F913F912F910F900FBE0F901F9018957F
:100A600026E8230F0296A11DB11DD2CF1F920F922F
:100A70000FB60F9211240BB60F922F933F934F9303
:100A80005F936F937F938F939F93AF93BF93EF93F6
:100A9000FF9383E392E00E945803FF91EF91BF918F
:100AA000AF919F918F917F916F915F914F913F9106
:100AB0002F910F900BBE0F900FBE0F901F901895A7
:100AC0001F920F920FB60F9211240BB60F922F9315
:100AD0008F939F93EF93FF93E0914302F091440231
:100AE0008081E0914902F0914A0282FD1DC090810F
:100AF00080914C028F5F8F7320914D02821741F0DD
:100B0000E0914C02F0E0ED5CFD4F958F80934C023C
:100B1000FF91EF919F918F912F910F900BBE0F90AE
:100B20000FBE0F901F9018958081F2CFCF92DF9269
:100B3000EF92FF920F931F93E82FF92F05C00150FA
:100B400011092109310961F1908196239417B9F3B4
:100B500005C0015011092109310911F19081962335
:100B60009413F7CFC12CD12CE12CF12C0AC08FEFBC
:100B7000C81AD80AE80AF80A0C151D052E053F0503
:100B800079F080818623841791F36C2D7D2D8E2D35
:100B90009F2D1F910F91FF90EF90DF90CF900895C0
:100BA00060E070E080E090E01F910F91FF90EF9087
:100BB000DF90CF900895E3E3F2E01382128288EE93
:100BC00093E0A0E0B0E084839583A683B78384E0BC
:100BD00092E09183808385EC90E09587848784EC14
:100BE00090E09787868780EC90E0918B808B81ECFA
:100BF00090E0938B828B82EC90E0958B848B86ECDB
:100C000090E0978B868B118E128E138E148E0E941D
:100C100069049B01AC0160E070E080EA91E40E940D
:100C20004C086093D0027093D1028093D2029093CB
:100C3000D3020895CF93DF9300D000D0CDB7DEB7B5
:100C4000789484B5826084BD84B5816084BD85B5A7
:100C5000826085BD85B5816085BD80916E008160B3
:100C600080936E0010928100809181008260809359
:100C7000810080918100816080938100809180005B
:100C80008160809380008091B10084608093B10086
:100C90008091B00081608093B0008091910082606B
:100CA0008093910080919100816080939100809168
:100CB00090008160809390008091A1008260809379
:100CC000A1008091A10081608093A1008091A0008B
:100CD00081608093A0008091210182608093210136
:100CE00080912101816080932101809120018160A8
:100CF0008093200180917A00846080937A008091B3
:100D00007A00826080937A0080917A00816080937B
:100D10007A0080917A00806880937A001092C100F6
:100D200061E088E00E94B90161E087E00E94B901BA
:100D300061E082E00E94B90160E08CE00E94B901AC
:100D4000E0914302F091440282E08083E0913F020F
:100D5000F09140021082E0914102F09142028FEC4A
:100D6000808310924B02E0914702F091480286E0A6
:100D70008083E0914502F09146028081806180830A
:100D8000E0914502F0914602808188608083E09185
:100D90004502F0914602808180688083E09145029F
:100DA000F091460280818F7D80830E9469049B01BF
:100DB000AC0160E070E080EA91E40E944C086B01B5
:100DC0007C010E9469044B015C01AC019B010E9403
:100DD0008A0A882309F484C082E192E00E94180400
:100DE0008EE192E00E9418042AE037ED43E25CE3D2
:100DF000C701B6010E941D0A2091260230912702E8
:100E000040912802509129020E944D084B015C013B
:100E10008092260290922702A0922802B092290284
:100E20002091D0023091D1024091D2025091D30250
:100E3000C701B6010E944C0820E030E040E450E4D5
:100E40000E941D0A2AE037ED43E25CE30E94BE08DF
:100E500069837A838B839C8320E030E048EC52E402
:100E6000C701B6010E941D0A2B013C01A501940196
:100E7000C501B4010E944D089B01AC01C301B20140
:100E80000E944D089B01AC0169817A818B819C8114
:100E90000E944D080E9430099B012A5B3F4F3A8314
:100EA00029832F3F310511F00CF0ACC021308FEFBA
:100EB00038070CF4ECC0121613060CF4A7C061E05E
:100EC00088E00E942F0161E087E00E942F012981C4
:100ED0003A813195219531093A832983B901A0C01E
:100EE00024013501E89477F82FEF3FEF4FE75FE7F4
:100EF000C301B2010E948A0A81110DC02FEF3FEF9A
:100F00004FE75FE7C301B2010E94B90818161CF44D
:100F100086E192E063CF2FEF3FEF4FE75FE4C5013B
:100F2000B4010E94180A18161CF48AE192E056CF08
:100F30002FEF3FEF4FE75FECC501B4010E94B90806
:100F400087FDF3CF20E030E0A901C501B4010E9484
:100F5000B90887FF09C06DE283E392E00E947A033B
:100F6000B7FAB094B7F8B0942AE037ED43EA5BE300
:100F7000C501B4010E944D082B013C010E943709B4
:100F80004B015C010E9466099B01AC01C301B201E7
:100F90000E944C082B013C014AE0C501B4010E94AB
:100FA00025046EE283E392E00E947A0320E030E0C1
:100FB00040E251E4C301B2010E941D0A2B013C0131
:100FC0000E9437094B01B12CA12C4AE0C501B401A4
:100FD0000E942504C501B4010E9466099B01AC0171
:100FE000C301B2010E944C0820E030E040E251E42D
:100FF0000E941D0A0E94370990E080E04AE00E94AA
:101000002504EECE2FEF30E03A83298360E088E0BC
:101010000E942F0160E087E00E942F0169817A81A0
:1010200083E00E94EA0169817A8186E00E94EA01F8
:10103000C092D002D092D102E092D202F092D302BA
:101040000E94BF024B015C018AE0C82ED12CE12C2A
:10105000F12C0E94BF02681979098A099B09683E30
:10106000734081059105A8F331E0C31AD108E10866
:10107000F10888EE880E83E0981EA11CB11CC114F3
:10108000D104E104F10429F70E94E7038ECE81E048
:101090009FEF9A83898313CF5058BB27AA270E94BA
:1010A00064080C94DE090E94D00938F00E94D70928
:1010B00020F039F49F3F19F426F40C94CD090EF476
:1010C000E095E7FB0C94C709E92F0E94EF0958F35C
:1010D000BA17620773078407950720F079F4A6F51D
:1010E0000C94110A0EF4E0950B2EBA2FA02D0B01D3
:1010F000B90190010C01CA01A0011124FF27591B5D
:1011000099F0593F50F4503E68F11A16F040A22F62
:10111000232F342F4427585FF3CF469537952795D3
:10112000A795F0405395C9F77EF41F16BA0B620BD2
:10113000730B840BBAF09150A1F0FF0FBB1F661F19
:10114000771F881FC2F70EC0BA0F621F731F841F5C
:1011500048F4879577956795B795F7959E3F08F082
:10116000B0CF9395880F08F09927EE0F9795879544
:1011700008950E94A30908F481E008950E94D2080E
:101180000C94DE090E94D70958F00E94D00940F063
:1011900029F45F3F29F00C94C70951110C94120AED
:1011A0000C94CD090E94EF0968F39923B1F35523FC
:1011B00091F3951B550BBB27AA276217730784076A
:1011C00038F09F5F5F4F220F331F441FAA1FA9F300
:1011D00035D00E2E3AF0E0E832D091505040E695EE
:1011E000001CCAF72BD0FE2F29D0660F771F881F4F
:1011F000BB1F261737074807AB07B0E809F0BB0B42
:10120000802DBF01FF2793585F4F3AF09E3F510555
:1012100078F00C94C7090C94120A5F3FE4F3983EEF
:10122000D4F3869577956795B795F7959F5FC9F73E
:10123000880F911D9695879597F90895E1E0660FBF
:10124000771F881FBB1F621773078407BA0720F038
:10125000621B730B840BBA0BEE1F88F7E0950895A1
:101260000E9437096894B1110C94120A08950E94E3
:10127000F70988F09F5798F0B92F9927B751B0F028
:10128000E1F0660F771F881F991F1AF0BA95C9F70A
:1012900014C0B13091F00E94110AB1E008950C948D
:1012A000110A672F782F8827B85F39F0B93FCCF340
:1012B000869577956795B395D9F73EF49095809587
:1012C000709561957F4F8F4F9F4F0895E89409C0A7
:1012D00097FB3EF490958095709561957F4F8F4F69
:1012E0009F4F9923A9F0F92F96E9BB279395F6957F
:1012F000879577956795B795F111F8CFFAF4BB0FFD
:1013000011F460FF1BC06F5F7F4F8F4F9F4F16C060
:10131000882311F096E911C0772321F09EE8872FEA
:10132000762F05C0662371F096E8862F70E060E0A6
:101330002AF09A95660F771F881FDAF7880F96951F
:10134000879597F90895990F0008550FAA0BE0E8C3
:10135000FEEF16161706E807F907C0F01216130677
:10136000E407F50798F0621B730B840B950B39F4B7
:101370000A2661F0232B242B252B21F408950A261D
:1013800009F4A140A6958FEF811D811D089597F95D
:101390009F6780E870E060E008959FEF80EC08951B
:1013A00000240A9416161706180609060895002444
:1013B0000A9412161306140605060895092E0394BE
:1013C000000C11F4882352F0BB0F40F4BF2B11F432
:1013D00060FF04C06F5F7F4F8F4F9F4F089557FD91
:1013E0009058440F551F59F05F3F71F04795880F93
:1013F00097FB991F61F09F3F79F08795089512162A
:1014000013061406551FF2CF4695F1DF08C01616D5
:1014100017061806991FF1CF869571056105089486
:101420000895E894BB2766277727CB0197F908959D
:101430000E94A30908F48FEF08950E94300A0C94CB
:10144000DE090E94D00938F00E94D70920F09523C8
:1014500011F00C94C7090C94CD0911240C94120AB4
:101460000E94EF0970F3959FC1F3950F50E0551F4F
:10147000629FF001729FBB27F00DB11D639FAA27E9
:10148000F00DB11DAA1F649F6627B00DA11D661F38
:10149000829F2227B00DA11D621F739FB00DA11D59
:1014A000621F839FA00D611D221F749F3327A00D13
:1014B000611D231F849F600D211D822F762F6A2FAF
:1014C00011249F5750409AF0F1F088234AF0EE0F14
:1014D000FF1FBB1F661F771F881F91505040A9F741
:1014E0009E3F510580F00C94C7090C94120A5F3F8F
:1014F000E4F3983ED4F3869577956795B795F7957D
:10150000E7959F5FC1F7FE2B880F911D96958795F4
:1015100097F908950E94A309880B990B0895A1E2F9
:101520001A2EAA1BBB1BFD010DC0AA1FBB1FEE1F5D
:10153000FF1FA217B307E407F50720F0A21BB30BA8
:10154000E40BF50B661F771F881F991F1A9469F724
:1015500060957095809590959B01AC01BD01CF0180
:101560000895EE0FFF1F0024001C0BBE0790F6919C
:08157000E02D0994F894FFCF6F
:10157800000000007A03E4021103C70342032003BA
:1015880034036E616E00696E66006F7666000D0A40
:02159800000051
:00000001FF
