:100000000C94E9000C9413010C9413010C9413014B
:100010000C9413010C9413010C9413010C94130110
:100020000C9413010C9413010C9413010C94130100
:100030000C9413010C9413010C9413010C941301F0
:100040000C9413010C9413010C9413010C941301E0
:100050000C9413010C9413010C9413010C94800460
:100060000C9413010C94F4040C94CA040C94130122
:100070000C9413010C9413010C9413010C941301B0
:100080000C9413010C9413010C9413010C941301A0
:100090000C9413010C9413010C9413010C942A0575
:1000A0000C9413010C9413010C9413010C94130180
:1000B0000C9413010C9413010C9413010C94130170
:1000C0000C9413010C9413010C9413010C94130160
:1000D0000C9413010C9413010C9413010C94130150
:1000E0000C94130100002200250028002B002E0094
:1000F0003100340002010000050108010B01050573
:100100000505070508080808020202020A0A08088D
:1001100004040404010101010101010103030303BB
:1001200003030303040707070C0C0C0C0C0C0C0C4A
:100130000202020206060606060606060B0B0B0B5B
:100140000B0B0B0B01021020200808102040102080
:10015000408002010201080402010102040810208B
:100160004080804020100804020180040201804089
:1001700020100804020108040201010204081020F2
:100180004080010204081020408000000A0B020990
:100190000C0D0E0807030401000000000000000021
:1001A000000000000000000000000000000000004F
:1001B000000000000000121110000000000000000C
:1001C000000000000000000000000000000000002F
:1001D0004E0611241FBECFEFD1E2DEBFCDBF12E02D
:1001E000A0E0B2E0E2E7F1E100E00BBF02C007905F
:1001F0000D92AE39B107D9F724E0AEE9B2E001C003
:100200001D92AA30B207E1F710E0C9EED0E004C0B9
:100210002197FE010E94AE08C83ED107C9F70E948F
:1002200087060C94B7080C940000282F30E0F901E1
:10023000E657FE4F9491F901EC5BFE4F84912250FA
:100240003F4FF9012491222309F433C0992301F18E
:1002500091509231E8F4E92FF0E0EF5CFE4F0C94FE
:10026000AE086201660143015A015E01480169015D
:100270006F01730179017D01810187018B014801C3
:100280008F0195019901909180009F779093800054
:10029000E22FF0E0EE0FFF1FEC51FF4FA591B4915C
:1002A0009FB7F894EC91611148C080958E238C9390
:1002B0009FBF0895909180009F7DE8CF909180002E
:1002C000977FE4CF94B59F7794BDE2CF94B59F7D9F
:1002D000FBCF9091B0009F779093B000D9CF9091D1
:1002E000B0009F7DF9CF909190009F779093900000
:1002F000CFCF909190009F7DF9CF90919000977F04
:10030000F5CF9091A0009F779093A000C1CF9091DE
:10031000A0009F7DF9CF9091A000977FF5CF90919D
:1003200020019F7790932001B3CF909120019F7D72
:10033000F9CF90912001977FF5CF8E2BB8CF3FB7A3
:10034000F89480915D0390915E03A0915F03B0915A
:10035000600326B5A89B05C02F3F19F00196A11D8B
:10036000B11D3FBFBA2FA92F982F8827BC01CD01FF
:10037000620F711D811D911D42E0660F771F881F5E
:10038000991F4A95D1F70895AF92BF92CF92DF920D
:10039000EF92FF920F931F93CF93DF936C017B013A
:1003A0008B01040F151FEB015E01AE18BF08C017CB
:1003B000D10759F06991D601ED91FC910190F0813E
:1003C000E02DC6010995892B79F7C501DF91CF9101
:1003D0001F910F91FF90EF90DF90CF90BF90AF9063
:1003E000089508950895FC01538D448D252F30E024
:1003F000842F90E0821B930B541710F0CF96089532
:1004000001970895FC01918D828D981761F0A28D5E
:10041000AE0FBF2FB11D5D968C91928D9F5F9F7324
:10042000928F90E008958FEF9FEF0895FC01918DDA
:10043000828D981731F0828DE80FF11D858D90E047
:1004400008958FEF9FEF0895FC01918D228D892FE4
:1004500090E0805C9F4F821B91098F7399270895CC
:1004600081E693E00E94240221E0892B09F420E038
:10047000822F0895FC01A48DA80FB92FB11DA35A96
:10048000BF4F2C91848D90E001968F739927848FB4
:10049000A689B7892C93A089B1898C9183708064D7
:1004A0008C93938D848D981306C00288F389E02D78
:1004B00080818F7D80830895EF92FF920F931F9329
:1004C000CF93DF93EC0181E0888F9B8D8C8D981307
:1004D0001AC0E889F989808185FF15C09FB7F89413
:1004E000EE89FF896083E889F9898081837080645F
:1004F00080839FBF81E090E0DF91CF911F910F91AA
:10050000FF90EF900895F62E0B8D10E00F5F1F4FB8
:100510000F731127E02E8C8D8E110CC00FB607FCC7
:10052000FACFE889F989808185FFF5CFCE010E9455
:100530003A02F1CFEB8DEC0FFD2FF11DE35AFF4F87
:10054000F0829FB7F8940B8FEA89FB8980818062E3
:10055000CFCFCF93DF93EC01888D8823B9F0AA89A0
:10056000BB89E889F9898C9185FD03C0808186FD6E
:100570000DC00FB607FCF7CF8C9185FFF2CF8081BD
:1005800085FFEDCFCE010E943A02E9CFDF91CF91F6
:10059000089580E090E0892B29F00E9430028111BB
:1005A0000E94000080E090E0892B49F080E090E01C
:1005B000892B29F00E94000081110E94000080E038
:1005C00090E0892B49F080E090E0892B29F00E948F
:1005D000000081110E94000080E090E0892B49F02A
:1005E00080E090E0892B29F00E94000081110C949A
:1005F000000008952091DF02260F3327331F213298
:100600003105ECF420912E03FC0190E080E02430D1
:1006100069F082E00895A091DF022191AC0141547C
:100620005D4FA40FB52FB11D2C930196861798F33B
:100630008091DF02680F6093DF0280E0089581E01F
:10064000089510922E0381E080932D0310920803E9
:1006500061E084E10E94150161E085E10E941501DD
:10066000E9EBF0E080818E7F808380818D7F8083C5
:1006700088E48093B80085E48093BC000895CF930C
:10068000DF9391E09093BE028823B9F0C091B80047
:10069000D091BA008091BC008A7B8093BC0060E05E
:1006A00084E10E94150160E085E10E9415010E942D
:1006B0002103D093BA00C093B800DF91CF91089581
:1006C0000895E091070380910603E81730F4F0E005
:1006D000E256FD4F808190E008958FEF9FEF0895DF
:1006E00090910703809106032FEF3FEF981748F48E
:1006F000E92FF0E0E256FD4F208130E09F5F9093BC
:100700000703C90108958091060390910703891B8F
:10071000990B0895CF92DF92EF92FF920F931F9360
:10072000CF93DF937C01CB018A01209134032223F4
:1007300089F0EB016B01C40ED51ECC15DD0569F007
:100740006991D701ED91FC910190F081E02DC701F5
:100750000995F3CF642F0E94FA02C801DF91CF916F
:100760001F910F91FF90EF90DF90CF900895CF935E
:10077000DF931F92CDB7DEB7698320913403222324
:10078000F9F020915703203258F021E030E0FC01CD
:100790003383228390E080E00F90DF91CF91089522
:1007A00080913503E82FF0E0EA5CFC4F998190835B
:1007B0008F5F809335038093570381E090E0ECCF07
:1007C00061E0CE0101960E94FA02F7CF90E080E04E
:1007D0000895FC0101900020E9F73197AF01481B13
:1007E000590BBC0181E693E00C94C4018F929F9257
:1007F000AF92BF920F931F93CF93DF93CDB7DEB726
:10080000A1970FB6F894DEBF0FBECDBF19A242303C
:1008100008F44AE08E010F5D1F4F842E912CB12CFD
:10082000A12CA50194010E948C08E62FB901CA01F0
:10083000EA30F4F4E05DD801EE938D01232B242BF4
:10084000252B79F790E080E0109719F0CD010E94F8
:10085000E903A1960FB6F894DEBF0FBECDBFDF91BE
:10086000CF911F910F91BF90AF909F908F9008955F
:10087000E95CE1CFCF93DF930E94E903EC0184E2CE
:1008800092E00E94E9038C0F9D1FDF91CF910895A4
:1008900085ED8093BC008091300390913103A0914D
:1008A0003203B09133030796A11DB11D23E0B69525
:1008B000A795979587952A95D1F72091BC0024FD9F
:1008C00003C010922E0308954091300350913103DC
:1008D0006091320370913303452B462B472B69F30C
:1008E0000097A105B10541F025E32A95F1F7000035
:1008F0000197A109B109E1CF80912F030C943F0327
:100900001F920F920FB60F9211242F933F938F9344
:100910009F93AF93BF938091590390915A03A091F5
:100920005B03B0915C033091580323E0230F2D3714
:1009300058F50196A11DB11D2093580380935903CA
:1009400090935A03A0935B03B0935C0380915D0383
:1009500090915E03A0915F03B09160030196A11D89
:10096000B11D80935D0390935E03A0935F03B093EA
:100970006003BF91AF919F918F913F912F910F9005
:100980000FBE0F901F90189526E8230F0296A11D09
:10099000B11DD2CF1F920F920FB60F9211240BB63A
:1009A0000F922F933F934F935F936F937F938F9308
:1009B0009F93AF93BF93EF93FF9381E693E00E94E1
:1009C0003A02FF91EF91BF91AF919F918F917F91EB
:1009D0006F915F914F913F912F910F900BBE0F90B0
:1009E0000FBE0F901F9018951F920F920FB60F9287
:1009F00011240BB60F922F938F939F93EF93FF9336
:100A0000E0917103F09172038081E0917703F0919E
:100A1000780382FD1DC0908180917A038F5F8F7370
:100A200020917B03821741F0E0917A03F0E0EF59C7
:100A3000FC4F958F80937A03FF91EF919F918F9157
:100A40002F910F900BBE0F900FBE0F901F90189517
:100A50008081F2CF1F920F920FB60F9211240BB626
:100A60000F922F933F934F935F936F937F938F9347
:100A70009F93AF93BF93EF93FF938091B900887FCB
:100A8000803609F44DC008F040C0883209F4A9C08E
:100A900028F5803109F49DC0C8F4882309F4FBC00F
:100AA000883009F496C0FF91EF91BF91AF919F916B
:100AB0008F917F916F915F914F913F912F910F9007
:100AC0000BBE0F900FBE0F901F901895883109F440
:100AD00088C0803241F780932C0314C0803409F41D
:100AE0009DC040F48033B9F38833E9F680932C033A
:100AF00085ECB0C0803509F485C0883509F496C00E
:100B0000883489F60E944804CECF883909F48CC015
:100B100038F5883729F050F4883611F0803719F607
:100B200083E080932E031092010357C0883809F4A4
:100B30007BC0803919F0803809F0B5CF809101036E
:100B4000803208F071C0E091010381E08E0F809344
:100B500001038091BB00F0E0EF51FD4F80833DC069
:100B6000803B39F0E0F4803A09F479C0883A09F022
:100B70009ACF84E080932E031092E0021092DF025D
:100B8000E0910403F091050309958091DF02811142
:100B90000FC081E08093DF021092BF0209C0803C49
:100BA00009F4A6CF883C09F4A3CF883B09F07BCF9A
:100BB000E091E00281E08E0F8093E002F0E0E154EA
:100BC000FD4F80818093BB009091E0028091DF0215
:100BD00029C0809109038093BB0085EC8093BC0001
:100BE00062CF90912B0380912A03981758F5E091DA
:100BF0002B0381E08E0F80932B03F0E0E65FFC4F28
:100C00008081E9CFE0912B0381E08E0F80932B034D
:100C10008091BB00F0E0E65FFC4F808390912B0356
:100C200080912A039817C8F285E8D8CFE0912B036A
:100C300081E08E0F80932B038091BB00F0E0E65F94
:100C4000FC4F808380912D0381115CCF81E08093E4
:100C5000080384EA8093BC0010922E0324CF85EC15
:100C60008093BC0010922E0380910103803230F4F7
:100C7000E0910103F0E0EF51FD4F1082609101031C
:100C800070E0E0910203F091030381EE92E0099598
:100C90001092010308CF10922C0334CFE1E6F3E069
:100CA0001382128288EE93E0A0E0B0E08483958303
:100CB000A683B78324E032E03183208325EC30E043
:100CC0003587248724EC30E03787268720EC30E016
:100CD000318B208B21EC30E0338B228B22EC30E007
:100CE000358B248B26EC30E0378B268B118E128EC1
:100CF000138E148EEEEFF3E01382128284839583B9
:100D0000A683B78386E192E09183808308957894E7
:100D100084B5826084BD84B5816084BD85B5826000
:100D200085BD85B5816085BD80916E0081608093B1
:100D30006E0010928100809181008260809381001A
:100D4000809181008160809381008091800081602A
:100D5000809380008091B10084608093B100809185
:100D6000B00081608093B000809191008260809398
:100D7000910080919100816080939100809190001A
:100D80008160809390008091A10082608093A10097
:100D90008091A10081608093A1008091A00081607A
:100DA0008093A00080912101826080932101809135
:100DB00021018160809321018091200181608093D5
:100DC000200180917A00846080937A0080917A007B
:100DD000826080937A0080917A00816080937A00AB
:100DE00080917A00806880937A001092C1001092FE
:100DF00007031092060310923503109257030E94C6
:100E0000210381EF91E0909305038093040382EF27
:100E100091E09093030380930203E0917103F091BA
:100E2000720382E08083E0916D03F0916E03108283
:100E3000E0916F03F09170038FEC8083109279033F
:100E4000E0917503F091760386E08083E09173036F
:100E5000F0917403808180618083E0917303F0914D
:100E60007403808188608083E0917303F091740340
:100E7000808180688083E0917303F09174038081A6
:100E80008F7D808387E292E00E943A0401E025EEA4
:100E9000822E35EC932E42E0A42EBB24BA9484E338
:100EA00092E00E943A04C12CD12C7601C394D0E088
:100EB000C0E01C2D00933403C092560310923503FA
:100EC000109257030E949F012B013C0180912E0339
:100ED000811162C0A0922E0300932D03B0922C03C7
:100EE00010922B0310922A03109209039091090388
:100EF000812F880F892B809309038091080381300B
:100F000009F0C8C0109208030E949F012B013C0108
:100F1000809109038093BB0080913003909131034D
:100F2000A0913203B0913303892B8A2B8B2BA1F034
:100F30000E949F0120913003309131034091320390
:100F400050913303641975098609970926173707E5
:100F50004807590708F441C08091BC0083FDD8CFF1
:100F60009092BC000E949F012B013C0180912E03B6
:100F7000823009F492C080912C038F3F09F4AFC0F6
:100F800080912C03803209F4ACC080912C03803313
:100F900009F4A9C084E026C0809130039091310308
:100FA000A0913203B0913303892B8A2B8B2B09F448
:100FB0008DCF0E949F0120913003309131034091E9
:100FC000320350913303641975098609970926176E
:100FD00037074807590708F079CF80912F030E94FF
:100FE0003F0385E0109235031092570310923403AB
:100FF00081117BC080E492E00E94E903103120F46B
:101000008FE592E00E94E90340E1C701B6010E942A
:10101000F60381E692E00E943A0421962FEFC21A6D
:10102000D20AE20AF20A8FE7C816D104E104F104F9
:1010300009F03FCF81E892E0CD2B11F087E992E0F3
:101040000E943A040E949F016B017C0188E8482EAF
:1010500083E1582E612C712C0E949F016C197D092F
:101060008E099F09683E734081059105A8F321E030
:10107000421A51086108710888EEC80E83E0D81E34
:10108000E11CF11C411451046104710429F70E9410
:10109000C90205CF8092BC0065CF8091300390914A
:1010A0003103A0913203B0913303892B8A2B8B2B10
:1010B00009F45CCF0E949F012091300330913103ED
:1010C00040913203509133036419750986099709D9
:1010D000261737074807590708F048CF7ECF80E02A
:1010E00081CF82E07FCF83E07DCF843009F096CF3F
:1010F00085E692E00E94E903103120F48FE592E04A
:101100000E94E90340E1C701B6010E94F60384E2B0
:1011100092E00E94E90382CFA1E21A2EAA1BBB1B18
:10112000FD010DC0AA1FBB1FEE1FFF1FA217B307B3
:10113000E407F50720F0A21BB30BE40BF50B661FC9
:10114000771F881F991F1A9469F76095709580958D
:1011500090959B01AC01BD01CF010895EE0FFF1FDB
:101160000024001C0BBE0790F691E02D0994F89422
:02117000FFCFAF
:10117200000000005C02C401F301A9022402020281
:10118200160200000000B7038A03E603600383032C
:10119200700361030D0A000A493243205363616EF2
:1011A2006E6572005363616E6E696E672E2E2E003D
:1011B2004932432064657669636520666F756E64A3
:1011C200206174206164647265737320307800302A
:1011D2000020202100556E6B6E6F776E2065727253
:1011E2006F72206174206164647265737320307859
:1011F200004E6F204932432064657669636573202F
:0E120200666F756E640A00646F6E650A000008
:00000001FF
