:100000000C9458000C9480000C9480000C94800098
:100010000C9480000C9480000C9480000C94800060
:100020000C9480000C9480000C9480000C94800050
:100030000C9480000C9480000C9480000C94800040
:100040000C9488030C9480000C94F8030C94D20355
:100050000C9480000C9480000C9480000C94800020
:100060000C942A040C948000000000002500280055
:100070002B00040404040404040402020202020229
:10008000030303030303010204081020408001025C
:1000900004081020010204081020000000080002DB
:1000A00001000003040700000000000000004905F3
:1000B00011241FBECFEFD8E0DEBFCDBF11E0A0E01E
:1000C000B1E0E2E2FFE002C005900D92AE39B10767
:1000D000D9F723E0AEE9B1E001C01D92AA30B20722
:1000E000E1F710E0C8E5D0E004C02197FE010E94CE
:1000F0008907C735D107C9F70E9482050C948F077D
:100100000C94000090E0FC01E656FF4F2491FC01A6
:10011000EA57FF4F3491FC01EE58FF4FE491EE2374
:10012000C9F0222339F0233001F1A8F4213019F16C
:10013000223029F1F0E0EE0FFF1FE859FF4FA591A3
:10014000B4918FB7F894EC91611126C030953E239D
:100150003C938FBF08952730A9F02830C9F0243090
:1001600049F7809180008F7D03C0809180008F7758
:1001700080938000DFCF84B58F7784BDDBCF84B5DB
:100180008F7DFBCF8091B0008F778093B000D2CF6E
:100190008091B0008F7DF9CF3E2BDACF3FB7F89436
:1001A00080915D0290915E02A0915F02B091600229
:1001B00026B5A89B05C02F3F19F00196A11DB11DC2
:1001C0003FBFBA2FA92F982F8827BC01CD01620FFE
:1001D000711D811D911D42E0660F771F881F991FB9
:1001E0004A95D1F70895AF92BF92CF92DF92EF92E6
:1001F000FF920F931F93CF93DF936C017B018B01D1
:10020000040F151FEB015E01AE18BF08C017D10720
:1002100059F06991D601ED91FC910190F081E02DAA
:10022000C6010995892B79F7C501DF91CF911F91FF
:100230000F91FF90EF90DF90CF90BF90AF90089517
:1002400008950895FC01538D448D252F30E0842FAF
:1002500090E0821B930B541710F0CF9608950197EE
:100260000895FC01918D828D981761F0A28DAE0FDB
:10027000BF2FB11D5D968C91928D9F5F9F73928F62
:1002800090E008958FEF9FEF0895FC01918D828D8E
:10029000981731F0828DE80FF11D858D90E008955B
:1002A0008FEF9FEF0895FC01918D228D892F90E0B3
:1002B000805C9F4F821B91098F739927089581E677
:1002C00092E00E94530121E0892B09F420E0822F63
:1002D000089580E090E0892B29F00E945F01811150
:1002E0000C9400000895FC01A48DA80FB92FB11D36
:1002F000A35ABF4F2C91848D90E001968F7399275C
:10030000848FA689B7892C93A089B1898C91837039
:1003100080648C93938D848D981306C00288F38932
:10032000E02D80818F7D80830895EF92FF920F935F
:100330001F93CF93DF93EC0181E0888F9B8D8C8D91
:1003400098131AC0E889F989808185FF15C09FB785
:10035000F894EE89FF896083E889F9898081837048
:10036000806480839FBF81E090E0DF91CF911F91F7
:100370000F91FF90EF900895F62E0B8D10E00F5F18
:100380001F4F0F731127E02E8C8D8E110CC00FB6EE
:1003900007FCFACFE889F989808185FFF5CFCE0186
:1003A0000E947301F1CFEB8DEC0FFD2FF11DE35A8D
:1003B000FF4FF0829FB7F8940B8FEA89FB89808109
:1003C0008062CFCFCF93DF93EC01888D8823B9F083
:1003D000AA89BB89E889F9898C9185FD03C0808150
:1003E00086FD0DC00FB607FCF7CF8C9185FFF2CFCD
:1003F000808185FFEDCFCE010E947301E9CFDF91AF
:10040000CF9108952091DF01260F3327331F21322A
:100410003105ECF420912E02FC0190E080E02430C4
:1004200069F082E00895A091DF012191AC0141546F
:100430005E4FA40FB52FB11D2C930196861798F32C
:100440008091DF01680F6093DF0180E0089581E013
:10045000089510922E0281E080932D0210920802DE
:1004600061E082E10E94820061E083E10E948200FB
:10047000E9EBF0E080818E7F808380818D7F8083B7
:1004800088E48093B80085E48093BC000895CF93FE
:10049000DF9391E09093BE018823B9F0C091B8003A
:1004A000D091BA008091BC008A7B8093BC0060E050
:1004B00082E10E94820060E083E10E9482000E944B
:1004C0002902D093BA00C093B800DF91CF9108956C
:1004D0000895E091070280910602E81730F4F0E0F9
:1004E000E256FE4F808190E008958FEF9FEF0895D0
:1004F00090910702809106022FEF3FEF981748F482
:10050000E92FF0E0E256FE4F208130E09F5F9093AC
:100510000702C90108958091060290910702891B84
:10052000990B0895CF92DF92EF92FF920F931F9352
:10053000CF93DF937C01CB018A01209134022223E7
:1005400089F0EB016B01C40ED51ECC15DD0569F0F9
:100550006991D701ED91FC910190F081E02DC701E7
:100560000995F3CF642F0E940202C801DF91CF9159
:100570001F910F91FF90EF90DF90CF900895CF9350
:10058000DF931F92CDB7DEB7698320913402222317
:10059000F9F020915702203258F021E030E0FC01C0
:1005A0003383228390E080E00F90DF91CF91089514
:1005B00080913502E82FF0E0EA5CFD4F998190834D
:1005C0008F5F809335028093570281E090E0ECCFFB
:1005D00061E0CE0101960E940202F7CF90E080E038
:1005E0000895FC0101900020E9F73197AF01481B05
:1005F000590BBC0181E692E00C94F3008F929F921C
:10060000AF92BF920F931F93CF93DF93CDB7DEB717
:10061000A1970FB6F894DEBF0FBECDBF19A242302E
:1006200008F44AE08E010F5D1F4F842E912CB12CEF
:10063000A12CA50194010E946707E62FB901CA0108
:10064000EA30F4F4E05DD801EE938D01232B242BE6
:10065000252B79F790E080E0109719F0CD010E94EA
:10066000F102A1960FB6F894DEBF0FBECDBFDF91A9
:10067000CF911F910F91BF90AF909F908F90089551
:10068000E95CE1CFCF93DF930E94F102EC0184E2B9
:1006900091E00E94F1028C0F9D1FDF91CF91089590
:1006A00085ED8093BC008091300290913102A09141
:1006B0003202B09133020796A11DB11D23E0B69519
:1006C000A795979587952A95D1F72091BC0024FD91
:1006D00003C010922E0208954091300250913102D1
:1006E0006091320270913302452B462B472B69F300
:1006F0000097A105B10541F025E32A95F1F7000027
:100700000197A109B109E1CF80912F020C94470212
:100710001F920F920FB60F9211242F933F938F9336
:100720009F93AF93BF938091590290915A02A091E9
:100730005B02B0915C023091580223E0230F2D3709
:1007400058F50196A11DB11D2093580280935902BE
:1007500090935A02A0935B02B0935C0280915D0279
:1007600090915E02A0915F02B09160020196A11D7E
:10077000B11D80935D0290935E02A0935F02B093DF
:100780006002BF91AF919F918F913F912F910F90F8
:100790000FBE0F901F90189526E8230F0296A11DFB
:1007A000B11DD2CF1F920F920FB60F9211242F932B
:1007B0003F934F935F936F937F938F939F93AF93E9
:1007C000BF93EF93FF9381E692E00E947301FF9144
:1007D000EF91BF91AF919F918F917F916F915F91B9
:1007E0004F913F912F910F900FBE0F901F90189532
:1007F0001F920F920FB60F9211242F938F939F93F6
:10080000EF93FF93E0917102F09172028081E09189
:100810007702F091780282FD1BC0908180917A026C
:100820008F5F8F7320917B02821741F0E0917A02F3
:10083000F0E0EF59FD4F958F80937A02FF91EF9191
:100840009F918F912F910F900FBE0F901F90189531
:100850008081F4CF1F920F920FB60F9211242F9325
:100860003F934F935F936F937F938F939F93AF9338
:10087000BF93EF93FF938091B900887F803609F48E
:100880004AC0F0F5883209F4A7C018F5803109F4A0
:100890009BC0B8F4882309F4F9C0883009F494C0E7
:1008A000FF91EF91BF91AF919F918F917F916F9148
:1008B0005F914F913F912F910F900FBE0F901F901E
:1008C0001895883109F488C0803251F780932C0242
:1008D00014C0803409F49DC040F48033B9F38833E8
:1008E000F9F680932C0285ECB0C0803509F485C000
:1008F000883509F496C0883499F60E945003D0CF09
:10090000883909F48CC038F5883729F050F48836D6
:1009100011F0803729F683E080932E0210920102B5
:1009200057C0883809F47BC0803919F0803809F045
:10093000B7CF80910102803208F071C0E0910102CE
:1009400081E08E0F809301028091BB00F0E0EF51B7
:10095000FE4F80833DC0803B39F0E0F4803A09F4DB
:1009600079C0883A09F09CCF84E080932E021092DF
:10097000E0011092DF01E0910402F0910502099577
:100980008091DF0181110FC081E08093DF0110921F
:10099000BF0109C0803C09F4A6CF883C09F4A3CF6D
:1009A000883B09F07DCFE091E00181E08E0F8093DC
:1009B000E001F0E0E154FE4F80818093BB00909114
:1009C000E0018091DF0129C0809109028093BB0082
:1009D00085EC8093BC0064CF90912B0280912A0219
:1009E000981758F5E0912B0281E08E0F80932B022F
:1009F000F0E0E65FFD4F8081E9CFE0912B0281E0DE
:100A00008E0F80932B028091BB00F0E0E65FFD4FDC
:100A1000808390912B0280912A029817C8F285E872
:100A2000D8CFE0912B0281E08E0F80932B02809132
:100A3000BB00F0E0E65FFD4F808380912D028111C5
:100A40005CCF81E08093080284EA8093BC0010921E
:100A50002E0226CF85EC8093BC0010922E0280914E
:100A60000102803230F4E0910102F0E0EF51FE4FDC
:100A700010826091010270E0E0910202F0910302A5
:100A800081EE91E00995109201020ACF10922C029A
:100A900034CFE1E6F2E01382128288EE93E0A0E028
:100AA000B0E084839583A683B78324E031E031836B
:100AB000208325EC30E03587248724EC30E037872D
:100AC000268720EC30E0318B208B21EC30E0338B1B
:100AD000228B22EC30E0358B248B26EC30E0378BF8
:100AE000268B118E128E138E148EEEEFF2E013828F
:100AF000128284839583A683B78386E191E09183F4
:100B000080830895789484B5826084BD84B58160C3
:100B100084BD85B5826085BD85B5816085BD8091C8
:100B20006E00816080936E00109281008091810040
:100B30008260809381008091810081608093810038
:100B4000809180008160809380008091B1008460FA
:100B50008093B1008091B00081608093B00080915B
:100B60007A00846080937A0080917A00826080931A
:100B70007A0080917A00816080937A0080917A0077
:100B8000806880937A001092C10010920702109240
:100B9000060210923502109257020E94290280E24A
:100BA00091E0909305028093040281E291E090939A
:100BB000030280930202E0917102F091720282E0DE
:100BC0008083E0916D02F0916E021082E0916F02DD
:100BD000F09170028FEC808310927902E09175029F
:100BE000F091760286E08083E0917302F0917402C6
:100BF000808180618083E0917302F0917402808132
:100C000088608083E0917302F09174028081806833
:100C10008083E0917302F091740280818F7D8083E4
:100C200087E291E00E94420325EE222E35EC332E1E
:100C300040E0A42E40E0B42E52E0852E99249A94F0
:100C400084E391E00E944203C12CD12C7601C3942D
:100C5000D0E0C0E001E01C2D00933402C0925602A7
:100C600010923502109257020E94CE002B013C01D7
:100C700080912E02811162C080922E0200932D027B
:100C800090922C0210922B0210922A0210920902CA
:100C900090910902812F880F892B809309028091FE
:100CA0000802813009F0D1C0109208020E94CE00E3
:100CB0002B013C01809109028093BB00809130029E
:100CC00090913102A0913202B0913302892B8A2B8C
:100CD0008B2BA1F00E94CE00209130023091310286
:100CE00040913202509133026419750986099709BF
:100CF000261737074807590708F441C08091BC0000
:100D000083FDD8CF3092BC000E94CE002B013C0165
:100D100080912E02823009F49BC080912C028F3F7B
:100D200009F4B8C080912C02803209F4B5C08091DA
:100D30002C02803309F4B2C084E026C080913002D6
:100D400090913102A0913202B0913302892B8A2B0B
:100D50008B2B09F48DCF0E94CE0020913002309170
:100D600031024091320250913302641975098609AB
:100D70009709261737074807590708F079CF809158
:100D80002F020E94470285E010923502109257020E
:100D900010923402811184C080E491E00E94F1023B
:100DA000103120F48FE591E00E94F10240E1C7018B
:100DB000B6010E94FE0281E691E00E944203219664
:100DC0002FEFC21AD20AE20AF20A8FE7C816D1043C
:100DD000E104F10409F03FCF81E891E0CD2B11F05F
:100DE00087E991E00E9442030E94CE002B013C0162
:100DF00088E8C82E83E1D82EE12CF12C0E94CE0089
:100E00006419750986099709683E73408105910543
:100E1000A8F321E0C21AD108E108F10888EE480ED3
:100E200083E0581E611C711CC114D104E104F1045B
:100E300029F7A114B10409F403CF0E945F018823AC
:100E400009F4FECE0E940000FBCE2092BC005CCFD5
:100E50008091300290913102A0913202B091330220
:100E6000892B8A2B8B2B09F453CF0E94CE00209123
:100E700030023091310240913202509133026419B4
:100E8000750986099709261737074807590708F093
:100E90003FCF75CF80E078CF82E076CF83E074CF0C
:100EA000843009F08DCF85E691E00E94F102103187
:100EB00020F48FE591E00E94F10240E1C701B60104
:100EC0000E94FE0284E291E00E94F10279CFA1E249
:100ED0001A2EAA1BBB1BFD010DC0AA1FBB1FEE1FB4
:100EE000FF1FA217B307E407F50720F0A21BB30BFF
:100EF000E40BF50B661F771F881F991F1A9469F77B
:100F000060957095809590959B01AC01BD01CF01D6
:100F10000895EE0FFF1F0590F491E02D0994F894C9
:020F2000FFCF01
:100F2200000000009501F3002201E20153013101AA
:100F3200450100000000BF029202EE0268028B022D
:100F4200780269020D0A000A493243205363616E36
:100F52006E6572005363616E6E696E672E2E2E008F
:100F62004932432064657669636520666F756E64F5
:100F7200206174206164647265737320307800307C
:100F82000020202100556E6B6E6F776E20657272A5
:100F92006F722061742061646472657373203078AB
:100FA200004E6F2049324320646576696365732081
:0E0FB200666F756E640A00646F6E650A00005B
:00000001FF
