:100000000C9462000C94AC050C9485050C948A0049
:100010000C948A000C948A000C948A000C948A0038
:100020000C948A000C948A000C948A000C948A0028
:100030000C948A000C948A000C948A000C948A0018
:100040000C943B050C948A000C948A000C948A0052
:100050000C948A000C948A000C948A000C948A00F8
:100060000C94D3050C948A000000000023002600A5
:10007000290000000000240027002A0000000000E2
:10008000250028002B0004040404040404040202D4
:100090000202020203030303030301020408102007
:1000A0004080010204081020010204081020000012
:1000B0000008000201000003040700000000000027
:1000C0000000F20611241FBECFEFD8E0DEBFCDBF87
:1000D00011E0A0E0B1E0E0E3F6E102C005900D928E
:1000E000AC32B107D9F722E0ACE2B1E001C01D9219
:1000F000A531B207E1F710E0C2E6D0E004C02197D5
:10010000FE010E94100BC136D107C9F70E941407E7
:100110000C94160B0C940000833081F028F481308D
:1001200099F08230A9F008958730A9F08830C9F09D
:100130008430B1F4809180008F7D03C08091800075
:100140008F7780938000089584B58F7784BD08955C
:1001500084B58F7DFBCF8091B0008F778093B00006
:1001600008958091B0008F7DF9CF1F93CF93DF93D7
:10017000282F30E0F901E255FF4F8491F901E6564E
:10018000FF4FD491F901EA57FF4FC491CC23A9F056
:10019000162F81110E948C00EC2FF0E0EE0FFF1F54
:1001A000E458FF4FA591B4918FB7F894EC911111D9
:1001B00008C0D095DE23DC938FBFDF91CF911F91D4
:1001C0000895DE2BF8CFCF93DF9390E0FC01E65645
:1001D000FF4F24918A579F4FFC0184918823D1F0CF
:1001E00090E0880F991FFC01EE58FF4FA591B49144
:1001F000FC01E458FF4FC591D49161110EC09FB727
:10020000F8948C91E22FE0958E238C932881E22341
:10021000E8839FBFDF91CF9108958FB7F894EC9159
:10022000E22BEC938FBFF6CFE82FF0E0E255FF4FC3
:10023000E491E33029F150F4E130C1F0E230D9F03B
:1002400060387105BCF560E00C94B500E73011F141
:10025000E83041F1E430A1F7809180008062809322
:10026000800070938B0060938A00089584B5806845
:1002700084BD67BD089584B5806284BD68BD08955E
:1002800080918000806880938000709389006093E3
:10029000880008958091B00080688093B0006093DA
:1002A000B30008958091B00080628093B0006093A5
:1002B000B400089561E0C8CF0F931F93CF93C82F68
:1002C0008B0161E00E94E30060E00115110521F05F
:1002D0000F3F110539F461E08C2FCF911F910F91E1
:1002E0000C94B500B8018C2FCF911F910F910C94F5
:1002F00014013FB7F8948091F9019091FA01A0910F
:10030000FB01B091FC0126B5A89B05C02F3F19F059
:100310000196A11DB11D3FBFBA2FA92F982F882785
:10032000BC01CD01620F711D811D911D42E0660F60
:10033000771F881F991F4A95D1F708958F929F9232
:10034000AF92BF92CF92DF92EF92FF924B015C018E
:100350000E9479016B017C010E9479016C197D0971
:100360008E099F09683E734081059105A8F321E03D
:10037000821A9108A108B10888EEC80E83E0D81E41
:10038000E11CF11C81149104A104B10429F7FF9030
:10039000EF90DF90CF90BF90AF909F908F90089597
:1003A0000895AF92BF92CF92DF92EF92FF920F9398
:1003B0001F93CF93DF936C017B018B01040F151FFB
:1003C000EB015E01AE18BF08C017D10759F0699163
:1003D000D601ED91FC910190F081E02DC6010995C7
:1003E000892B79F7C501DF91CF911F910F91FF9074
:1003F000EF90DF90CF90BF90AF90089581E090E0B4
:100400002091000130910101232B11F090E080E058
:10041000909301018093000181E090E020912C01F4
:1004200030912D01232B11F090E080E090932D016D
:1004300080932C0108950895089520919601260F28
:100440003327331F21323105ECF42091BA01FC012E
:1004500090E080E0243069F082E00895A091960158
:100460002191AC014A585E4FA40FB52FB11D2C93BA
:100470000196861798F380919601680F6093960114
:1004800080E0089581E008951092BA0181E08093A0
:10049000BC011092BB0161E082E10E94B50061E005
:1004A00083E10E94B500E9EBF0E080818E7F8083DC
:1004B00080818D7F808388E48093B80085E4809379
:1004C000BC000895CF93DF9391E09093750188234A
:1004D000B9F0C091B800D091BA008091BC008A7B7D
:1004E0008093BC0060E082E10E94B50060E083E19F
:1004F0000E94B5000E944402D093BA00C093B80095
:10050000DF91CF9108950895E091E7018091E60190
:10051000E81730F4F0E0E05BFE4F808190E0089552
:100520008FEF9FEF08959091E7018091E6012FEF03
:100530003FEF981748F4E92FF0E0E05BFE4F208191
:1005400030E09F5F9093E701C90108958091E60133
:100550009091E701891B990B0895CF92DF92EF925A
:10056000FF920F931F93CF93DF937C01CB018A01FE
:1005700020914F01222389F0EB016B01C40ED51E9F
:10058000CC15DD0569F06991D701ED91FC910190E1
:10059000F081E02DC7010995F3CF642F0E941D0261
:1005A000C801DF91CF911F910F91FF90EF90DF90E5
:1005B000CF900895CF93DF931F92CDB7DEB76983B5
:1005C00020914F012223F9F02091E401203258F0CC
:1005D00021E030E0FC013383228390E080E00F9043
:1005E000DF91CF9108958091E501E82FF0E0E15D82
:1005F000FE4F998190838F5F8093E5018093E401A2
:1006000081E090E0ECCF61E0CE0101960E941D02F6
:10061000F7CFCF92DF92EF92FF920F931F93CF937A
:10062000DF93FC01C48121E020934F01C0932E0190
:100630001092E5011092E4018385682B8DEF91E023
:100640000E94DA02D091E401D13208F092C00E94F7
:1006500079016B017C018091BA01811165C082E052
:100660008093BA0181E08093BC018FEF8093B90140
:100670001092DE01D093DD01AFE2B1E0EDEBF1E0ED
:1006800080E0D81385C01092DF018091DF01CC0F8C
:10069000C82BC093DF018091BB01813009F07CC081
:1006A0001092BB010E9479016B017C018091DF01F6
:1006B0008093BB008091710190917201A0917301B0
:1006C000B0917401892B8A2B8B2B99F00E947901B0
:1006D00000917101109172012091730130917401A8
:1006E0006C197D098E099F09061717072807390716
:1006F000E0F18091BC0083FDD9CF85EC8093BC00F4
:100700000E9479016B017C018091BA01823009F469
:1007100045C08091B9018F3F61F18091B90180326C
:1007200041F18091B90125C08091710190917201D0
:10073000A0917301B0917401892B8A2B8B2B09F442
:100740008ACF0E947901009171011091720120916C
:100750007301309174016C197D098E099F09061788
:1007600017072807390708F076CF809170010E949B
:1007700062021092E5011092E40110924F01DF91A4
:10078000CF911F910F91FF90EF90DF90CF90089540
:100790009D9191938F5F75CF85EEB0CF8091710160
:1007A00090917201A0917301B0917401892B8A2BF1
:1007B0008B2B09F4A9CF0E9479010091710110914E
:1007C000720120917301309174016C197D098E09B9
:1007D0009F09061717072807390708F095CFC5CFD7
:1007E000089590E080E00895CF93DF93E3EBF0E08D
:1007F0008491EFE9F0E0D491EBE8F0E0C491CC23F0
:1008000021F181110E948C00EC2FF0E0EE0FFF1F10
:10081000E859FF4FA591B491EC91ED23B1F080918F
:10082000F0019091F101A091F201B091F3010196D4
:10083000A11DB11D8093F0019093F101A093F201ED
:10084000B093F301DF91CF9108958091F0019091E1
:10085000F101A091F201B091F3010197A109B10951
:10086000E9CF8F929F92AF92BF920F931F93CF9336
:10087000DF93CDB7DEB7A1970FB6F894DEBF0FBEFA
:10088000CDBF19A2423008F44AE08E010F5D1F4F20
:10089000842E912CB12CA12CA50194010E94EE0A6A
:1008A000E62FB901CA01EA3044F5E05DD801EE93C4
:1008B0008D01232B242B252B79F790E080E01097D6
:1008C00069F0FD0101900020E9F73197AF014A1B63
:1008D0005B0BBD0189E092E00E94D101A1960FB6A9
:1008E000F894DEBF0FBECDBFDF91CF911F910F9166
:1008F000BF90AF909F908F900895E95CD7CF0F93F2
:100900001F93CF938C01C62F0E9409036C2F646044
:10091000C8010E9409036C2F6B7FC8010E94090364
:1009200083EC90E00197F1F7CF911F910F9108951B
:100930000F931F93CF93DF938C01D62FC42F607F2B
:10094000642B0E947F0480E1D89FB00111246C2B9E
:10095000C801DF91CF911F910F910C947F0441E06A
:100960000E94980481E090E00895CF92DF92EF9288
:10097000FF926B017C0141E06DE289E092E00E9410
:10098000980466277727CB016C197D098E099F098A
:100990004AE00E9431040196FF90EF90DF90CF90E3
:1009A0000895CF93DF93CDB7DEB728970FB6F894AD
:1009B000DEBF0FBECDBF98E0E6E0F1E0DE011196AC
:1009C00001900D929A95E1F790911202981710F408
:1009D0008FEF890F90E0880F991F21E030E02C0FF6
:1009E0003D1F820F931FFC016081606840E089E039
:1009F00092E028960FB6F894DEBF0FBECDBFDF9110
:100A0000CF910C94980485ED8093BC008091710186
:100A100090917201A0917301B09174010796A11D8C
:100A2000B11D23E0B695A795979587952A95D1F79F
:100A30002091BC0024FD03C01092BA01089540919A
:100A40007101509172016091730170917401452B95
:100A5000462B472B69F30097A105B10541F025E32B
:100A60002A95F1F700000197A109B109E1CF809122
:100A700070010C9462021F920F920FB60F92112414
:100A80002F933F938F939F93AF93BF938091F501E3
:100A90009091F601A091F701B091F8013091F40125
:100AA00023E0230F2D3758F50196A11DB11D20938A
:100AB000F4018093F5019093F601A093F701B093B0
:100AC000F8018091F9019091FA01A091FB01B09198
:100AD000FC010196A11DB11D8093F9019093FA01CB
:100AE000A093FB01B093FC01BF91AF919F918F91B7
:100AF0003F912F910F900FBE0F901F90189526E8F1
:100B0000230F0296A11DB11DD2CF1F920F920FB6D7
:100B10000F9211242F933F934F935F936F937F9383
:100B20008F939F93AF93BF93EF93FF93E091040153
:100B3000F09105010995FF91EF91BF91AF919F91C0
:100B40008F917F916F915F914F913F912F910F9076
:100B50000FBE0F901F9018951F920F920FB60F9215
:100B600011242F933F934F935F936F937F938F93B2
:100B70009F93AF93BF93EF93FF93E0910201F091A6
:100B800003010995FF91EF91BF91AF919F918F91D3
:100B90007F916F915F914F913F912F910F900FBE79
:100BA0000F901F9018951F920F920FB60F9211245D
:100BB0002F933F934F935F936F937F938F939F9365
:100BC000AF93BF93EF93FF938091B900887F8036F6
:100BD00009F44AC0F0F5883209F4A7C018F580314D
:100BE00009F49BC0B8F4882309F4F9C0883009F4EB
:100BF00094C0FF91EF91BF91AF919F918F917F91A1
:100C00006F915F914F913F912F910F900FBE0F9079
:100C10001F901895883109F488C0803251F780936D
:100C2000B90114C0803409F49DC040F48033B9F395
:100C30008833F9F68093B90185ECB0C0803509F4AA
:100C400085C0883509F496C0883499F60E9403055A
:100C5000D0CF883909F48CC038F5883729F050F4A2
:100C6000883611F0803729F683E08093BA0110921C
:100C7000B80157C0883809F47BC0803919F0803832
:100C800009F0B7CF8091B801803208F071C0E091CF
:100C9000B80181E08E0F8093B8018091BB00F0E035
:100CA000E856FE4F80833DC0803B39F0E0F4803A47
:100CB00009F479C0883A09F09CCF84E08093BA01A6
:100CC0001092970110929601E091E201F091E301F8
:100CD00009958091960181110FC081E08093960162
:100CE0001092760109C0803C09F4A6CF883C09F433
:100CF000A3CF883B09F07DCFE091970181E08E0F73
:100D000080939701F0E0EA58FE4F80818093BB000A
:100D1000909197018091960129C08091DF01809385
:100D2000BB0085EC8093BC0064CF9091DE01809184
:100D3000DD01981758F5E091DE0181E08E0F809378
:100D4000DE01F0E0E354FE4F8081E9CFE091DE0167
:100D500081E08E0F8093DE018091BB00F0E0E354D0
:100D6000FE4F80839091DE018091DD019817C8F2DB
:100D700085E8D8CFE091DE0181E08E0F8093DE011F
:100D80008091BB00F0E0E354FE4F80838091BC0172
:100D900081115CCF81E08093BB0184EA8093BC0029
:100DA0001092BA0126CF85EC8093BC001092BA0154
:100DB0008091B801803230F4E091B801F0E0E8565B
:100DC000FE4F10826091B80170E0E091E001F09177
:100DD000E10188E991E009951092B8010ACF1092DB
:100DE000B90134CFEDEFF1E01382128288EE93E087
:100DF000A0E0B0E084839583A683B78382E191E08D
:100E000091838083E9E0F2E01382128284E291E030
:100E1000918380838FE384838CE2808782E0818763
:100E2000128688E083870895789484B5826084BDB3
:100E300084B5816084BD85B5826085BD85B58160DE
:100E400085BD80916E00816080936E00109281005C
:100E50008091810082608093810080918100816017
:100E600080938100809180008160809380008091D8
:100E7000B10084608093B1008091B0008160809364
:100E8000B00080917A00846080937A0080917A002B
:100E9000826080937A0080917A00816080937A00EA
:100EA00080917A00806880937A001092C1008EEF62
:100EB00091E0909303018093020180916900836027
:100EC00080936900E89A60E085E00E94E30084EF87
:100ED00093E09093050180930401809169008C60F8
:100EE00080936900E99A61E08DE00E94E30061E08F
:100EF0008CE00E94E30061E087E00E94E30061E093
:100F000088E00E94E30061E084E10E94E30060E089
:100F100085E10E94E3001092E7011092E601109231
:100F2000E5011092E4010E9444028BE192E090936B
:100F3000E3018093E2018CE192E09093E1018093E0
:100F4000E00110920E0280911202823018F098E0B7
:100F500090930E0290911302992339F0813029F475
:100F600080910E02846080930E0262E370E080E064
:100F700090E00E949E016091140289E092E00E943C
:100F8000090368EE73E080E090E00E949E0160E358
:100F900089E092E00E947F04CBE4D6E4CE01019781
:100FA000F1F760E389E092E00E947F042197F1F776
:100FB00060E389E092E00E947F0483E592E001977C
:100FC000F1F760E289E092E00E947F0460910E02F6
:100FD000606240E089E092E00E94980484E080939F
:100FE0000F0240E06CE089E092E00E94980440E04B
:100FF00061E089E092E00E949804CBE3DFE1CE015A
:101000000197F1F782E08093100240E066E089E00A
:1010100092E00E94980440E062E089E092E00E9441
:1010200098042197F1F784E6482E512C612C712CFD
:101030000FEF10E090E0292E90E0392E60E08DE077
:101040000E94B50061E08CE00E94E30068EC70E073
:101050008CE00E94140160E087E00E94B50061E02E
:1010600088E00E94E30068EC70E088E00E941401D0
:101070008090F0019090F101A090F201B090F30106
:1010800085E688169104A104B1040CF086C0C30162
:10109000B201681979098A099B090E94F5096B0157
:1010A0007C0120E030E040E251E40E94810A9B0193
:1010B000AC016091EC017091ED018091EE01909195
:1010C000EF010E94DF086093EC017093ED018093C3
:1010D000EE019093EF012091E8013091E9014091F8
:1010E000EA015091EB01C701B6010E94DE082DEC28
:1010F0003CEC4CE45DE30E94810A20E030E040E2F9
:1011000051E40E944B09A70196010E94DF08C0929A
:10111000E801D092E901E092EA01F092EB0120E0CF
:1011200030E046E153E40E94DF080E94BD096B01F4
:1011300061E08DE00E94B500E801CC19DD09BE0137
:101140008CE00E945C0161E087E00E94B500BE0176
:1011500088E00E945C0181E00E94D104B7FE24C0B7
:10116000C501B4010E94B50482E00E94D104B60119
:10117000DD0C880B990B97FF1DC00E94B504809170
:10118000F0019091F101A091F201B091F301843648
:101190009105A105B10509F06BCF2114310409F4C3
:1011A0004DCF0E9400004ACF4AE0C501B4010E9421
:1011B0003104DACF4AE00E943104E1CF5058BB2716
:1011C000AA270E94F6080C94470A0E94390A38F0B0
:1011D0000E94400A20F039F49F3F19F426F40C9441
:1011E000360A0EF4E095E7FB0C94300AE92F0E94D2
:1011F000580A58F3BA17620773078407950720F057
:1012000079F4A6F50C947A0A0EF4E0950B2EBA2F19
:10121000A02D0B01B90190010C01CA01A0011124FC
:10122000FF27591B99F0593F50F4503E68F11A16A8
:10123000F040A22F232F342F4427585FF3CF469539
:1012400037952795A795F0405395C9F77EF41F165B
:10125000BA0B620B730B840BBAF09150A1F0FF0F25
:10126000BB1F661F771F881FC2F70EC0BA0F621F11
:10127000731F841F48F4879577956795B795F79501
:101280009E3F08F0B0CF9395880F08F09927EE0F96
:101290009795879508950E945F090C94470A0E94CC
:1012A000400A58F00E94390A40F029F45F3F29F0C3
:1012B0000C94300A51110C947B0A0C94360A0E944B
:1012C000580A68F39923B1F3552391F3951B550BF5
:1012D000BB27AA2762177307840738F09F5F5F4F09
:1012E000220F331F441FAA1FA9F335D00E2E3AF048
:1012F000E0E832D091505040E695001CCAF72BD060
:10130000FE2F29D0660F771F881FBB1F26173707B0
:101310004807AB07B0E809F0BB0B802DBF01FF27E2
:1013200093585F4F3AF09E3F510578F00C94300A85
:101330000C947B0A5F3FE4F3983ED4F3869577954F
:101340006795B795F7959F5FC9F7880F911D96959B
:10135000879597F90895E1E0660F771F881FBB1FF7
:10136000621773078407BA0720F0621B730B840BA4
:10137000BA0BEE1F88F7E09508950E94C40968949F
:10138000B1110C947B0A08950E94600A88F09F575F
:1013900098F0B92F9927B751B0F0E1F0660F771F99
:1013A000881F991F1AF0BA95C9F714C0B13091F08F
:1013B0000E947A0AB1E008950C947A0A672F782F78
:1013C0008827B85F39F0B93FCCF386957795679554
:1013D000B395D9F73EF490958095709561957F4FC0
:1013E0008F4F9F4F0895E89409C097FB3EF4909566
:1013F0008095709561957F4F8F4F9F4F9923A9F0EE
:10140000F92F96E9BB279395F6958795779567957C
:10141000B795F111F8CFFAF4BB0F11F460FF1BC0C0
:101420006F5F7F4F8F4F9F4F16C0882311F096E953
:1014300011C0772321F09EE8872F762F05C0662301
:1014400071F096E8862F70E060E02AF09A95660FBA
:10145000771F881FDAF7880F9695879597F9089573
:1014600097F99F6780E870E060E008959FEF80EC57
:10147000089500240A9416161706180609060895FA
:1014800000240A9412161306140605060895092E60
:101490000394000C11F4882352F0BB0F40F4BF2BCF
:1014A00011F460FF04C06F5F7F4F8F4F9F4F08950F
:1014B00057FD9058440F551F59F05F3F71F0479505
:1014C000880F97FB991F61F09F3F79F087950895EA
:1014D000121613061406551FF2CF4695F1DF08C009
:1014E000161617061806991FF1CF86957105610526
:1014F00008940895E894BB2766277727CB0197F9CE
:1015000008950E94940A0C94470A0E94390A38F000
:101510000E94400A20F0952311F00C94300A0C949C
:10152000360A11240C947B0A0E94580A70F3959F86
:10153000C1F3950F50E0551F629FF001729FBB27CA
:10154000F00DB11D639FAA27F00DB11DAA1F649F66
:101550006627B00DA11D661F829F2227B00DA11D19
:10156000621F739FB00DA11D621F839FA00D611D9F
:10157000221F749F3327A00D611D231F849F600DC0
:10158000211D822F762F6A2F11249F5750409AF0E9
:10159000F1F088234AF0EE0FFF1FBB1F661F771F75
:1015A000881F91505040A9F79E3F510580F00C9440
:1015B000300A0C947B0A5F3FE4F3983ED4F386959F
:1015C00077956795B795F795E7959F5FC1F7FE2BE0
:1015D000880F911D9695879597F90895A1E21A2E87
:1015E000AA1BBB1BFD010DC0AA1FBB1FEE1FFF1FC7
:1015F000A217B307E407F50720F0A21BB30BE40B17
:10160000F50B661F771F881F991F1A9469F760955D
:101610007095809590959B01AC01BD01CF01089517
:10162000EE0FFF1F0590F491E02D0994F894FFCF81
:101630000100D001D001000040001400540000005F
:101640000000DA02AD02F1038302A60293028402D3
:0C16500000000000AF04D101F103F00322
:00000001FF
