:100000000C94F6000C9420010C9420010C94200117
:100010000C9420010C9420010C9420010C942001DC
:100020000C9420010C9420010C9420010C942001CC
:100030000C9420010C9420010C9420010C942001BC
:100040000C9420010C94DE030C9420010C942001EC
:100050000C9420010C9420010C9420010C940A03B0
:100060000C9420010C9420010C9420010C9420018C
:100070000C9420010C9420010C9420010C9420017C
:100080000C94B0030C9420010C9420010C942001DA
:100090000C9420010C9420010C9420010C9420015C
:1000A0000C9420010C9420010C9482030C942001E8
:1000B0000C9420010C9420010C9420010C94540306
:1000C0000C9420010C9420010C9420010C9420012C
:1000D0000C9420010C9420010C9420010C9420011C
:1000E0000C94200100000A0B02090C0D0E080703F6
:1000F00004010000000000000000000000000000FB
:1001000000000000000000000000000000000000EF
:1001100012111000000000000000000000000000AC
:100120000000000000000000000000002200250088
:1001300028002B002E0031003400020100000501D0
:1001400008010B0100002100240027002A002D00D7
:100150003000330001010000040107010A01050518
:100160000505070508080808020202020A0A08082D
:10017000040404040101010101010101030303035B
:1001800003030303040707070C0C0C0C0C0C0C0CEA
:100190000202020206060606060606060B0B0B0BFB
:1001A0000B0B0B0B01021020200808102040102020
:1001B000408002010201080402010102040810202B
:1001C0004080804020100804020180040201804029
:1001D0002010080402010804020101020408102092
:1001E000408001020408102040803F0511241FBEFA
:1001F000CFEFD1E2DEBFCDBF12E0A0E0B2E0E2EB94
:10020000FBE000E00BBF02C007900D92A030B107E9
:10021000D9F722E0A0E0B2E001C01D92AB3AB207EC
:10022000E1F710E0C6EFD0E004C02197FE010E9484
:10023000CE05C53FD107C9F70E9427040C94D70506
:100240000C940000CF93DF93DC018C91803308F095
:100250006DC0CB01FB01EC55FE4F2491825A9E4F9D
:10026000FC018491882399F090E0880F991FFC018C
:10027000EC5BFE4FC591D491FC01E65DFE4F85918C
:1002800094918FB7F894E881E22BE8838FBF8C912B
:10029000282F30E0F901EE0FFF1FE20FF31FE55E9C
:1002A000FD4F962F9F736081607C692B6083119650
:1002B0001C92119712961C9212972CE0622F0E94AA
:1002C000C205829FB001112430E020E0AB01420F53
:1002D000531FFA01EE0FFF1FE40FF51FE55EFD4F00
:1002E000908196FD16C02F5F3F4F2C30310571F77E
:1002F000813001F51092800082E08093810010929D
:10030000850010928400B19A80916F008260809382
:100310006F00EC918E2F90E0FC01EE0FFF1FE80FB5
:10032000F91FE55EFD4F8081806480838C91DF91B1
:10033000CF910895823061F41092900080939100E3
:10034000109295001092940088BB80937100E1CFC9
:10035000833069F41092A00082E08093A100109293
:10036000A5001092A40089BB80937200D2CF8111A6
:10037000D0CF1092200182E08093210110922501BC
:10038000109224018ABB80937300C3CF282F30E0E2
:10039000F901EC51FF4F9491F901EC55FE4F849116
:1003A000225A3E4FF9012491222309F433C09923A4
:1003B00001F191509231E8F4E92FF0E0EE51FE4F57
:1003C0000C94CE0513021702F4010B020F02F9017F
:1003D0001A02200224022A022E02320238023C02B1
:1003E000F901400246024A02909180009F77909363
:1003F0008000E22FF0E0EE0FFF1FE65DFE4FA591BB
:10040000B4919FB7F894EC91611148C080958E2308
:100410008C939FBF0895909180009F7DE8CF90912D
:100420008000977FE4CF94B59F7794BDE2CF94B5D9
:100430009F7DFBCF9091B0009F779093B000D9CF74
:100440009091B0009F7DF9CF909190009F7790930D
:100450009000CFCF909190009F7DF9CF9091900028
:10046000977FF5CF9091A0009F779093A000C1CF88
:100470009091A0009F7DF9CF9091A000977FF5CF3C
:10048000909120019F7790932001B3CF909120010C
:100490009F7DF9CF90912001977FF5CF8E2BB8CF1C
:1004A000AF92BF92CF92DF92EF92FF920F931F9382
:1004B000CF93DF936B017A01EC01C050DE4F2881AE
:1004C0003CE0389F8001399F100D1124A090040258
:1004D000B12C27FF1FC0FB011182108288818F5F22
:1004E000888388819801280F311D87FD3A95F60190
:1004F0002A153B051CF488818C30C4F180819181E0
:10050000049680349C4908F473C0F601808191817F
:10051000049670C088819801280F311D87FD3A9597
:100520002A153B05DCF68881A801480F511D87FD7F
:100530005A95FA01EE0FFF1FE40FF51FE55EFD4F20
:10054000808186FFCBCF8881F801E80FF11D87FD00
:10055000FA95CF01EE0FFF1FE80FF91FE55EFD4F83
:10056000808160E08F730E94C601B8CF8081918145
:100570002881A801420F511D27FD5A959A01FA01C1
:10058000EE0FFF1FE20FF31FE55EFD4F2181328169
:10059000820F931FF7019183808388819801280F30
:1005A000311D87FD3A95F901EE0FFF1FE20FF31F92
:1005B000E55EFD4F808186FF22C08881080F111DF6
:1005C00087FD1A95F801EE0FFF1FE00FF11FE55EA2
:1005D000FD4F808161E08F73DF91CF911F910F916B
:1005E000FF90EF90DF90CF90BF90AF900C94C6013A
:1005F00080E49CE9F701918380838FEF8883DF910A
:10060000CF911F910F91FF90EF90DF90CF90BF900F
:10061000AF9008951F920F920FB60F9211242F934F
:100620003F938F939F93AF93BF93809117029091C5
:100630001802A0911902B0911A023091160223E01B
:10064000230F2D3758F50196A11DB11D20931602D9
:100650008093170290931802A0931902B0931A0284
:100660008091120290911302A0911402B091150290
:100670000196A11DB11D8093120290931302A093C5
:100680001402B0931502BF91AF919F918F913F914A
:100690002F910F900FBE0F901F90189526E8230FF3
:1006A0000296A11DB11DD2CF1F920F920FB60F92CD
:1006B00011240BB60F922F933F934F935F936F9339
:1006C0007F938F939F93AF93BF93EF93FF9348E2F2
:1006D00051E064E271E090E080E00E945002FF91FE
:1006E000EF91BF91AF919F918F917F916F915F91AA
:1006F0004F913F912F910F900BBE0F900FBE0F9017
:100700001F9018951F920F920FB60F9211240BB6DF
:100710000F922F933F934F935F936F937F938F939A
:100720009F93AF93BF93EF93FF9348EA50E064EA3F
:1007300070E083E090E00E945002FF91EF91BF9142
:10074000AF919F918F917F916F915F914F913F9169
:100750002F910F900BBE0F900FBE0F901F9018950A
:100760001F920F920FB60F9211240BB60F922F9378
:100770003F934F935F936F937F938F939F93AF9329
:10078000BF93EF93FF9348E950E064E970E082E0A3
:1007900090E00E945002FF91EF91BF91AF919F9125
:1007A0008F917F916F915F914F913F912F910F901A
:1007B0000BBE0F900FBE0F901F9018951F920F92B7
:1007C0000FB60F9211240BB60F922F933F934F93B6
:1007D0005F936F937F938F939F93AF93BF93EF93A9
:1007E000FF9348E850E064E870E081E090E00E9408
:1007F0005002FF91EF91BF91AF919F918F917F91A7
:100800006F915F914F913F912F910F900BBE0F9081
:100810000FBE0F901F901895FC0190910402903329
:1008200098F481E0890F809304029083892F90E0EF
:10083000FC01EE0FFF1FE80FF91FE55EFD4F88EB8F
:100840009BE09283818308958FEF80830895CF93F7
:10085000DF9300D01F92CDB7DEB7789484B5826065
:1008600084BD84B5816084BD85B5826085BD85B554
:10087000816085BD80916E00816080936E001092D2
:10088000810080918100826080938100809181004D
:1008900081608093810080918000816080938000DE
:1008A0008091B10084608093B1008091B00081603C
:1008B0008093B0008091910082608093910080913C
:1008C000910081608093910080919000816080937D
:1008D00090008091A10082608093A1008091A1008E
:1008E00081608093A1008091A00081608093A0002E
:1008F000809121018260809321018091210181609A
:10090000809321018091200181608093200180915A
:100910007A00846080937A0080917A00826080936C
:100920007A0080917A00816080937A0080917A00C9
:10093000806880937A001092C10063E170E08BE0E0
:1009400092E00E94220163E370E088E092E00E945E
:10095000220165E370E085E092E00E94220168E5F3
:10096000262E62E0362E78E8C72ED12CE4EB4E2EF0
:10097000512C612C712C00E010E02FB7F89480917D
:10098000170290911802A0911902B0911A022FBF7C
:1009900040910E0250910F0260911002709111026D
:1009A000841B950BA60BB70B88389341A105B105A5
:1009B0000CF062C0A4EBB0E030910B02398330330D
:1009C00008F053C080910D027101E81AF10887FD0B
:1009D000F394EE0CFF1CEE0CFF1C80910C029601B0
:1009E000281B310987FD3395220F331F220F331F38
:1009F0003B832A834901330FAA08BB0897010F2CB8
:100A0000000C440B550B281939094A095B090E944F
:100A10008905A30192010E945F05820E931EA41E08
:100A2000B51E2A813B81821693063CF0FB82EA8246
:100A30008E149F0414F49B828A828A819B81029780
:100A4000880F991F9B838A832FB7F8943981832F4E
:100A500090E0FC01EE0FFF1FE80FF91FE55EFD4F70
:100A60008A819B81928381832FBF0115110509F42F
:100A700084CF0E94000081CFB0E0A0E09DCF8BE04A
:100A800092E00E940C0488E092E00E940C0485E051
:100A900092E00E940C042FB7F89480911702909175
:100AA0001802A0911902B0911A022FBF80930E0272
:100AB00090930F02A0931002B09311020895052E97
:100AC00097FB1EF400940E94760557FD07D00E9404
:100AD000910507FC03D04EF40C9476055095409593
:100AE000309521953F4F4F4F5F4F089590958095DA
:100AF000709561957F4F8F4F9F4F08950E94B3056A
:100B0000A59F900DB49F900DA49F800D911D112461
:100B10000895B7FF0C947E050E947E05821B930BFF
:100B20000895A1E21A2EAA1BBB1BFD010DC0AA1F2E
:100B3000BB1FEE1FFF1FA217B307E407F50720F046
:100B4000A21BB30BE40BF50B661F771F881F991FC1
:100B50001A9469F760957095809590959B01AC010A
:100B6000BD01CF010895A29FB001B39FC001A39F13
:100B7000700D811D1124911DB29F700D811D1124D6
:100B8000911D0895991B79E004C0991F961708F0EC
:100B9000961B881F7A95C9F780950895EE0FFF1F61
:100BA0000024001C0BBE0790F691E02D0994F894E8
:020BB000FFCF75
:00000001FF
