:100000000C9403010C9408080C94DD070C94B207BF
:100010000C9487070C945C070C9431070C9406072A
:100020000C94DB060C942D010C942D010C942D01E5
:100030000C942D010C942D010C942D010C942D0188
:100040000C942D010C942D010C942D010C942D0178
:100050000C942D010C942D010C942D010C949106FF
:100060000C942D010C942D010C942D010C942D0158
:100070000C942D010C942D010C942D010C942D0148
:100080000C942D010C942D010C942D010C942D0138
:100090000C942D010C942D010C942D010C9433081B
:1000A0000C942D010C942D010C942D010C942D0118
:1000B0000C942D010C942D010C942D010C942D0108
:1000C0000C942D010C942D010C942D010C942D01F8
:1000D0000C942D010C942D010C942D010C942D01E8
:1000E0000C942D01000020002300260029002C0084
:1000F0002F00320000010000030106010901000089
:100100002100240027002A002D00300033000101C7
:100110000000040107010A01000022002500280058
:100120002B002E00310034000201000005010801FF
:100130000B0105050505070508080808020202026B
:100140000A0A080804040404010101010101010173
:100150000303030303030303040707070C0C0C0C3E
:100160000C0C0C0C02020202060606060606060627
:100170000B0B0B0B0B0B0B0B0102102020080810B4
:100180002040102040800201020108040201010207
:1001900004081020408080402010080402018004E0
:1001A000020180402010080402010804020101023B
:1001B0000408102040800102040810204080000044
:1001C0000A0B02090C0D0E080703040100000000D1
:1001D000000000000000000000000000000000001F
:1001E00000000000000000000000121110000000DC
:1001F00000000000000000000000000000000000FF
:1002000000000000570911241FBECFEFD1E2DEBF6E
:10021000CDBF12E0A0E0B2E0EAE5FBE100E00BBFF9
:1002200002C007900D92A833B107D9F723E0A8E3E5
:10023000B2E001C01D92A132B207E1F711E0C3E0C4
:10024000D1E004C02197FE010E94A20DC230D10767
:10025000C9F70E9479090C94AB0D0C9400008150F1
:10026000823108F058C0E82FF0E0E75CFE4F0C94B4
:10027000A20D59015D014B01510155018B01600136
:1002800066016A017001740178017E0182018B01AF
:1002900086018C019001809180008F77809380008F
:1002A0000895809180008F7DF9CF80918000877FB5
:1002B000F5CF84B58F7784BD089584B58F7DFBCF4E
:1002C0008091B0008F778093B00008958091B00046
:1002D0008F7DF9CF809190008F7780939000089563
:1002E000809190008F7DF9CF80919000877FF5CF2E
:1002F0008091A0008F778093A00008958091A00046
:100300008F7DF9CF8091A000877FF5CF809120016C
:100310008F77809320010895809120018F7DF9CF00
:1003200080912001877FF5CF1F93CF93DF93282FF4
:1003300030E0F901E254FE4F8491F901E858FE4F94
:10034000D491F901EE5CFE4FC491CC23A9F0162F95
:1003500081110E942F01EC2FF0E0EE0FFF1FE85EED
:10036000FE4FA591B4918FB7F894EC91111108C08C
:10037000D095DE23DC938FBFDF91CF911F9108953D
:10038000DE2BF8CFCF93DF9390E0FC01E858FE4FCF
:1003900024918E5C9E4FFC0184918823D1F090E0E3
:1003A000880F991FFC01E250FF4FA591B491FC0109
:1003B000E85EFE4FC591D49161110EC09FB7F894CD
:1003C0008C91E22FE0958E238C932881E223E883A1
:1003D0009FBFDF91CF9108958FB7F894EC91E22BF6
:1003E000EC938FBFF6CFE82FF0E0E254FE4FE4919C
:1003F000E150E23108F0AEC0F0E0EF5FFD4F0C9449
:10040000A20D130218021D0227023102AA023B02AA
:1004100043024B0255025F02690278028202AA027D
:100420008C029602A00284B5806884BD67BD0895E1
:1004300084B5806284BD68BD089580918000806825
:100440008093800070938900609388000895809164
:10045000800080628093800070938B0060938A009C
:1004600008958091800088608093800070938D0053
:1004700060938C0008958091B00080688093B000F4
:100480006093B30008958091B00080628093B000C3
:100490006093B400089580919000806880939000EC
:1004A0007093990060939800089580919000806205
:1004B0008093900070939B0060939A0008958091C0
:1004C000900088608093900070939D0060939C00E2
:1004D00008958091A00080688093A0008091A00082
:1004E0008F7B8093A0007093A9006093A80008956B
:1004F0008091A00080628093A0007093AB00609315
:10050000AA0008958091A00088608093A000709355
:10051000AD006093AC0008958091200180688093C5
:100520002001709329016093280108958091200192
:1005300080628093200170932B0160932A010895BB
:100540008091200188608093200170932D01609339
:100550002C010895603871051CF460E00C9494013E
:1005600061E0FCCF0F931F93CF93C82F8B0161E005
:100570000E94C20160E00115110521F00F3F110535
:1005800039F461E08C2FCF911F910F910C9494015D
:10059000B8018C2FCF911F910F910C94F3013FB7AD
:1005A000F8948091050390910603A0910703B09100
:1005B000080326B5A89B05C02F3F19F00196A11D81
:1005C000B11D3FBFBA2FA92F982F8827BC01CD019D
:1005D000620F711D811D911D42E0660F771F881FFC
:1005E000991F4A95D1F708958F929F92AF92BF922B
:1005F000CF92DF92EF92FF924B015C010E94CF02FB
:100600006B017C010E94CF026C197D098E099F0944
:10061000683E734081059105A8F321E0821A910894
:10062000A108B10888EEC80E83E0D81EE11CF11CB9
:1006300081149104A104B10429F7FF90EF90DF9099
:10064000CF90BF90AF909F908F9008950895AF92F4
:10065000BF92CF92DF92EF92FF920F931F93CF93AF
:10066000DF936C017B018B01040F151FEB015E0111
:10067000AE18BF08C017D10759F06991D601ED91A6
:10068000FC910190F081E02DC6010995892B79F745
:10069000C501DF91CF911F910F91FF90EF90DF90F7
:1006A000CF90BF90AF90089581E090E0209100023C
:1006B00030910102232B11F090E080E09093010231
:1006C0008093000281E090E020913802309139025D
:1006D000232B11F090E080E0909339028093380250
:1006E0000895089508952091A202260F3327331FFD
:1006F00021323105ECF42091C602FC0190E080E04B
:10070000243069F082E00895A091A2022191AC0109
:100710004E575D4FA40FB52FB11D2C930196861730
:1007200098F38091A202680F6093A20280E008957E
:1007300081E008951092C60281E08093C802109271
:10074000C70261E084E10E94940161E085E10E94BA
:100750009401E9EBF0E080818E7F808380818D7F42
:10076000808388E48093B80085E48093BC0008957A
:10077000CF93DF9391E0909381028823B9F0C091E9
:10078000B800D091BA008091BC008A7B8093BC00F5
:1007900060E084E10E94940160E085E10E949401A0
:1007A0000E949A03D093BA00C093B800DF91CF9112
:1007B00008950895E091F3028091F202E81730F471
:1007C000F0E0E45AFD4F808190E008958FEF9FEFB5
:1007D00008959091F3028091F2022FEF3FEF981766
:1007E00048F4E92FF0E0E45AFD4F208130E09F5FAC
:1007F0009093F302C90108958091F2029091F3025F
:10080000891B990B0895CF92DF92EF92FF920F937D
:100810001F93CF93DF937C01CB018A0120915B0270
:10082000222389F0EB016B01C40ED51ECC15DD052A
:1008300069F06991D701ED91FC910190F081E02D73
:10084000C7010995F3CF642F0E947303C801DF919C
:10085000CF911F910F91FF90EF90DF90CF9008956F
:10086000CF93DF931F92CDB7DEB7698320915B02F0
:100870002223F9F02091F002203258F021E030E0FC
:10088000FC013383228390E080E00F90DF91CF91D1
:1008900008958091F102E82FF0E0E55CFD4F998129
:1008A00090838F5F8093F1028093F00281E090E06B
:1008B000ECCF61E0CE0101960E947303F7CFCF9297
:1008C000DF92EF92FF920F931F93CF93DF93FC0180
:1008D000C48121E020935B02C0933A021092F1029E
:1008E0001092F0028385682B89E093E00E94300427
:1008F000D091F002D13208F092C00E94CF026B0179
:100900007C018091C602811165C082E08093C6029D
:1009100081E08093C8028FEF8093C5021092EA02B3
:10092000D093E902ABE3B2E0E9ECF2E080E0D81367
:1009300085C01092EB028091EB02CC0FC82BC093C4
:10094000EB028091C702813009F07CC01092C7028F
:100950000E94CF026B017C018091EB028093BB006F
:1009600080917D0290917E02A0917F02B0918002E1
:10097000892B8A2B8B2B99F00E94CF0200917D024C
:1009800010917E0220917F02309180026C197D09C6
:100990008E099F090617170728073907E0F180918C
:1009A000BC0083FDD9CF85EC8093BC000E94CF02B0
:1009B0006B017C018091C602823009F445C08091B0
:1009C000C5028F3F61F18091C502803241F1809173
:1009D000C50225C080917D0290917E02A0917F0288
:1009E000B0918002892B8A2B8B2B09F48ACF0E942D
:1009F000CF0200917D0210917E0220917F02309102
:100A000080026C197D098E099F09061717072807B0
:100A1000390708F076CF80917C020E94B8031092CB
:100A2000F1021092F00210925B02DF91CF911F91C0
:100A30000F91FF90EF90DF90CF9008959D9191934B
:100A40008F5F75CF85EEB0CF80917D0290917E0251
:100A5000A0917F02B0918002892B8A2B8B2B09F405
:100A6000A9CF0E94CF0200917D0210917E022091B9
:100A70007F02309180026C197D098E099F0906174B
:100A800017072807390708F095CFC5CF089590E0DC
:100A900080E00895CF93DF93E3ECF1E08491EDE7FC
:100AA000F1E0D491E7E3F1E0C491CC2321F181118D
:100AB0000E942F01EC2FF0E0EE0FFF1FEC51FF4FD3
:100AC000A591B491EC91ED23B1F08091FC0290914D
:100AD000FD02A091FE02B091FF020196A11DB11D81
:100AE0008093FC029093FD02A093FE02B093FF025C
:100AF000DF91CF9108958091FC029091FD02A09129
:100B0000FE02B091FF020197A109B109E9CF8F92CE
:100B10009F92AF92BF920F931F93CF93DF93CDB766
:100B2000DEB7A1970FB6F894DEBF0FBECDBF19A2F6
:100B3000423008F44AE08E010F5D1F4F842E912C45
:100B4000B12CA12CA50194010E94800DE62FB901C2
:100B5000CA01EA3044F5E05DD801EE938D01232B04
:100B6000242B252B79F790E080E0109769F0FD01A8
:100B700001900020E9F73197AF014A1B5B0BBD01E3
:100B800085E193E00E942703A1960FB6F894DEBF9B
:100B90000FBECDBFDF91CF911F910F91BF90AF904E
:100BA0009F908F900895E95CD7CF0F931F93CF93B9
:100BB0008C01C62F0E945F046C2F6460C8010E94E4
:100BC0005F046C2F6B7FC8010E945F0483EC90E090
:100BD0000197F1F7CF911F910F9108950F931F93F4
:100BE000CF93DF938C01D62FC42F607F642B0E949C
:100BF000D50580E1D89FB00111246C2BC801DF918D
:100C0000CF911F910F910C94D50541E00E94EE0504
:100C100081E090E00895CF92DF92EF92FF926B0116
:100C20007C0141E06DE285E193E00E94EE056627DC
:100C30007727CB016C197D098E099F094AE00E9434
:100C400087050196FF90EF90DF90CF900895CF93A6
:100C5000DF93CDB7DEB728970FB6F894DEBF0FBE8F
:100C6000CDBF98E0E2E1F2E0DE01119601900D9235
:100C70009A95E1F790911E03981710F48FEF890F62
:100C800090E0880F991F21E030E02C0F3D1F820F6C
:100C9000931FFC016081606840E085E193E0289645
:100CA0000FB6F894DEBF0FBECDBFDF91CF910C948D
:100CB000EE0585ED8093BC0080917D0290917E02CF
:100CC000A0917F02B09180020796A11DB11D23E083
:100CD000B695A795979587952A95D1F72091BC0051
:100CE00024FD03C01092C602089540917D025091E8
:100CF0007E0260917F0270918002452B462B472B2C
:100D000069F30097A105B10541F025E32A95F1F7B4
:100D100000000197A109B109E1CF80917C020C94F8
:100D2000B8031F920F920FB60F9211242F933F9387
:100D30008F939F93AF93BF93809101039091020390
:100D4000A0910303B09104033091000323E0230F2B
:100D50002D3758F50196A11DB11D209300038093F6
:100D6000010390930203A0930303B09304038091C3
:100D7000050390910603A0910703B0910803019623
:100D8000A11DB11D8093050390930603A093070353
:100D9000B0930803BF91AF919F918F913F912F9195
:100DA0000F900FBE0F901F90189526E8230F029604
:100DB000A11DB11DD2CF1F920F920FB60F92112419
:100DC0000BB60F922F933F934F935F936F937F9345
:100DD0008F939F93AF93BF93EF93FF93E091100294
:100DE000F09111020995FF91EF91BF91AF919F9101
:100DF0008F917F916F915F914F913F912F910F90C4
:100E00000BBE0F900FBE0F901F9018951F920F9260
:100E10000FB60F9211240BB60F922F933F934F935F
:100E20005F936F937F938F939F93AF93BF93EF9352
:100E3000FF93E0910E02F0910F020995FF91EF915F
:100E4000BF91AF919F918F917F916F915F914F91E2
:100E50003F912F910F900BBE0F900FBE0F901F90E0
:100E600018951F920F920FB60F9211240BB60F9286
:100E70002F933F934F935F936F937F938F939F93A2
:100E8000AF93BF93EF93FF93E0910402F0910502BB
:100E90000995FF91EF91BF91AF919F918F917F91B4
:100EA0006F915F914F913F912F910F900BBE0F90DB
:100EB0000FBE0F901F9018951F920F920FB60F92B2
:100EC00011240BB60F922F933F934F935F936F9321
:100ED0007F938F939F93AF93BF93EF93FF93E09193
:100EE0000202F09103020995FF91EF91BF91AF913A
:100EF0009F918F917F916F915F914F913F912F9132
:100F00000F900BBE0F900FBE0F901F9018951F9261
:100F10000F920FB60F9211240BB60F922F933F939F
:100F20004F935F936F937F938F939F93AF93BF93F1
:100F3000EF93FF93E0910C02F0910D020995FF9160
:100F4000EF91BF91AF919F918F917F916F915F9141
:100F50004F913F912F910F900BBE0F900FBE0F90AE
:100F60001F9018951F920F920FB60F9211240BB677
:100F70000F922F933F934F935F936F937F938F9332
:100F80009F93AF93BF93EF93FF93E0910A02F09189
:100F90000B020995FF91EF91BF91AF919F918F91B6
:100FA0007F916F915F914F913F912F910F900BBE69
:100FB0000F900FBE0F901F9018951F920F920FB6B3
:100FC0000F9211240BB60F922F933F934F935F9381
:100FD0006F937F938F939F93AF93BF93EF93FF9301
:100FE000E0910802F09109020995FF91EF91BF91FC
:100FF000AF919F918F917F916F915F914F913F91B1
:101000002F910F900BBE0F900FBE0F901F90189551
:101010001F920F920FB60F9211240BB60F922F93BF
:101020003F934F935F936F937F938F939F93AF9370
:10103000BF93EF93FF93E0910602F09107020995A9
:10104000FF91EF91BF91AF919F918F917F916F91A0
:101050005F914F913F912F910F900BBE0F900FBE5C
:101060000F901F9018951F920F920FB60F92112498
:101070000BB60F922F933F934F935F936F937F9392
:101080008F939F93AF93BF93EF93FF938091B9009A
:10109000887F803609F44DC008F040C0883209F4DA
:1010A000A9C028F5803109F49DC0C8F4882309F44B
:1010B000FBC0883009F496C0FF91EF91BF91AF91CA
:1010C0009F918F917F916F915F914F913F912F9160
:1010D0000F900BBE0F900FBE0F901F901895883188
:1010E00009F488C0803241F78093C50214C080346F
:1010F00009F49DC040F48033B9F38833E9F6809356
:10110000C50285ECB0C0803509F485C0883509F486
:1011100096C0883489F60E945906CECF883909F4E2
:101120008CC038F5883729F050F4883611F08037B4
:1011300019F683E08093C6021092C40257C0883823
:1011400009F47BC0803919F0803809F0B5CF80915F
:10115000C402803208F071C0E091C40281E08E0FB9
:101160008093C4028091BB00F0E0EC55FD4F80837A
:101170003DC0803B39F0E0F4803A09F479C0883A08
:1011800009F09ACF84E08093C6021092A3021092D5
:10119000A202E091EE02F091EF0209958091A20285
:1011A00081110FC081E08093A2021092820209C0D7
:1011B000803C09F4A6CF883C09F4A3CF883B09F012
:1011C0007BCFE091A30281E08E0F8093A302F0E039
:1011D000EE57FD4F80818093BB009091A3028091D8
:1011E000A20229C08091EB028093BB0085EC809322
:1011F000BC0062CF9091EA028091E902981758F5FD
:10120000E091EA0281E08E0F8093EA02F0E0E7537A
:10121000FD4F8081E9CFE091EA0281E08E0F80935B
:10122000EA028091BB00F0E0E753FD4F808390918C
:10123000EA028091E9029817C8F285E8D8CFE091D8
:10124000EA0281E08E0F8093EA028091BB00F0E019
:10125000E753FD4F80838091C80281115CCF81E00C
:101260008093C70284EA8093BC001092C60224CF08
:1012700085EC8093BC001092C6028091C40280323B
:1012800030F4E091C402F0E0EC55FD4F1082609123
:10129000C40270E0E091EC02F091ED0284EA92E089
:1012A00009951092C40208CF1092C50234CFE9E02C
:1012B000F3E01382128288EE93E0A0E0B0E0848332
:1012C0009583A683B7838EE192E091838083E5E1E5
:1012D000F3E01382128280E392E0918380838FE3B4
:1012E00084838CE2808782E08187128688E083870E
:1012F0000895789484B5826084BD84B5816084BD8E
:1013000085B5826085BD85B5816085BD80916E00A3
:10131000816080936E0010928100809181008260D4
:101320008093810080918100816080938100809111
:1013300080008160809380008091B1008460809300
:10134000B1008091B00081608093B00080919100E5
:1013500082608093910080919100816080939100E0
:10136000809190008160809390008091A1008260C4
:101370008093A1008091A10081608093A100809161
:10138000A00081608093A000809121018260809301
:1013900021018091210181608093210180912001B0
:1013A00081608093200180917A00846080937A002C
:1013B00080917A00826080937A0080917A008160C7
:1013C00080937A0080917A00806880937A001092EE
:1013D000C10084E593E09093030280930202809120
:1013E0006A00836080936A00EC9A60E085E00E9466
:1013F000C2018AE495E090930502809304028091F3
:101400006A008C6080936A00ED9A61E08DE00E9432
:10141000C20161E08CE00E94C20161E087E00E94AD
:10142000C20161E088E00E94C20161E084E10E94A3
:10143000C20160E085E10E94C2011092F3021092A5
:10144000F2021092F1021092F0020E949A0381E7D8
:1014500093E09093EF028093EE0282E793E0909303
:10146000ED028093EC0210921A0380911E038230E9
:1014700018F098E090931A0390911F03992339F084
:10148000813029F480911A03846080931A0362E307
:1014900070E080E090E00E94F4026091200385E11A
:1014A00093E00E945F0468EE73E080E090E00E94A9
:1014B000F40260E385E193E00E94D505CBE4D6E435
:1014C000CE010197F1F760E385E193E00E94D50535
:1014D0002197F1F760E385E193E00E94D50583E56C
:1014E00092E00197F1F760E285E193E00E94D50573
:1014F00060911A03606240E085E193E00E94EE058E
:1015000084E080931B0340E06CE085E193E00E945F
:10151000EE0540E061E085E193E00E94EE05CBE35B
:10152000DFE1CE010197F1F782E080931C0340E0F8
:1015300066E085E193E00E94EE0540E062E085E12F
:1015400093E00E94EE052197F1F784E6482E512C96
:10155000612C712C0FEF10E090E0292E90E0392ED5
:1015600060E08DE00E94940161E08CE00E94C20185
:1015700068EC70E08CE00E94F30160E087E00E947C
:10158000940161E088E00E94C20168EC70E088E0AC
:101590000E94F3018090FC029090FD02A090FE0258
:1015A000B090FF0285E688169104A104B1040CF006
:1015B00086C0C301B201681979098A099B090E9492
:1015C000870C6B017C0120E030E040E251E40E9496
:1015D000130D9B01AC016091F8027091F9028091AA
:1015E000FA029091FB020E94710B6093F8027093D3
:1015F000F9028093FA029093FB022091F402309159
:10160000F5024091F6025091F702C701B6010E941F
:10161000700B2DEC3CEC4CE45DE30E94130D20E0DC
:1016200030E040E251E40E94DD0BA70196010E94E8
:10163000710BC092F402D092F502E092F602F092A1
:10164000F70220E030E046E153E40E94710B0E9473
:101650004F0C6B0161E08DE00E949401E801CC1910
:10166000DD09BE018CE00E94B20261E087E00E94C9
:101670009401BE0188E00E94B20281E00E94270628
:10168000B7FE24C0C501B4010E940B0682E00E948F
:101690002706B601DD0C880B990B97FF1DC00E9431
:1016A0000B068091FC029091FD02A091FE02B09188
:1016B000FF0284369105A105B10509F06BCF211415
:1016C000310409F44DCF0E9400004ACF4AE0C50121
:1016D000B4010E948705DACF4AE00E948705E1CF76
:1016E0005058BB27AA270E94880B0C94D90C0E9443
:1016F000CB0C38F00E94D20C20F039F49F3F19F443
:1017000026F40C94C80C0EF4E095E7FB0C94C20C84
:10171000E92F0E94EA0C58F3BA176207730784078F
:10172000950720F079F4A6F50C940C0D0EF4E095D5
:101730000B2EBA2FA02D0B01B90190010C01CA018B
:10174000A0011124FF27591B99F0593F50F4503E36
:1017500068F11A16F040A22F232F342F4427585F28
:10176000F3CF469537952795A795F0405395C9F740
:101770007EF41F16BA0B620B730B840BBAF09150F8
:10178000A1F0FF0FBB1F661F771F881FC2F70EC097
:10179000BA0F621F731F841F48F48795779567956A
:1017A000B795F7959E3F08F0B0CF9395880F08F056
:1017B0009927EE0F9795879508950E94F10B0C9449
:1017C000D90C0E94D20C58F00E94CB0C40F029F4A6
:1017D0005F3F29F00C94C20C51110C940D0D0C9428
:1017E000C80C0E94EA0C68F39923B1F3552391F3D6
:1017F000951B550BBB27AA2762177307840738F080
:101800009F5F5F4F220F331F441FAA1FA9F335D0DC
:101810000E2E3AF0E0E832D091505040E695001C90
:10182000CAF72BD0FE2F29D0660F771F881FBB1F4A
:10183000261737074807AB07B0E809F0BB0B802D28
:10184000BF01FF2793585F4F3AF09E3F510578F054
:101850000C94C20C0C940D0D5F3FE4F3983ED4F34E
:10186000869577956795B795F7959F5FC9F7880F28
:10187000911D9695879597F90895E1E0660F771F7A
:10188000881FBB1F621773078407BA0720F0621B0B
:10189000730B840BBA0BEE1F88F7E09508950E9436
:1018A000560C6894B1110C940D0D08950E94F20C21
:1018B00088F09F5798F0B92F9927B751B0F0E1F011
:1018C000660F771F881F991F1AF0BA95C9F714C0C1
:1018D000B13091F00E940C0DB1E008950C940C0D04
:1018E000672F782F8827B85F39F0B93FCCF38695FA
:1018F00077956795B395D9F73EF490958095709557
:1019000061957F4F8F4F9F4F0895E89409C097FBD3
:101910003EF490958095709561957F4F8F4F9F4FC6
:101920009923A9F0F92F96E9BB279395F69587950A
:1019300077956795B795F111F8CFFAF4BB0F11F4CD
:1019400060FF1BC06F5F7F4F8F4F9F4F16C0882374
:1019500011F096E911C0772321F09EE8872F762FAA
:1019600005C0662371F096E8862F70E060E02AF0EB
:101970009A95660F771F881FDAF7880F96958795D7
:1019800097F9089597F99F6780E870E060E00895FF
:101990009FEF80EC089500240A9416161706180687
:1019A0000906089500240A94121613061406050663
:1019B0000895092E0394000C11F4882352F0BB0FF4
:1019C00040F4BF2B11F460FF04C06F5F7F4F8F4F57
:1019D0009F4F089557FD9058440F551F59F05F3F92
:1019E00071F04795880F97FB991F61F09F3F79F041
:1019F00087950895121613061406551FF2CF4695C3
:101A0000F1DF08C0161617061806991FF1CF869544
:101A10007105610508940895E894BB276627772728
:101A2000CB0197F908950E94260D0C94D90C0E94C1
:101A3000CB0C38F00E94D20C20F0952311F00C94BE
:101A4000C20C0C94C80C11240C940D0D0E94EA0CCD
:101A500070F3959FC1F3950F50E0551F629FF00101
:101A6000729FBB27F00DB11D639FAA27F00DB11D1A
:101A7000AA1F649F6627B00DA11D661F829F2227A3
:101A8000B00DA11D621F739FB00DA11D621F839F2A
:101A9000A00D611D221F749F3327A00D611D231F00
:101AA000849F600D211D822F762F6A2F11249F574E
:101AB00050409AF0F1F088234AF0EE0FFF1FBB1F51
:101AC000661F771F881F91505040A9F79E3F510510
:101AD00080F00C94C20C0C940D0D5F3FE4F3983E23
:101AE000D4F3869577956795B795F795E7959F5FBA
:101AF000C1F7FE2B880F911D9695879597F908954C
:101B0000A1E21A2EAA1BBB1BFD010DC0AA1FBB1F01
:101B1000EE1FFF1FA217B307E407F50720F0A21B73
:101B2000B30BE40BF50B661F771F881F991F1A94E0
:101B300069F760957095809590959B01AC01BD010A
:101B4000CF010895EE0FFF1F0024001C0BBE07906D
:0A1B5000F691E02D0994F894FFCF00
:101B5A00010026032603260326032603260326035B
:101B6A002603000040001400540000000000300466
:101B7A0003044705D903FC03E903DA030000000064
:081B8A00050627034705460587
:00000001FF
