:100000000C9403010C948D0B0C94620B0C94370B25
:100010000C940C0B0C94E10A0C94B60A0C948B0A09
:100020000C94600A0C942D010C942D010C942D015C
:100030000C942D010C942D010C942D010C942D0188
:100040000C942D010C94C60D0C942D010C942D01D3
:100050000C942D010C942D010C942D010C94160A76
:100060000C942D010C94E20B0C94B80B0C942D0104
:100070000C942D010C942D010C942D010C942D0148
:100080000C94980D0C942D010C942D010C942D01C1
:100090000C942D010C942D010C942D010C94180C32
:1000A0000C942D010C942D010C946A0D0C942D01CF
:1000B0000C942D010C942D010C942D010C943C0DED
:1000C0000C942D010C942D010C942D010C942D01F8
:1000D0000C942D010C942D010C942D010C942D01E8
:1000E0000C942D0100002100240027002A002D007F
:1000F0003000330001010000040107010A01000083
:100100002200250028002B002E00310034000201BF
:100110000000050108010B0100002000230026005B
:1001200029002C002F00320000010000030106010D
:10013000090105050505070508080808020202026D
:100140000A0A080804040404010101010101010173
:100150000303030303030303040707070C0C0C0C3E
:100160000C0C0C0C02020202060606060606060627
:100170000B0B0B0B0B0B0B0B0102102020080810B4
:100180002040102040800201020108040201010207
:1001900004081020408080402010080402018004E0
:1001A000020180402010080402010804020101023B
:1001B0000408102040800102040810204080000044
:1001C0000A0B02090C0D0E080703040100000000D1
:1001D000000000000000000000000000000000001F
:1001E00000000000000000000000121110000000DC
:1001F00000000000000000000000000000000000FF
:10020000000000000F0E11241FBECFEFD1E2DEBFB1
:10021000CDBF12E0A0E0B2E0EEE1F6E200E00BBFFD
:1002200002C007900D92A834B107D9F724E0A8E4E2
:10023000B2E001C01D92AE36B207E1F711E0C3E0B3
:10024000D1E004C02197FE010E940413C230D107FF
:10025000C9F70E94700E0C940D130C94000081508D
:10026000823108F058C0E82FF0E0E75CFE4F0C94B4
:10027000041359015D014B01510155018B016001CE
:1002800066016A017001740178017E0182018B01AF
:1002900086018C019001809180008F77809380008F
:1002A0000895809180008F7DF9CF80918000877FB5
:1002B000F5CF84B58F7784BD089584B58F7DFBCF4E
:1002C0008091B0008F778093B00008958091B00046
:1002D0008F7DF9CF809190008F7780939000089563
:1002E000809190008F7DF9CF80919000877FF5CF2E
:1002F0008091A0008F778093A00008958091A00046
:100300008F7DF9CF8091A000877FF5CF809120016C
:100310008F77809320010895809120018F7DF9CF00
:1003200080912001877FF5CFCF93DF93282F30E096
:10033000F901E254FE4F8491F901E858FE4FD4913F
:10034000F901EE5CFE4FC491CC23A1F081110E9413
:100350002F01EC2FF0E0EE0FFF1FE85EFE4FA5919E
:10036000B491EC91ED2381E090E009F480E0DF911D
:10037000CF91089580E090E0FACF1F93CF93DF9361
:10038000282F30E0F901E254FE4F8491F901E8583A
:10039000FE4FD491F901EE5CFE4FC491CC23A9F03D
:1003A000162F81110E942F01EC2FF0E0EE0FFF1F9E
:1003B000E250FF4FA591B4918FB7F894EC911111D1
:1003C00008C0D095DE23DC938FBFDF91CF911F91C2
:1003D0000895DE2BF8CFCF93DF9390E0FC01E8582F
:1003E000FE4F24918E5C9E4FFC0184918823D1F0B6
:1003F00090E0880F991FFC01EC51FF4FA591B4913B
:10040000FC01E250FF4FC591D49161110EC09FB71E
:10041000F8948C91E22FE0958E238C932881E2232F
:10042000E8839FBFDF91CF9108958FB7F894EC9147
:10043000E22BEC938FBFF6CF1F93CF93DF93182F50
:10044000EB0161E00E94EB01209739F460E0812F1D
:10045000DF91CF911F910C94BD01CF3FD10511F4D5
:1004600061E0F5CFE12FF0E0E254FE4FE491E1507E
:10047000E23108F0B1C0F0E0E05CFD4F0C940413F1
:1004800052025A025F0269027302EC027D02850287
:100490008D029702A102AB02BA02C402EC02CE02A4
:1004A000D802E20284B5806884BDC7BDDF91CF91D8
:1004B0001F91089584B5806284BDC8BDF7CF809137
:1004C0008000806880938000D0938900C09388006A
:1004D000EDCF80918000806280938000D0938B006C
:1004E000C0938A00E3CF8091800088608093800071
:1004F000D0938D00C0938C00D9CF8091B0008068DC
:100500008093B000C093B300D1CF8091B0008062DF
:100510008093B000C093B400C9CF809190008068F0
:1005200080939000D0939900C0939800BFCF8091A2
:100530009000806280939000D0939B00C0939A00BB
:10054000B5CF80919000886080939000D0939D00FB
:10055000C0939C00ABCF8091A00080688093A000E6
:100560008091A0008F7B8093A000D093A900C093BE
:10057000A8009CCF8091A00080628093A000D093BF
:10058000AB00C093AA0092CF8091A00088608093B6
:10059000A000D093AD00C093AC0088CF8091200123
:1005A000806880932001D0932901C09328017ECFD9
:1005B00080912001806280932001D0932B01C09311
:1005C0002A0174CF80912001886080932001D0930C
:1005D0002D01C0932C016ACFC038D1050CF040CF5B
:1005E00035CF3FB7F8948091A8039091A903A091CB
:1005F000AA03B091AB0326B5A89B05C02F3F19F005
:100600000196A11DB11D3FBFBA2FA92F982F882792
:10061000BC01CD01620F711D811D911D42E0660F6D
:10062000771F881F991F4A95D1F708958F929F923F
:10063000AF92BF92CF92DF92EF92FF924B015C019B
:100640000E94F1026B017C010E94F1026C197D098C
:100650008E099F09683E734081059105A8F321E04A
:10066000821A9108A108B10888EEC80E83E0D81E4E
:10067000E11CF11C81149104A104B10429F7FF903D
:10068000EF90DF90CF90BF90AF909F908F900895A4
:100690000895AF92BF92CF92DF92EF92FF920F93A5
:1006A0001F93CF93DF936C017B018B01040F151F08
:1006B000EB015E01AE18BF08C017D10759F0699170
:1006C000D601ED91FC910190F081E02DC6010995D4
:1006D000892B79F7C501DF91CF911F910F91FF9081
:1006E000EF90DF90CF90BF90AF90089560E087E0EB
:1006F0000E94BD0160E086E00E94BD0160E088E0EC
:100700000E94BD0160E089E00E94BD0160E08CE0D4
:100710000E94BD0160E08AE00E94BD0160E08DE0C2
:100720000E94BD0160E08BE00C94BD01CF92DF928E
:10073000EF92FF926B017C012FB7F8946091550402
:100740007091560480915704909158042FBF0E94D5
:10075000FD11A70196010E94E9100E94CE116B01C4
:100760007C012FB7F8948091550490915604A09184
:100770005704B09158042FBF8C159D05AE05BF05D9
:1007800098F40E9476032FB7F894809155049091C5
:100790005604A0915704B09158042FBF8C159D05A5
:1007A000AE05BF0580F3DDCFFF90EF90DF90CF90D7
:1007B000089508950895FC01538D448D252F30E050
:1007C000842F90E0821B930B541710F0CF9608955E
:1007D00001970895FC01918D828D981761F0A28D8B
:1007E000AE0FBF2FB11D5D968C91928D9F5F9F7351
:1007F000928F90E008958FEF9FEF0895FC01918D07
:10080000828D981731F0828DE80FF11D858D90E073
:1008100008958FEF9FEF0895FC01918D228D892F10
:1008200090E0805C9F4F821B91098F7399270895F8
:100830008CEA93E00E940C0421E0892B09F420E06B
:10084000822F0895FC01A48DA80FB92FB11DA35AC2
:10085000BF4F2C91848D90E001968F739927848FE0
:10086000A689B7892C93A089B1898C918370806403
:100870008C93938D848D981306C00288F389E02DA4
:1008800080818F7D80830895EF92FF920F931F9355
:10089000CF93DF93EC0181E0888F9B8D8C8D981333
:1008A0001AC0E889F989808185FF15C09FB7F8943F
:1008B000EE89FF896083E889F9898081837080648B
:1008C00080839FBF81E090E0DF91CF911F910F91D6
:1008D000FF90EF900895F62E0B8D10E00F5F1F4FE5
:1008E0000F731127E02E8C8D8E110CC00FB607FCF4
:1008F000FACFE889F989808185FFF5CFCE010E9482
:100900002204F1CFEB8DEC0FFD2FF11DE35AFF4FC9
:10091000F0829FB7F8940B8FEA89FB89808180620F
:10092000CFCFCF93DF93EC01888D8823B9F0AA89CC
:10093000BB89E889F9898C9185FD03C0808186FD9A
:100940000DC00FB607FCF7CF8C9185FFF2CF8081E9
:1009500085FFEDCFCE010E942204E9CFDF91CF9138
:10096000089580E090E0892B29F00E9418048111FD
:100970000E94000080E090E0892B49F080E090E048
:10098000892B29F00E94000081110E94000080E064
:1009900090E0892B49F080E090E0892B29F00E94BB
:1009A000000081110E94000080E090E0892B49F056
:1009B00080E090E0892B29F00E94000081110C94C6
:1009C0000000089520915103260F3327331F213251
:1009D0003105ECF420917503FC0190E080E02430B7
:1009E00069F082E00895A09151032191AC014F5C20
:1009F0005C4FA40FB52FB11D2C930196861798F369
:100A000080915103680F6093510380E0089581E065
:100A100008951092750381E0809377031092760316
:100A200061E084E10E94BD0161E085E10E94BD01B9
:100A3000E9EBF0E080818E7F808380818D7F8083F1
:100A400088E48093B80085E48093BC000895CF9338
:100A5000DF9391E0909330038823B9F0C091B80000
:100A6000D091BA008091BC008A7B8093BC0060E08A
:100A700084E10E94BD0160E085E10E94BD010E9409
:100A80000905D093BA00C093B800DF91CF910895C3
:100A90000895E091A2038091A103E81730F4F0E0FB
:100AA000E55FFC4F808190E008958FEF9FEF089500
:100AB0009091A2038091A1032FEF3FEF981748F484
:100AC000E92FF0E0E55FFC4F208130E09F5F9093DD
:100AD000A203C90108958091A1039091A203891BEB
:100AE000990B0895CF92DF92EF92FF920F931F938D
:100AF000CF93DF937C01CB018A0120910A0322234B
:100B000089F0EB016B01C40ED51ECC15DD0569F033
:100B10006991D701ED91FC910190F081E02DC70121
:100B20000995F3CF642F0E94E204C801DF91CF91B1
:100B30001F910F91FF90EF90DF90CF900895CF938A
:100B4000DF931F92CDB7DEB7698320910A0322237A
:100B5000F9F020919F03203258F021E030E0FC01B1
:100B60003383228390E080E00F90DF91CF9108954E
:100B70008091A003E82FF0E0E651FD4F998190832A
:100B80008F5F8093A00380939F0381E090E0ECCF80
:100B900061E0CE0101960E94E204F7CF1F93CF934C
:100BA000DF93EC01162F8881803308F04EC061E09E
:100BB000812F0E94EB018881282F30E0F901EE0F90
:100BC000FF1FE20FF31FE65AFD4F1F736081607C29
:100BD000612B608319821A822CE0622F0E94F81226
:100BE000829FB001112430E020E0AB01420F531F7F
:100BF000FA01EE0FFF1FE40FF51FE65AFD4F90813B
:100C000096FD16C02F5F3F4F2C30310571F78130B4
:100C100009F51092800082E0809381001092850097
:100C200010928400B19A80916F00826080936F006F
:100C3000E8818E2F90E0FC01EE0FFF1FE80FF91FF7
:100C4000E65AFD4F8081806480838881DF91CF9157
:100C50001F910895823061F410929000809391006A
:100C6000109295001092940088BB80937100E0CFA1
:100C7000833069F41092A00082E08093A10010926A
:100C8000A5001092A40089BB80937200D1CF81117E
:100C9000CFCF1092200182E0809321011092250194
:100CA000109224018ABB80937300C2CFAF92BF928F
:100CB000CF92DF92EF92FF920F931F93CF93DF9328
:100CC0006B017A01EC01CB5ADD4F28813CE0389F63
:100CD0008001399F100D1124A0905902B12C27FFDB
:100CE0001FC0FB011182108288818F5F88838881F9
:100CF0009801280F311D87FD3A95F6012A153B050D
:100D00001CF488818C30C4F18081918104968034F8
:100D10009C4908F473C0F60180819181049670C0EB
:100D200088819801280F311D87FD3A952A153B05CA
:100D3000DCF68881A801480F511D87FD5A95FA01FC
:100D4000EE0FFF1FE40FF51FE65AFD4F808186FF6F
:100D5000CBCF8881F801E80FF11D87FDFA95CF010F
:100D6000EE0FFF1FE80FF91FE65AFD4F808160E08C
:100D70008F730E94BD01B8CF808191812881A80125
:100D8000420F511D27FD5A959A01FA01EE0FFF1FE0
:100D9000E20FF31FE65AFD4F21813281820F931F2C
:100DA000F7019183808388819801280F311D87FD89
:100DB0003A95F901EE0FFF1FE20FF31FE65AFD4FC0
:100DC000808186FF22C08881080F111D87FD1A953A
:100DD000F801EE0FFF1FE00FF11FE65AFD4F808173
:100DE00061E08F73DF91CF911F910F91FF90EF9092
:100DF000DF90CF90BF90AF900C94BD0180E49CE950
:100E0000F701918380838FEF8883DF91CF911F91CA
:100E10000F91FF90EF90DF90CF90BF90AF9008952B
:100E2000CF92DF92EF92FF920F931F93CF93DF93B6
:100E3000FC01C48121E020930A03C0935402109264
:100E4000A00310929F038385682B89E494E00E949D
:100E50009F05D0919F03D13208F092C00E94F10209
:100E60006B017C0180917503811165C082E08093E4
:100E7000750381E0809377038FEF80937403109262
:100E80009903D0939803AAEEB2E0E8E7F3E080E09C
:100E9000D81385C010929A0380919A03CC0FC82B67
:100EA000C0939A0380917603813009F07CC0109240
:100EB00076030E94F1026B017C0180919A0380937A
:100EC000BB0080912C0390912D03A0912E03B09133
:100ED0002F03892B8A2B8B2B99F00E94F102009112
:100EE0002C0310912D0320912E0330912F036C19A8
:100EF0007D098E099F090617170728073907E0F1B2
:100F00008091BC0083FDD9CF85EC8093BC000E940A
:100F1000F1026B017C0180917503823009F445C0B8
:100F2000809174038F3F61F180917403803241F1AD
:100F30008091740325C080912C0390912D03A09182
:100F40002E03B0912F03892B8A2B8B2B09F48ACF88
:100F50000E94F10200912C0310912D0320912E0389
:100F600030912F036C197D098E099F090617170709
:100F70002807390708F076CF80912B030E942705B8
:100F80001092A00310929F0310920A03DF91CF9159
:100F90001F910F91FF90EF90DF90CF9008959D915A
:100FA00091938F5F75CF85EEB0CF80912C03909198
:100FB0002D03A0912E03B0912F03892B8A2B8B2B0D
:100FC00009F4A9CF0E94F10200912C0310912D0386
:100FD00020912E0330912F036C197D098E099F09F2
:100FE000061717072807390708F095CFC5CF0895CA
:100FF00090E080E00895CF92DF92EF92FF926B0134
:101000007C0120E030E040E251E40E948B129B0121
:10101000AC01609150027091510280915202909106
:1010200053020E94E9106093500270935102809322
:1010300052029093530220914C0230914D02409104
:101040004E0250914F02C701B6010E94E8102DECEC
:101050003CEC4CE45DE30E948B1220E030E040E287
:1010600051E40E945511A70196010E94E910C09217
:101070004C02D0924D02E0924E02F0924F02FF904D
:10108000EF90DF90CF9008950F931F93CF938C0133
:10109000862FC42F61E00E94BD016FEF70E0601BDE
:1010A000710B8C2FCF911F910F910C941C02CF923A
:1010B000DF92EF92FF920E94FB0720E030E04CE8C5
:1010C00052E40E94E9100E94C7116B0146E050E013
:1010D00067E070E0C6010E9444084AE050E06CE01E
:1010E00070E0C6010E94440860E088E00E94BD01F3
:1010F000B60189E00E941C0260E08DE00E94BD0103
:10110000B6018BE00E941C02C601FF90EF90DF90B9
:10111000CF900895CF92DF92EF92FF920E94FB074B
:1011200020E030E040ED52E40E94E9100E94C71137
:101130006B0146E050E067E070E0C6010E944408A1
:1011400049E050E068E070E0C6010E9444084AE0CF
:1011500050E06CE070E0C6010E9444084BE050E0B3
:101160006DE070E0C6010E944408C601FF90EF9058
:10117000DF90CF90089584E00E949401409148024E
:101180005091490260914A0270914B02892B69F497
:101190004F5F5F4F6F4F7F4F40934802509349021C
:1011A00060934A0270934B020895415051096109BE
:1011B0007109F2CF85E00E9494014091A303509100
:1011C000A4036091A5037091A603892B69F44F5F76
:1011D0005F4F6F4F7F4F4093A3035093A4036093DF
:1011E000A5037093A603089541505109610971093F
:1011F000F2CF8F929F92AF92BF920F931F93CF9394
:10120000DF93CDB7DEB7A1970FB6F894DEBF0FBE60
:10121000CDBF19A2423008F44AE08E010F5D1F4F86
:10122000842E912CB12CA12CA50194010E94C610F2
:10123000E62FB901CA01EA3044F5E05DD801EE932A
:101240008D01232B242B252B79F790E080E010973C
:1012500069F0FD0101900020E9F73197AF014A1BC9
:101260005B0BBD0189E594E00E944903A1960FB68E
:10127000F894DEBF0FBECDBFDF91CF911F910F91CC
:10128000BF90AF909F908F900895E95CD7CF0F9358
:101290001F93CF938C01C62F0E9410076C2F6460A0
:1012A000C8010E9410076C2F6B7FC8010E941007B5
:1012B00083EC90E00197F1F7CF911F910F91089582
:1012C0000F931F93CF93DF938C01D62FC42F607F92
:1012D000642B0E94470980E1D89FB00111246C2B38
:1012E000C801DF91CF911F910F910C94470940E005
:1012F00061E089E594E00E9460098BE39FE101973A
:10130000F1F7089541E00E94600981E090E00895BE
:10131000CF92DF92EF92FF9297FF18C06B017C0192
:1013200041E06DE289E594E00E9460096627772735
:10133000CB016C197D098E099F094AE00E94F908CA
:101340000196FF90EF90DF90CF9008954AE0FF90D4
:10135000EF90DF90CF900C94F908CF93DF93CDB747
:10136000DEB728970FB6F894DEBF0FBECDBF98E06A
:10137000E0E1F2E0DE01119601900D929A95E1F71D
:1013800090916204981708F48FEF90E0880F991FEE
:1013900021E030E02C0F3D1F820F931FFC01608184
:1013A000606840E089E594E028960FB6F894DEBFC7
:1013B0000FBECDBFDF91CF910C94600985ED809376
:1013C000BC0080912C0390912D03A0912E03B0912D
:1013D0002F030796A11DB11D23E0B695A7959795FC
:1013E00087952A95D1F72091BC0024FD03C0109267
:1013F0007503089540912C0350912D0360912E03A5
:1014000070912F03452B462B472B69F30097A105BD
:10141000B10541F025E32A95F1F700000197A109F4
:10142000B109E1CF80912B030C9427051F920F92F5
:101430000FB60F9211242F933F938F939F93AF93E7
:10144000BF938091550490915604A0915704B09198
:1014500058043091A70323E0230F2D3758F5019648
:10146000A11DB11D2093A7038093550490935604AA
:10147000A0935704B09358048091A8039091A903B6
:10148000A091AA03B091AB030196A11DB11D809359
:10149000A8039093A903A093AA03B093AB03BF91B1
:1014A000AF919F918F913F912F910F900FBE0F9011
:1014B0001F90189526E8230F0296A11DB11DD2CFCB
:1014C0001F920F920FB60F9211240BB60F922F930B
:1014D0003F934F935F936F937F938F939F93AF93BC
:1014E000BF93EF93FF93E0910E02F0910F020995E5
:1014F000FF91EF91BF91AF919F918F917F916F91EC
:101500005F914F913F912F910F900BBE0F900FBEA7
:101510000F901F9018951F920F920FB60F921124E3
:101520000BB60F922F933F934F935F936F937F93DD
:101530008F939F93AF93BF93EF93FF93E0910C0230
:10154000F0910D020995FF91EF91BF91AF919F919D
:101550008F917F916F915F914F913F912F910F905C
:101560000BBE0F900FBE0F901F9018951F920F92F9
:101570000FB60F9211240BB60F922F933F934F93F8
:101580005F936F937F938F939F93AF93BF93EF93EB
:10159000FF93E0910202F09103020995FF91EF9110
:1015A000BF91AF919F918F917F916F915F914F917B
:1015B0003F912F910F900BBE0F900FBE0F901F9079
:1015C00018951F920F920FB60F9211240BB60F921F
:1015D0002F933F934F935F936F937F938F939F933B
:1015E000AF93BF93EF93FF93E0910002F09101025C
:1015F0000995FF91EF91BF91AF919F918F917F914D
:101600006F915F914F913F912F910F900BBE0F9073
:101610000FBE0F901F9018951F920F920FB60F924A
:1016200011240BB60F922F933F934F935F936F93B9
:101630007F938F939F93AF93BF93EF93FF93E0912B
:101640000A02F0910B020995FF91EF91BF91AF91C2
:101650009F918F917F916F915F914F913F912F91CA
:101660000F900BBE0F900FBE0F901F9018951F92FA
:101670000F920FB60F9211240BB60F922F933F9338
:101680004F935F936F937F938F939F93AF93BF938A
:10169000EF93FF93E0910802F09109020995FF9101
:1016A000EF91BF91AF919F918F917F916F915F91DA
:1016B0004F913F912F910F900BBE0F900FBE0F9047
:1016C0001F9018951F920F920FB60F9211240BB610
:1016D0000F922F933F934F935F936F937F938F93CB
:1016E0009F93AF93BF93EF93FF93E0910602F09126
:1016F00007020995FF91EF91BF91AF919F918F9153
:101700007F916F915F914F913F912F910F900BBE01
:101710000F900FBE0F901F9018951F920F920FB64B
:101720000F9211240BB60F922F933F934F935F9319
:101730006F937F938F939F93AF93BF93EF93FF9399
:10174000E0910402F09105020995FF91EF91BF919C
:10175000AF919F918F917F916F915F914F913F9149
:101760002F910F900BBE0F900FBE0F901F901895EA
:101770001F920F920FB60F9211240BB60F922F9358
:101780003F934F935F936F937F938F939F93AF9309
:10179000BF93EF93FF938CEA93E00E942204FF91A2
:1017A000EF91BF91AF919F918F917F916F915F91D9
:1017B0004F913F912F910F900BBE0F900FBE0F9046
:1017C0001F9018951F920F920FB60F9211240BB60F
:1017D0000F922F938F939F93EF93FF93E091BC030E
:1017E000F091BD038081E091C203F091C30382FDBB
:1017F0001DC090818091C5038F5F8F732091C603B8
:10180000821741F0E091C503F0E0E455FC4F958F5D
:101810008093C503FF91EF919F918F912F910F902E
:101820000BBE0F900FBE0F901F9018958081F2CFC6
:101830001F920F920FB60F9211240BB60F922F9397
:101840003F934F935F936F937F938F939F93AF9348
:10185000BF93EF93FF938091B900887F803609F49E
:101860004DC008F040C0883209F4A9C028F5803185
:1018700009F49DC0C8F4882309F4FBC0883009F43A
:1018800096C0FF91EF91BF91AF919F918F917F9102
:101890006F915F914F913F912F910F900BBE0F90E1
:1018A0000FBE0F901F901895883109F488C08032C0
:1018B00041F78093740314C0803409F49DC040F450
:1018C0008033B9F38833E9F68093740385ECB0C0B4
:1018D000803509F485C0883509F496C0883489F6C6
:1018E0000E94DE09CECF883909F48CC038F58837DC
:1018F00029F050F4883611F0803719F683E0809390
:1019000075031092730357C0883809F47BC080397F
:1019100019F0803809F0B5CF80917303803208F058
:1019200071C0E091730381E08E0F80937303809107
:10193000BB00F0E0ED5AFC4F80833DC0803B39F0A6
:10194000E0F4803A09F479C0883A09F09ACF84E04B
:10195000809375031092520310925103E0919D03FE
:10196000F0919E0309958091510381110FC081E090
:10197000809351031092310309C0803C09F4A6CF33
:10198000883C09F4A3CF883B09F07BCFE091520358
:1019900081E08E0F80935203F0E0EF5CFC4F80817A
:1019A0008093BB00909152038091510329C0809194
:1019B0009A038093BB0085EC8093BC0062CF90912A
:1019C000990380919803981758F5E091990381E065
:1019D0008E0F80939903F0E0E858FC4F8081E9CFA7
:1019E000E091990381E08E0F809399038091BB0071
:1019F000F0E0E858FC4F8083909199038091980320
:101A00009817C8F285E8D8CFE091990381E08E0F4E
:101A1000809399038091BB00F0E0E858FC4F8083ED
:101A20008091770381115CCF81E08093760384EA13
:101A30008093BC001092750324CF85EC8093BC008A
:101A40001092750380917303803230F4E091730338
:101A5000F0E0ED5AFC4F10826091730370E0E0916A
:101A60009B03F0919C0383E593E009951092730327
:101A700008CF1092740334CF1F920F920FB60F92BB
:101A800011240BB60F922F933F934F935F936F9355
:101A90007F938F939F93AF93BF93EF93FF9348E20E
:101AA00051E064E271E090E080E00E945606FF9110
:101AB000EF91BF91AF919F918F917F916F915F91C6
:101AC0004F913F912F910F900BBE0F900FBE0F9033
:101AD0001F9018951F920F920FB60F9211240BB6FC
:101AE0000F922F933F934F935F936F937F938F93B7
:101AF0009F93AF93BF93EF93FF9348EA50E064EA5C
:101B000070E083E090E00E945606FF91EF91BF9154
:101B1000AF919F918F917F916F915F914F913F9185
:101B20002F910F900BBE0F900FBE0F901F90189526
:101B30001F920F920FB60F9211240BB60F922F9394
:101B40003F934F935F936F937F938F939F93AF9345
:101B5000BF93EF93FF9348E950E064E970E082E0BF
:101B600090E00E945606FF91EF91BF91AF919F9137
:101B70008F917F916F915F914F913F912F910F9036
:101B80000BBE0F900FBE0F901F9018951F920F92D3
:101B90000FB60F9211240BB60F922F933F934F93D2
:101BA0005F936F937F938F939F93AF93BF93EF93C5
:101BB000FF9348E850E064E870E081E090E00E9424
:101BC0005606FF91EF91BF91AF919F918F917F91B9
:101BD0006F915F914F913F912F910F900BBE0F909E
:101BE0000FBE0F901F901895FC01909159029033F1
:101BF00098F481E0890F809359029083892F90E0B7
:101C0000FC01EE0FFF1FE80FF91FE65AFD4F88EBAE
:101C10009BE09283818308958FEF80830895ECEA9F
:101C2000F3E01382128288EE93E0A0E0B0E08483B8
:101C30009583A683B7832CE132E03183208325ECA2
:101C400030E03587248724EC30E03787268720EC86
:101C500030E0318B208B21EC30E0338B228B22EC77
:101C600030E0358B248B26EC30E0378B268B118EC1
:101C7000128E138E148EE9E4F4E0138212828483B0
:101C80009583A683B7838EE292E0918380838BE66F
:101C900094E00E94F40D88E694E00E94F40D85E63D
:101CA00094E00E94F40D8FB7F89440915504509140
:101CB000560460915704709158048FBFE9E5F4E031
:101CC0001382128280E492E0918380838FE3848385
:101CD0008CE2808782E08187128688E0838708957E
:101CE000789484B5826084BD84B5816084BD85B5F7
:101CF000826085BD85B5816085BD80916E00816003
:101D000080936E00109281008091810082608093A8
:101D100081008091810081608093810080918000AA
:101D20008160809380008091B10084608093B100D5
:101D30008091B00081608093B000809191008260BA
:101D400080939100809191008160809391008091B7
:101D500090008160809390008091A10082608093C8
:101D6000A1008091A10081608093A1008091A000DA
:101D700081608093A0008091210182608093210185
:101D800080912101816080932101809120018160F7
:101D90008093200180917A00846080937A00809102
:101DA0007A00826080937A0080917A0081608093CB
:101DB0007A0080917A00806880937A001092C10046
:101DC00061E087E00E94EB0161E086E00E94EB01A8
:101DD00061E088E00E94EB0161E089E00E94EB0194
:101DE00061E08CE00E94EB0161E08AE00E94EB017F
:101DF00061E08DE00E94EB0161E08BE00E94EB016D
:101E000060E085E00E94EB018AED98E09093030288
:101E10008093020280916A008C6080936A00ED9A40
:101E200060E084E00E94EB018BEB98E0909301026C
:101E30008093000280916A00836080936A00EC9A2C
:101E400061E087E10E94EB0160E088E10E94EB0124
:101E500061E089E10E94EB0160E08AE10E94EB0110
:101E60006AE070E08BE694E00E94CE0563E370E0E8
:101E700088E694E00E94CE0565E370E085E694E094
:101E80000E94CE051092A2031092A1031092A0030B
:101E900010929F030E94090589ED93E090939E03A1
:101EA00080939D038AED93E090939C0380939B0322
:101EB00010925E0480916204823018F098E0909352
:101EC0005E0490916304992339F0813029F4809164
:101ED0005E04846080935E0462E370E080E090E0E2
:101EE0000E9416036091640489E594E00E94100743
:101EF00068EE73E080E090E00E94160360E389E5FD
:101F000094E00E944709CBE4D6E4CE010197F1F7B3
:101F100060E389E594E00E9447092197F1F760E3C7
:101F200089E594E00E94470983E592E00197F1F783
:101F300060E289E594E00E94470960915E04606276
:101F400040E089E594E00E94600984E080935F04AA
:101F500040E06CE089E594E00E9460090E94770906
:101F600082E08093600440E066E089E594E00E94AE
:101F7000600940E062E089E594E00E9460098BE33B
:101F80009FE10197F1F784E6C82ED12CE12CF12CCA
:101F90009CE3892E912CA12CB12C1092A3031092BA
:101FA000A4031092A5031092A6034090A30350909F
:101FB000A4036090A5037090A60385E6481651041B
:101FC00061047104E4F4C701B60164197509860956
:101FD00097090E94FF110E948A08EC0180E00E948C
:101FE000AD09C301B2010E94880981E00E94AD09D8
:101FF000BE01DD0F880B990B0E948809D6CF60E0E7
:1020000070E086E993E40E9496030E94770910929B
:10201000A3031092A4031092A5031092A60340906C
:10202000A3035090A4036090A5037090A60381E2DF
:102030004816510461047104E4F4C701B60164193F
:102040007509860997090E94FF110E945708EC0143
:1020500080E00E94AD09C301B2010E94880981E0BD
:102060000E94AD09BE01DD0F880B990B0E94880903
:10207000D6CF60E070E086E993E40E9496030E9468
:1020800077091092A3031092A4031092A503109253
:10209000A6034090A3035090A4036090A503709002
:1020A000A6038DE34816510461047104E4F4C501EC
:1020B000B40164197509860997090E94FF110E94ED
:1020C0008A08EC0180E00E94AD09C301B2010E94C0
:1020D000880981E00E94AD09BE01DD0F880B990BD4
:1020E0000E948809D6CF60E070E086E993E40E9400
:1020F00096030E9477091092A3031092A4031092F2
:10210000A5031092A6034090A3035090A4036090EF
:10211000A5037090A60381E248165104610471047E
:10212000E4F4C701B60164197509860997090E948C
:10213000FF110E945708EC0180E00E94AD09C30125
:10214000B2010E94880981E00E94AD09BE01DD0F45
:10215000880B990B0E948809D6CF60E070E086E971
:1021600093E40E9496030E9477091092A3031092B1
:10217000A4031092A5031092A60360E070E48CE122
:1021800096E40E9496030E94B10407CFA1E21A2EA2
:10219000AA1BBB1BFD010DC0AA1FBB1FEE1FFF1F0B
:1021A000A217B307E407F50720F0A21BB30BE40B5B
:1021B000F50B661F771F881F991F1A9469F76095A2
:1021C0007095809590959B01AC01BD01CF0108955C
:1021D0005058BB27AA270E9400110C9451120E944C
:1021E000431238F00E944A1220F039F49F3F19F44C
:1021F00026F40C9440120EF4E095E7FB0C943A128E
:10220000E92F0E94621258F3BA1762077307840716
:10221000950720F079F4A6F50C9484120EF4E0955D
:102220000B2EBA2FA02D0B01B90190010C01CA0190
:10223000A0011124FF27591B99F0593F50F4503E3B
:1022400068F11A16F040A22F232F342F4427585F2D
:10225000F3CF469537952795A795F0405395C9F745
:102260007EF41F16BA0B620B730B840BBAF09150FD
:10227000A1F0FF0FBB1F661F771F881FC2F70EC09C
:10228000BA0F621F731F841F48F48795779567956F
:10229000B795F7959E3F08F0B0CF9395880F08F05B
:1022A0009927EE0F9795879508950E9469110C94D0
:1022B00051120E944A1258F00E94431240F029F431
:1022C0005F3F29F00C943A1251110C9485120C9432
:1022D00040120E94621268F39923B1F3552391F3DF
:1022E000951B550BBB27AA2762177307840738F085
:1022F0009F5F5F4F220F331F441FAA1FA9F335D0E2
:102300000E2E3AF0E0E832D091505040E695001C95
:10231000CAF72BD0FE2F29D0660F771F881FBB1F4F
:10232000261737074807AB07B0E809F0BB0B802D2D
:10233000BF01FF2793585F4F3AF09E3F510578F059
:102340000C943A120C9485125F3FE4F3983ED4F358
:10235000869577956795B795F7959F5FC9F7880F2D
:10236000911D9695879597F90895E1E0660F771F7F
:10237000881FBB1F621773078407BA0720F0621B10
:10238000730B840BBA0BEE1F88F7E09508950E943B
:10239000CE116894B1110C94851208950E946A12AE
:1023A00088F09F5798F0B92F9927B751B0F0E1F016
:1023B000660F771F881F991F1AF0BA95C9F714C0C6
:1023C000B13091F00E948412B1E008950C9484120F
:1023D000672F782F8827B85F39F0B93FCCF38695FF
:1023E00077956795B395D9F73EF49095809570955C
:1023F00061957F4F8F4F9F4F0895E89409C097FBD9
:102400003EF490958095709561957F4F8F4F9F4FCB
:102410009923A9F0F92F96E9BB279395F69587950F
:1024200077956795B795F111F8CFFAF4BB0F11F4D2
:1024300060FF1BC06F5F7F4F8F4F9F4F16C0882379
:1024400011F096E911C0772321F09EE8872F762FAF
:1024500005C0662371F096E8862F70E060E02AF0F0
:102460009A95660F771F881FDAF7880F96958795DC
:1024700097F9089597F99F6780E870E060E0089504
:102480009FEF80EC089500240A941616170618068C
:102490000906089500240A94121613061406050668
:1024A0000895092E0394000C11F4882352F0BB0FF9
:1024B00040F4BF2B11F460FF04C06F5F7F4F8F4F5C
:1024C0009F4F089557FD9058440F551F59F05F3F97
:1024D00071F04795880F97FB991F61F09F3F79F046
:1024E00087950895121613061406551FF2CF4695C8
:1024F000F1DF08C0161617061806991FF1CF86954A
:102500007105610508940895E894BB27662777272D
:10251000CB0197F908950E949E120C9451120E94CB
:10252000431238F00E944A1220F0952311F00C94C7
:102530003A120C94401211240C9485120E946212DB
:1025400070F3959FC1F3950F50E0551F629FF00106
:10255000729FBB27F00DB11D639FAA27F00DB11D1F
:10256000AA1F649F6627B00DA11D661F829F2227A8
:10257000B00DA11D621F739FB00DA11D621F839F2F
:10258000A00D611D221F749F3327A00D611D231F05
:10259000849F600D211D822F762F6A2F11249F5753
:1025A00050409AF0F1F088234AF0EE0FFF1FBB1F56
:1025B000661F771F881F91505040A9F79E3F510515
:1025C00080F00C943A120C9485125F3FE4F3983E2D
:1025D000D4F3869577956795B795F795E7959F5FBF
:1025E000C1F7FE2B880F911D9695879597F9089551
:1025F000991B79E004C0991F961708F0961B881F55
:102600007A95C9F780950895EE0FFF1F0024001CEE
:0E2610000BBE0790F691E02D0994F894FFCFD1
:10261E004803480348034803480348034803480354
:10262E000000400014005400000000004404490360
:10263E00DB0391040C04EA03FE03000000009F0577
:10264E007205F80748056B0558054905000000009E
:08265E0082094903F807F707A0
:00000001FF
