:100000000C94F6000C9494050C9469050C943E0530
:100010000C9413050C94E8040C94BD040C94920405
:100020000C9467040C9420010C9420010C94200182
:100030000C9420010C9420010C9420010C942001BC
:100040000C9420010C9420010C9420010C942001AC
:100050000C9420010C9420010C9420010C941D049C
:100060000C9420010C94E9050C94BF050C9420011C
:100070000C9420010C9420010C9420010C9420017C
:100080000C9420010C9420010C9420010C9420016C
:100090000C9420010C9420010C9420010C9420015C
:1000A0000C9420010C9420010C9420010C9420014C
:1000B0000C9420010C9420010C9420010C9420013C
:1000C0000C9420010C9420010C9420010C9420012C
:1000D0000C9420010C9420010C9420010C9420011C
:1000E0000C94200100002100240027002A002D008C
:1000F0003000330001010000040107010A01000083
:100100002200250028002B002E00310034000201BF
:100110000000050108010B01050505050705080894
:100120000808020202020A0A080804040404010181
:100130000101010101010303030303030303040796
:1001400007070C0C0C0C0C0C0C0C0202020206062D
:100150000606060606060B0B0B0B0B0B0B0B010220
:1001600010202008081020401020408002010201C9
:100170000804020101020408102040808040201081
:1001800008040201800402018040201008040201DA
:100190000804020101020408102040800102040842
:1001A0001020408000000A0B02090C0D0E08070306
:1001B000040100000000000000000000000000003A
:1001C000000000000000000000000000000000002F
:1001D00012111000000000000000000000000000EC
:1001E000000000000000000000003F0711241FBEB7
:1001F000CFEFD1E2DEBFCDBF12E0A0E0B2E0EEEE85
:10020000FEE000E00BBF02C007900D92A232B107E2
:10021000D9F722E0A2E2B2E001C01D92AC3CB207E5
:10022000E1F710E0C6EFD0E004C02197FE010E9484
:100230006C07C53FD107C9F70E941F060C947507CC
:100240000C940000282F30E0F901EC55FE4F9491FA
:10025000F901E25AFE4F8491285E3E4FF901249144
:10026000222309F433C0992301F191509231E8F42B
:10027000E92FF0E0E25CFE4F0C946C076F01730114
:10028000500167016B01550176017C0180018601F7
:100290008A018E019401980155019C01A201A601D9
:1002A000909180009F7790938000E22FF0E0EE0F16
:1002B000FF1FE250FF4FA591B4919FB7F894EC91C6
:1002C000611148C080958E238C939FBF08959091B3
:1002D00080009F7DE8CF90918000977FE4CF94B518
:1002E0009F7794BDE2CF94B59F7DFBCF9091B000F6
:1002F0009F779093B000D9CF9091B0009F7DF9CFB8
:10030000909190009F7790939000CFCF9091900024
:100310009F7DF9CF90919000977FF5CF9091A000AD
:100320009F779093A000C1CF9091A0009F7DF9CFBF
:100330009091A000977FF5CF909120019F779093A7
:100340002001B3CF909120019F7DF9CF90912001A2
:10035000977FF5CF8E2BB8CFCF93DF9390E0FC0142
:10036000E25AFE4F2491885E9E4FFC0184918823BF
:10037000D1F090E0880F991FFC01EC51FF4FA5913F
:10038000B491FC01E250FF4FC591D49161110EC0B0
:100390009FB7F8948C91E22FE0958E238C9328815F
:1003A000E223E8839FBFDF91CF9108958FB7F89440
:1003B000EC91E22BEC938FBFF6CF1F93CF93DF939B
:1003C000182FEB0161E00E94AC01209739F460E046
:1003D000812FDF91CF911F910C942201CF3FD10546
:1003E00011F461E0F5CFE12FF0E0EC55FE4FE49120
:1003F000E150E23108F0B1C0F0E0EF5FFD4F0C9446
:100400006C0713021B0220022A023402AD023E02D4
:1004100046024E02580262026C027B028502AD0265
:100420008F029902A30284B5806884BDC7BDDF91A5
:10043000CF911F91089584B5806284BDC8BDF7CF68
:1004400080918000806880938000D0938900C09361
:100450008800EDCF80918000806280938000D093EF
:100460008B00C0938A00E3CF8091800088608093E6
:100470008000D0938D00C0938C00D9CF8091B000C4
:1004800080688093B000C093B300D1CF8091B0005A
:1004900080628093B000C093B400C9CF8091900077
:1004A000806880939000D0939900C0939800BFCF4C
:1004B00080919000806280939000D0939B00C093C5
:1004C0009A00B5CF80919000886080939000D0937F
:1004D0009D00C0939C00ABCF8091A000806880936A
:1004E000A0008091A0008F7B8093A000D093A900F2
:1004F000C093A8009CCF8091A00080628093A00050
:10050000D093AB00C093AA0092CF8091A0008860E6
:100510008093A000D093AD00C093AC0088CF8091B1
:100520002001806880932001D0932901C093280185
:100530007ECF80912001806280932001D0932B0197
:10054000C0932A0174CF809120018860809320019C
:10055000D0932D01C0932C016ACFC038D1050CF087
:1005600040CF35CF0895AF92BF92CF92DF92EF92F6
:10057000FF920F931F93CF93DF936C017B018B014D
:10058000040F151FEB015E01AE18BF08C017D1079D
:1005900059F06991D601ED91FC910190F081E02D27
:1005A000C6010995892B79F7C501DF91CF911F917C
:1005B0000F91FF90EF90DF90CF90BF90AF90089594
:1005C00080912202909123020196909323028093BE
:1005D0002202089580912402909125020196909321
:1005E0002502809324020895FC01538D448D252F0C
:1005F00030E0842F90E0821B930B541710F0CF96BD
:10060000089501970895FC01918D828D981761F0EE
:10061000A28DAE0FBF2FB11D5D968C91928D9F5F05
:100620009F73928F90E008958FEF9FEF0895FC01E4
:10063000918D828D981731F0828DE80FF11D858D97
:1006400090E008958FEF9FEF0895FC01918D228D2A
:10065000892F90E0805C9F4F821B91098F739927AF
:10066000089586E292E00E94250321E0892B09F497
:1006700020E0822F0895FC01A48DA80FB92FB11D91
:10068000A35ABF4F2C91848D90E001968F739927C8
:10069000848FA689B7892C93A089B1898C918370A6
:1006A00080648C93938D848D981306C00288F3899F
:1006B000E02D80818F7D80830895EF92FF920F93CC
:1006C0001F93CF93DF93EC0181E0888F9B8D8C8DFE
:1006D00098131AC0E889F989808185FF15C09FB7F2
:1006E000F894EE89FF896083E889F98980818370B5
:1006F000806480839FBF81E090E0DF91CF911F9164
:100700000F91FF90EF900895F62E0B8D10E00F5F84
:100710001F4F0F731127E02E8C8D8E110CC00FB65A
:1007200007FCFACFE889F989808185FFF5CFCE01F2
:100730000E943B03F1CFEB8DEC0FFD2FF11DE35A2F
:10074000FF4FF0829FB7F8940B8FEA89FB89808175
:100750008062CFCFCF93DF93EC01888D8823B9F0EF
:10076000AA89BB89E889F9898C9185FD03C08081BC
:1007700086FD0DC00FB607FCF7CF8C9185FFF2CF39
:10078000808185FFEDCFCE010E943B03E9CFDF9151
:10079000CF91089580E090E0892B29F00E943103E9
:1007A00081110E94000080E090E0892B49F080E0F8
:1007B00090E0892B29F00E94000081110E94000026
:1007C00080E090E0892B49F080E090E0892B29F0CF
:1007D0000E94000081110E94000080E090E0892BBF
:1007E00049F080E090E0892B29F00E9400008111FF
:1007F0000C9400000895CF93DF93EC0160E087E054
:100800000E94220161E086E00E942201BE0185E093
:10081000DF91CF910C94DD01CF93DF93EC0161E088
:1008200089E00E94220160E088E00E942201BE016E
:100830008AE0DF91CF910C94DD011F920F920FB6E9
:100840000F9211242F933F938F939F93AF93BF9356
:100850008091C8029091C902A091CA02B091CB02C6
:100860003091C70223E0230F2D3758F50196A11DC3
:10087000B11D2093C7028093C8029093C902A09330
:10088000CA02B093CB028091C3029091C402A0919E
:10089000C502B091C6020196A11DB11D8093C3028D
:1008A0009093C402A093C502B093C602BF91AF91CA
:1008B0009F918F913F912F910F900FBE0F901F909E
:1008C000189526E8230F0296A11DB11DD2CF1F92C5
:1008D0000F920FB60F9211240BB60F922F933F93E6
:1008E0004F935F936F937F938F939F93AF93BF9338
:1008F000EF93FF93E0910E02F0910F020995FF91A3
:10090000EF91BF91AF919F918F917F916F915F9187
:100910004F913F912F910F900BBE0F900FBE0F90F4
:100920001F9018951F920F920FB60F9211240BB6BD
:100930000F922F933F934F935F936F937F938F9378
:100940009F93AF93BF93EF93FF93E0910C02F091CD
:100950000D020995FF91EF91BF91AF919F918F91FA
:100960007F916F915F914F913F912F910F900BBEAF
:100970000F900FBE0F901F9018951F920F920FB6F9
:100980000F9211240BB60F922F933F934F935F93C7
:100990006F937F938F939F93AF93BF93EF93FF9347
:1009A000E0910202F09103020995FF91EF91BF914E
:1009B000AF919F918F917F916F915F914F913F91F7
:1009C0002F910F900BBE0F900FBE0F901F90189598
:1009D0001F920F920FB60F9211240BB60F922F9306
:1009E0003F934F935F936F937F938F939F93AF93B7
:1009F000BF93EF93FF93E0910002F09101020995FC
:100A0000FF91EF91BF91AF919F918F917F916F91E6
:100A10005F914F913F912F910F900BBE0F900FBEA2
:100A20000F901F9018951F920F920FB60F921124DE
:100A30000BB60F922F933F934F935F936F937F93D8
:100A40008F939F93AF93BF93EF93FF93E0910A022D
:100A5000F0910B020995FF91EF91BF91AF919F919A
:100A60008F917F916F915F914F913F912F910F9057
:100A70000BBE0F900FBE0F901F9018951F920F92F4
:100A80000FB60F9211240BB60F922F933F934F93F3
:100A90005F936F937F938F939F93AF93BF93EF93E6
:100AA000FF93E0910802F09109020995FF91EF91FF
:100AB000BF91AF919F918F917F916F915F914F9176
:100AC0003F912F910F900BBE0F900FBE0F901F9074
:100AD00018951F920F920FB60F9211240BB60F921A
:100AE0002F933F934F935F936F937F938F939F9336
:100AF000AF93BF93EF93FF93E0910602F09107024B
:100B00000995FF91EF91BF91AF919F918F917F9147
:100B10006F915F914F913F912F910F900BBE0F906E
:100B20000FBE0F901F9018951F920F920FB60F9245
:100B300011240BB60F922F933F934F935F936F93B4
:100B40007F938F939F93AF93BF93EF93FF93E09126
:100B50000402F09105020995FF91EF91BF91AF91C9
:100B60009F918F917F916F915F914F913F912F91C5
:100B70000F900BBE0F900FBE0F901F9018951F92F5
:100B80000F920FB60F9211240BB60F922F933F9333
:100B90004F935F936F937F938F939F93AF93BF9385
:100BA000EF93FF9386E292E00E943B03FF91EF9167
:100BB000BF91AF919F918F917F916F915F914F9175
:100BC0003F912F910F900BBE0F900FBE0F901F9073
:100BD00018951F920F920FB60F9211240BB60F9219
:100BE0002F938F939F93EF93FF93E0913602F091B1
:100BF00037028081E0913C02F0913D0282FD1DC0F0
:100C0000908180913F028F5F8F7320914002821705
:100C100041F0E0913F02F0E0EA5DFD4F958F809357
:100C20003F02FF91EF919F918F912F910F900BBEFB
:100C30000F900FBE0F901F9018958081F2CF78947F
:100C400084B5826084BD84B5816084BD85B58260D1
:100C500085BD85B5816085BD80916E008160809382
:100C60006E001092810080918100826080938100EB
:100C700080918100816080938100809180008160FB
:100C8000809380008091B10084608093B100809156
:100C9000B00081608093B000809191008260809369
:100CA00091008091910081608093910080919000EB
:100CB0008160809390008091A10082608093A10068
:100CC0008091A10081608093A1008091A00081604B
:100CD0008093A00080912101826080932101809106
:100CE00021018160809321018091200181608093A6
:100CF000200180917A00846080937A0080917A004C
:100D0000826080937A0080917A00816080937A007B
:100D100080917A00806880937A001092C10061E02F
:100D200089E00E94AC0161E088E00E94AC0161E0D2
:100D30008AE00E94AC0161E087E00E94AC0161E0C2
:100D400086E00E94AC0161E085E00E94AC0161E0B8
:100D50008CE00E94AC0160E08DE00E94AC0160E09C
:100D600082E00E94AC0161E082E00E94220180EEFC
:100D700092E0909301028093000280916A00836068
:100D800080936A00EC9A60E083E00E94AC0161E02D
:100D900083E00E9422018AEE92E090930302809306
:100DA000020280916A008C6080936A00ED9AE09163
:100DB0003602F091370282E08083E0913202F091B6
:100DC00033021082E0913402F09135028FEC80837F
:100DD00010923E02E0913A02F0913B0286E080835D
:100DE000E0913802F0913902808180618083E09146
:100DF0003802F0913902808188608083E091380266
:100E0000F0913902808180688083E0913802F0910E
:100E1000390280818F7D808386E292E00E942503E3
:100E20001816190654F486E292E00E9403038233F6
:100E30009105C9F02CF4C19779F00E94CA03ECCF58
:100E400083339105C9F0C497C1F78FEF90E00E94FA
:100E50000C0490E080E00DC08FEF90E00E940C0445
:100E60008FEF90E006C081E09FEF0E940C0481E0CC
:100E70009FEF0E94FB03E1CF90E080E0EFCFE6E23E
:100E8000F2E01382128288EE93E0A0E0B0E0848367
:100E90009583A683B78384E192E09183808385EC78
:100EA00090E09587848784EC90E09787868780EC34
:100EB00090E0918B808B81EC90E0938B828B82EC25
:100EC00090E0958B848B86EC90E0978B868B118ECF
:100ED000128E138E148E0895EE0FFF1F0024001C37
:0E0EE0000BBE0790F691E02D0994F894FFCF19
:100EEE00B202B202B202B202B202B202B202B20254
:100EFE00000000005D03B302F402AA0325030303FE
:020F0E001703C7
:00000001FF
